:020000040800F2
:100000000080022015110008651100086511000824
:100010006511000865110008651100080000000066
:100020000000000000000000000000006511000852
:100030006511000800000000651100086511000846
:1000400065110008651100086511000865110008B8
:1000500065110008651100086511000865110008A8
:10006000651100086511000865110008690700089E
:100070007D07000891070008A9070008C1070008CC
:10008000D9070008F107000865110008651100088C
:100090006511000865110008651100086511000868
:1000A0006D0B0008A10B0008651100086511000820
:1000B000D50B00086511000800000000651100085C
:1000C0006511000865110008651100086511000838
:1000D0006511000865110008651100086511000828
:1000E0006511000865110008000000000000000014
:1000F0000000000000000000000000000000000000
:1001000000000000651100080000000065110008F3
:1001100065110008000000006511000800000000E3
:10012000090800081D0800083108000849080008EF
:100130006108000865110008651100080000000052
:1001400065110008651100086511000865110008B7
:100150007908000891080008651100086511000879
:100160006511000865110008651100080000000015
:100170000000000065110008000000000000000001
:100180006511000865110008651100086511000877
:0401900065110008ED
:1001940010B5054C237833B9044B13B10448AFF3BD
:1001A40000800123237010BD7413002000000000A0
:1001B400CC11000808B5034B1BB103490348AFF346
:1001C400008008BD0000000078130020CC11000856
:1001D40010B51E4C236843F008032360236823F002
:1001E400F0032360236843F060032360236823F053
:1001F40080732360236823F080632360236898015D
:10020400FCD423681901F9D4114BE360114B236129
:10021400236843F0A063236023689A01FCD5236814
:100224001B01F9D50C4B40F204721A600323A3603E
:10023400A368C3F38103032BFAD100F08FFE4FF0C0
:100244005053C4F88830002010BD00BF0010024095
:10025400012800010018100000200240837C3BB1FB
:1002640002688388D068526810FA83F0801A704755
:1002740018467047604B817C9A6C42F0010270B55D
:100284009A649A6C42F002029A6403681A6822F033
:1002940001021A60C27C002A027D14BF20250025B9
:1002A400120300290CBF0E46022602F4405242EA11
:1002B40006020CBF0C4610242A43224342F080025B
:1002C4001A6001260022828000F1240506734FF48F
:1002D4008074066A048285609E60DD60002936D1E0
:1002E4005C60464A934234D1D2F8A010C37D0B43DC
:1002F400C2F8A03090F91530002B0DDB5A0901210A
:1003040003F01F0301FA03F320323D4941F8223080
:10031400BFF34F8FBFF36F8F90F91510837D427D2C
:100324001B010029DBB262DB354C651885F800330C
:100334000123490902F01F0203FA02F244F82120C2
:100344000268136843F001031360002070BD5A6013
:10035400C7E72C4A934207D1D2F88C30C17D43EAD7
:100364000113C2F88C30C5E7274A934205D1936F35
:10037400C17D43EA01239367BCE7244A934205D134
:10038400536EC17D43EA01335366B3E7204A934277
:1003940005D1136DC17D43EA01431365AAE71D4AE4
:1003A400934205D1D36BC17D43EA0153D363A1E7E3
:1003B400194A934205D1936AC17D43EA016393626A
:1003C40098E7164A93428FD0154A9342C4D0154AEF
:1003D4009342CCD0144A9342D2D0144A9342D8D0F8
:1003E400134A9342DED0134A934283D1E3E712497E
:1003F40002F00F028B54A3E70010024008000240F1
:1004040000E100E01C0002403000024044000240D1
:10041400580002406C000240800002400804024080
:100424001C040240300402404404024058040240C8
:100434006C0402408004024014ED00E0837C10B59B
:10044400014623B190F8243113B10123037310BD85
:10045400FFF704FF8A688242F9D2084650F8243B29
:100464001C68121A92B224F001041C60D8605A600D
:100474005A6892B28A801A6842F001021A60E6E76A
:1004840008B5837C01464BB1FFF7E8FE8A689042C9
:100494009BBF0B8A101A801A181A08BD1846FCE76D
:1004A40030B50446807CB8B1207B0028FCD0256898
:1004B400286820F00100286000202073012084F8BF
:1004C4002401E9606A60296801432960217B09B934
:1004D400002BFBD1104630BD4FF0FF32FAE72DE977
:1004E400F3479846837C04461546002B00F087802A
:1004F40090F82401237B0BB90028FBD123681A68E8
:10050400002622F001021A60267338B104F1240295
:1005140084F82461A260A680DA605E6020460191BE
:10052400FFF7AEFF2268268A536801998542A8BF67
:100534000546F31AAB423CBF5568751B7DB1204696
:100544000191A768FFF78AFE0346A06801999842C3
:1005540013D22A4600F02AFEA3682B44A360226823
:10056400136843F001031360237B13B9B8F1000F40
:10057400FAD1284602B0BDE8F087226853680BBB65
:10058400D06004F124094E44F61BB7B2BD42A380E7
:1005940025DB3A46019100F009FE0199A5EB070A13
:1005A40052463944484600F001FE236809EB0A022A
:1005B400A2605A6817445F60A38816FA83F6B6B23D
:1005C400A680CCE7A388D2F804C0D2F80CE01EFAC7
:1005D40083F3A3EB0C03D36053689BB2D1E72A46A1
:1005E40000F0E4FDA36822682B44A36053682B4405
:1005F4005360A38815FA83F39BB2A380AFE74FF04F
:10060400FF35B6E790F8243183B10246002380F821
:10061400243152F8243B196821F001011960DA6091
:10062400028A5A601A6842F021021A60704730B593
:10063400847CBCB90468256825F001052560E16067
:100644006260216821F020012160012180F82411D9
:10065400216841F001012160616809B1002BFBD1DF
:10066400104630BD4FF0FF32FAE72DE9F0479A46C5
:10067400837C06460F469146002B38D1FFF7C2FF14
:100684000268038A816800F124085568ADB25D1BD5
:100694004544A94286BF4D1B5D1B6D1AACB2BAF12D
:1006A400000F01D04C45F0DB4C45A8BF4C469CB133
:1006B40008EB03056D1AADB2AC4210DB2A46A4EB7D
:1006C4000509384600F072FD4A464146781900F0A3
:1006D4006DFD08EB0902B2602046BDE8F0872246B2
:1006E400384600F063FDB3682344B360F4E74FF089
:1006F400FF34F1E7837CF0B5002B30D104468668E3
:1007040054F8245B2B6823F001032B606A68038A86
:1007140092B29A1A2244964286BFB71ADF1B971BDD
:10072400BFB2B942A8BF39464F1C08D18460EC60FF
:100734006B602B6843F001032B600846F0BD002971
:10074400F7D0964208D923449B1B9BB2994203DB02
:10075400CB1A23448360ECE70E448660E9E74FF04C
:10076400FF31EAE7024B034801225A60FFF766BEF5
:100774000000024000000020024B034810225A608F
:10078400FFF75CBE0000024028010020034B044830
:100794004FF480725A60FFF751BE00BF0000024060
:1007A40050020020034B04484FF480525A60FFF774
:1007B40045BE00BF0000024078030020034B0448FC
:1007C4004FF480325A60FFF739BE00BF0000024088
:1007D400A0040020034B04484FF480125A60FFF732
:1007E4002DBE00BF00000240C8050020034B044892
:1007F4004FF080725A60FFF721BE00BF0000024034
:10080400F0060020024B034801225A60FFF716BE8F
:100814000004024018080020024B034810225A60CA
:10082400FFF70CBE0004024040090020034B0448BB
:100834004FF480725A60FFF701BE00BF000402400B
:10084400680A0020034B04484FF480525A60FFF7B3
:10085400F5BD00BF00040240900B0020034B044888
:100864004FF480325A60FFF7E9BD00BF0004024034
:10087400B80C0020034B04484FF480125A60FFF771
:10088400DDBD00BF00040240E00D0020034B04481E
:100894004FF080725A60FFF7D1BD00BF00040240E0
:1008A400080F0020026870B54B00032404FA03F318
:1008B4001A43026021FA04F200EB820201F00705F8
:1008C400146AAE000F25B54024EA05041462826858
:1008D40022EA030282604268012404FA01F122EA56
:1008E40001014160C26822EA0303C36070BD0309C9
:1008F40003F5901300F00F019802FFF7D3BF10B572
:100904000368490003248C4023EA04038A401A4301
:10091400026010BDCB0800EB830010B501F00701A5
:10092400036A89000F248C4002F00F0223EA0403B7
:1009340002FA01F11943016210BD10B58368490040
:1009440003248C4002F0030223EA04038A401A437E
:10095400826010BD10B5C368490003248C4002F0C6
:10096400030223EA04038A401A43C26010BD012330
:100974001AB103FA01F1816170471031F9E72DE9E9
:10098400F8430D461E469DF820909DF824809DF85E
:1009940028700446FFF7B3FF32462946FFF7BAFF33
:1009A4004A4629462046FFF7C8FF42462946FFF734
:1009B400D1FF3A462946BDE8F843FFF7D8BF30B522
:1009C40085B004099DF8245002959DF8205004F543
:1009D4009014CDE9003513460A4600F00F01A00239
:1009E400FFF7CDFF05B030BD030903F590130A46A8
:1009F40000F00F019802FFF7BABF000030B10128E0
:100A040006D00228034818BF0020704702487047E8
:100A14000248704760130020401300205013002048
:100A2400032838B50D4609D0FFF7E8FF044638B16E
:100A340000F03EF96560204600F090F9002038BDD2
:100A44000120FCE7032808B505D0FFF7D7FFBDE870
:100A5400084000F0C3B9002008BD032808B505D03C
:100A6400FFF7CCFFBDE8084000F0C5B9002008BD81
:100A7400032808B505D0FFF7C1FFBDE8084000F022
:100A8400C7B9002008BD0000154B984230B502D00C
:100A9400144B984210D1058C428C838CC48C017306
:100AA400C069032918D8DFE801F002080D121343C6
:100AB400234343EA0543836130BD2B43234343EA85
:100AC4000243F8E72A4342EA03432343F3E72A4372
:100AD400134343EA0443EEE72A431343F5E700BF15
:100AE40030100020B811002070B590F8283090F82C
:100AF4008421013B9A42044628DA90F88451013556
:100B0400EDB280F8845190F88411FFF7BDFF5623AD
:100B140015FB03F603FB054506F12C01B5F880200F
:100B2400606800232144FFF782FD06F15601B5F801
:100B34008020A06800232144FFF7B2FCB5F8803080
:100B44006269DB00D3620923136070BD0268136815
:100B540023F040031360012380F885310421FFF75B
:100B640093FF00236373F0E708B501212920FFF701
:100B74003BFF084B1A69D20706D51A69064822F0CA
:100B840001021A61FFF7B0FFBDE8084000212920E7
:100B9400FFF72ABF004001403010002008B50121B2
:100BA4002A20FFF721FF084B1A69D20706D51A69D4
:100BB400064822F001021A61FFF796FFBDE80840DB
:100BC40000212A20FFF710BF00440140B811002083
:100BD4004FF080431A69D20707D51A6922F001023F
:100BE4001A61024A1368013313607047901300209E
:100BF4000B4A936D43F0010393654FF08043012248
:100C04000021DA6099624FF0FF31D9620549102062
:100C140081F81C034FF0805008601A60704700BFD1
:100C24000010024000E100E04FF0804382B05A6AB5
:100C3400054B1A60054A126801921B680093DDE9AE
:100C4400000102B0704700BF9413002090130020ED
:100C5400F0B5044685B0A8B1FFF7E6FFCDE9000181
:100C64000948A4FB0001CDE90201FFF7DDFFDDE93E
:100C74000023DDE90245861A61EB0307AF4208BF92
:100C8400A642F2D305B0F0BD80380100074B98426C
:100C940009D0A3F57443984205D003F58063C31AC1
:100CA4005842584170470120704700BF0038014046
:100CB400016810B504460846FFF7E8FF78B3A26858
:100CC4004FF4E133636001204FF480735382107654
:100CD40001F124031362E368D16101F128041C6269
:100CE400104C5882A142D961187607D1002040F2F5
:100CF40005211075D1821875D98209E00A4CA142E8
:100D040007D14FF401711075D1821875D982002072
:100D140010BD064881424FF00000F9D1E7E70120F9
:100D2400F6E700BF0038014000440040004800409E
:100D3400036841681A6822F001021A60064A1268C0
:100D440009B94FF4E131B2FBF1F2DA601A6842F00A
:100D540001021A60704700BF70130020026810B5CA
:100D640004461046FFF792FF00282DD0174B9A42F5
:100D740019D1174A136E43F4804313662046FFF7D4
:100D8400D7FF2368A06800221A60FFF773FA10B92E
:100D9400E068FFF76FFA2368C0229A6000200D22F2
:100DA40058601A6010BD0B4B9A4205D1084A936DE6
:100DB40043F400339365E1E7074B9A42DED1044ADA
:100DC400936D43F48023F5E70120EBE700380140FD
:100DD40000100240004400400048004010B50446A2
:100DE4000068FFF753FF28B1E0680023BDE8104016
:100DF400FFF775BB10BD10B504460068FFF746FF4A
:100E040028B1A0680023BDE81040FFF72EBC10BD38
:100E140008B502460068FFF739FF20B1BDE8084075
:100E24009068FFF767BC08BD80B588B000F04EF944
:100E340000F0E8F84FF4E1310020FFF7F1FD304B0A
:100E440001AA03F11805164618685968144603C424
:100E54000833AB422246F7D11B7823704FF0FF31A1
:100E64000020FFF705FEFFF7C3FE264B1A69D003E7
:100E7400FCD425482549264D264F9D609F60D860A7
:100E8400D9601A6A42F0906242F400521A625A69B6
:100E940042F400325A611B4B804689461A69D103D9
:100EA400FCD45A69174C42F000425A610322694645
:100EB4000020FFF7D2FD9DF80030412BF6D1192216
:100EC40031460020FFF7BEFD0A20FFF7C1FE23696B
:100ED400DA03FCD4A560A760C4F80C80C4F80C90B5
:100EE400236A23F040632362636943F4003363613C
:100EF4002369DB03FCD4636943F000636361D5E7D2
:100F0400E4110008002002403B2A19087F6E5D4C62
:100F140023016745AB89EFCD0E4AD2F8883043F4FC
:100F24007003C2F888300C4B1A68002142F00102A9
:100F34001A6099601A6822F0A85222F410221A60EA
:100F44004FF48052DA601A6822F480221A609961A0
:100F5400704700BF00ED00E000100240234A24491E
:100F6400136824481B0755BFD2F894301368C3F3A1
:100F74000323C3F3031310B551F82340916801F020
:100F84000C0108290ED00C290ED004292CD11A4B9F
:100F940003609368194AC3F30313D25C0368D34014
:100FA400036010BD164BF3E7D168D36801F0030169
:100FB400C3F30213022903F1010304D0032911D05E
:100FC400B4FBF3F302E00C49B1FBF3F3D468D1684A
:100FD400C1F34161C4F30624013163434900B3FB07
:100FE400F1F3D5E70649EFE70460D2E700100240C9
:100FF40010120008701300200024F400FD110008F2
:1010040000127A0037B50024224603230121CDE9DA
:1010140000442920FFF7D3FC2B20FFF768FC2A208B
:10102400FFF765FC2120FFF762FC2020FFF75FFC3F
:1010340018200325FFF75BFC1920FFF758FC234613
:1010440001940095072202212B20FFF7B8FC2346C8
:10105400CDE90054072202212A20FFF7B0FC2346E1
:101064002846CDE9005407220221FFF7A8FC0221FB
:10107400234608460722CDE90054FFF7A0FC0A20C6
:10108400FFF735FC0920FFF732FC1F20FFF72FFC88
:101094002220FFF72CFC1A20FFF729FC1C20FFF765
:1010A40026FC2D20FFF723FC2346CDE9005407221C
:1010B40002210A20FFF783FCCDE9005423460722CE
:1010C40002210920FFF77BFC03B030BD10B50E4CA4
:1010D400236E43F001032366A36D43F08053A3659D
:1010E400FFF776F8094AD36823F4E0631B041B0C6A
:1010F40043F0BF6343F40033D360FFF779FDE36C3F
:1011040043F09F03E36410BD0010024000ED00E0D3
:10111400DFF834D0FFF700FF002103E00B4B5B58EE
:10112400435004310A480B4B42189A42F6D30A4AF8
:1011340002E0002342F8043B084B9A42F9D300F042
:1011440011F8FFF771FEFEE7008002204812000844
:101154000000002074130020741300209813002052
:10116400FEE7000070B50D4D0D4C641BA410002665
:10117400A64209D10B4D0C4C00F026F8641BA410B8
:101184000026A64205D170BD55F8043B98470136A8
:10119400EEE755F8043B98470136F2E740120008A1
:1011A4004012000840120008441200080A44914208
:1011B40000F1FF3300D1704710B511F8014B03F86B
:1011C400014F9142F9D110BDF8B500BFF8BC08BC7D
:1011D4009E467047F8B500BFF8BC08BC9E467047F1
:1011E400456E746572696E6720626F6F746C6F61AF
:1011F400646572206D6F64650000000000000000EB
:10120400000102030406070809000000A08601008B
:10121400400D0300801A060000350C0040420F0008
:1012240080841E0000093D0000127A000024F400AE
:0C12340000366E010048E801006CDC028E
:04124000B9010008E8
:041244009501000808
:10124800080002400000000000000000000000004C
:1012580000000000000B000000000000000000007B
:101268000000000000000000000000000000000076
:101278000000000000000000000000000000000066
:101288000000000000000000000000000000000056
:101298000000000000000000000000000000000046
:1012A8000000000000000000000000000000000036
:1012B8000000000000000000000000000000000026
:1012C8000000000000000000000000000000000016
:1012D8000000000000000000000000000000000006
:1012E80000000000000000000000000000000000F6
:1012F80000000000000000000000000000000000E6
:1013080000000000000000000000000000000000D5
:1013180000000000000000000000000000000000C5
:1013280000000000000000000000000000000000B5
:1013380000000000000000000000000000000000A5
:101348000000000000000000000000000000000095
:101358000000000000000000000000000000000085
:1013680000000000000000001C0002400000000017
:10137800000000000000000000000000000C000059
:101388000000000000000000000000000000000055
:101398000000000000000000000000000000000045
:1013A8000000000000000000000000000000000035
:1013B8000000000000000000000000000000000025
:1013C8000000000000000000000000000000000015
:1013D8000000000000000000000000000000000005
:1013E80000000000000000000000000000000000F5
:1013F80000000000000000000000000000000000E5
:1014080000000000000000000000000000000000D4
:1014180000000000000000000000000000000000C4
:1014280000000000000000000000000000000000B4
:1014380000000000000000000000000000000000A4
:101448000000000000000000000000000000000094
:101458000000000000000000000000000000000084
:101468000000000000000000000000000000000074
:101478000000000000000000000000000000000064
:101488000000000000000000000000000000000054
:1014980030000240000000000000000000000000D2
:1014A80000000000000D0000000000000000000027
:1014B8000000000000000000000000000000000024
:1014C8000000000000000000000000000000000014
:1014D8000000000000000000000000000000000004
:1014E80000000000000000000000000000000000F4
:1014F80000000000000000000000000000000000E4
:1015080000000000000000000000000000000000D3
:1015180000000000000000000000000000000000C3
:1015280000000000000000000000000000000000B3
:1015380000000000000000000000000000000000A3
:101548000000000000000000000000000000000093
:101558000000000000000000000000000000000083
:101568000000000000000000000000000000000073
:101578000000000000000000000000000000000063
:101588000000000000000000000000000000000053
:101598000000000000000000000000000000000043
:1015A8000000000000000000000000000000000033
:1015B800000000000000000044000240000000009D
:1015C800000000000000000000000000000E000005
:1015D8000000000000000000000000000000000003
:1015E80000000000000000000000000000000000F3
:1015F80000000000000000000000000000000000E3
:1016080000000000000000000000000000000000D2
:1016180000000000000000000000000000000000C2
:1016280000000000000000000000000000000000B2
:1016380000000000000000000000000000000000A2
:101648000000000000000000000000000000000092
:101658000000000000000000000000000000000082
:101668000000000000000000000000000000000072
:101678000000000000000000000000000000000062
:101688000000000000000000000000000000000052
:101698000000000000000000000000000000000042
:1016A8000000000000000000000000000000000032
:1016B8000000000000000000000000000000000022
:1016C8000000000000000000000000000000000012
:1016D8000000000000000000000000000000000002
:1016E8005800024000000000000000000000000058
:1016F80000000000000F00000000000000000000D3
:1017080000000000000000000000000000000000D1
:1017180000000000000000000000000000000000C1
:1017280000000000000000000000000000000000B1
:1017380000000000000000000000000000000000A1
:101748000000000000000000000000000000000091
:101758000000000000000000000000000000000081
:101768000000000000000000000000000000000071
:101778000000000000000000000000000000000061
:101788000000000000000000000000000000000051
:101798000000000000000000000000000000000041
:1017A8000000000000000000000000000000000031
:1017B8000000000000000000000000000000000021
:1017C8000000000000000000000000000000000011
:1017D8000000000000000000000000000000000001
:1017E80000000000000000000000000000000000F1
:1017F80000000000000000000000000000000000E1
:1018080000000000000000006C0002400000000022
:1018180000000000000000000000000000100000B0
:1018280000000000000000000000000000000000B0
:1018380000000000000000000000000000000000A0
:101848000000000000000000000000000000000090
:101858000000000000000000000000000000000080
:101868000000000000000000000000000000000070
:101878000000000000000000000000000000000060
:101888000000000000000000000000000000000050
:101898000000000000000000000000000000000040
:1018A8000000000000000000000000000000000030
:1018B8000000000000000000000000000000000020
:1018C8000000000000000000000000000000000010
:1018D8000000000000000000000000000000000000
:1018E80000000000000000000000000000000000F0
:1018F80000000000000000000000000000000000E0
:1019080000000000000000000000000000000000CF
:1019180000000000000000000000000000000000BF
:1019280000000000000000000000000000000000AF
:1019380080000240000000000000000000000000DD
:10194800000000000011000000000000000000007E
:10195800000000000000000000000000000000007F
:10196800000000000000000000000000000000006F
:10197800000000000000000000000000000000005F
:10198800000000000000000000000000000000004F
:10199800000000000000000000000000000000003F
:1019A800000000000000000000000000000000002F
:1019B800000000000000000000000000000000001F
:1019C800000000000000000000000000000000000F
:1019D80000000000000000000000000000000000FF
:1019E80000000000000000000000000000000000EF
:1019F80000000000000000000000000000000000DF
:101A080000000000000000000000000000000000CE
:101A180000000000000000000000000000000000BE
:101A280000000000000000000000000000000000AE
:101A3800000000000000000000000000000000009E
:101A4800000000000000000000000000000000008E
:101A58000000000000000000080402400000000030
:101A68000000000000000000000000000038000036
:101A7800000000000000000000000000000000005E
:101A8800000000000000000000000000000000004E
:101A9800000000000000000000000000000000003E
:101AA800000000000000000000000000000000002E
:101AB800000000000000000000000000000000001E
:101AC800000000000000000000000000000000000E
:101AD80000000000000000000000000000000000FE
:101AE80000000000000000000000000000000000EE
:101AF80000000000000000000000000000000000DE
:101B080000000000000000000000000000000000CD
:101B180000000000000000000000000000000000BD
:101B280000000000000000000000000000000000AD
:101B3800000000000000000000000000000000009D
:101B4800000000000000000000000000000000008D
:101B5800000000000000000000000000000000007D
:101B6800000000000000000000000000000000006D
:101B7800000000000000000000000000000000005D
:101B88001C040240000000000000000000000000EB
:101B98000000000000390000000000000000000004
:101BA800000000000000000000000000000000002D
:101BB800000000000000000000000000000000001D
:101BC800000000000000000000000000000000000D
:101BD80000000000000000000000000000000000FD
:101BE80000000000000000000000000000000000ED
:101BF80000000000000000000000000000000000DD
:101C080000000000000000000000000000000000CC
:101C180000000000000000000000000000000000BC
:101C280000000000000000000000000000000000AC
:101C3800000000000000000000000000000000009C
:101C4800000000000000000000000000000000008C
:101C5800000000000000000000000000000000007C
:101C6800000000000000000000000000000000006C
:101C7800000000000000000000000000000000005C
:101C8800000000000000000000000000000000004C
:101C9800000000000000000000000000000000003C
:101CA80000000000000000003004024000000000B6
:101CB800000000000000000000000000003A0000E2
:101CC800000000000000000000000000000000000C
:101CD80000000000000000000000000000000000FC
:101CE80000000000000000000000000000000000EC
:101CF80000000000000000000000000000000000DC
:101D080000000000000000000000000000000000CB
:101D180000000000000000000000000000000000BB
:101D280000000000000000000000000000000000AB
:101D3800000000000000000000000000000000009B
:101D4800000000000000000000000000000000008B
:101D5800000000000000000000000000000000007B
:101D6800000000000000000000000000000000006B
:101D7800000000000000000000000000000000005B
:101D8800000000000000000000000000000000004B
:101D9800000000000000000000000000000000003B
:101DA800000000000000000000000000000000002B
:101DB800000000000000000000000000000000001B
:101DC800000000000000000000000000000000000B
:101DD8004404024000000000000000000000000071
:101DE80000000000003B00000000000000000000B0
:101DF80000000000000000000000000000000000DB
:101E080000000000000000000000000000000000CA
:101E180000000000000000000000000000000000BA
:101E280000000000000000000000000000000000AA
:101E3800000000000000000000000000000000009A
:101E4800000000000000000000000000000000008A
:101E5800000000000000000000000000000000007A
:101E6800000000000000000000000000000000006A
:101E7800000000000000000000000000000000005A
:101E8800000000000000000000000000000000004A
:101E9800000000000000000000000000000000003A
:101EA800000000000000000000000000000000002A
:101EB800000000000000000000000000000000001A
:101EC800000000000000000000000000000000000A
:101ED80000000000000000000000000000000000FA
:101EE80000000000000000000000000000000000EA
:101EF800000000000000000058040240000000003C
:101F0800000000000000000000000000003C00008D
:101F180000000000000000000000000000000000B9
:101F280000000000000000000000000000000000A9
:101F38000000000000000000000000000000000099
:101F48000000000000000000000000000000000089
:101F58000000000000000000000000000000000079
:101F68000000000000000000000000000000000069
:101F78000000000000000000000000000000000059
:101F88000000000000000000000000000000000049
:101F98000000000000000000000000000000000039
:101FA8000000000000000000000000000000000029
:101FB8000000000000000000000000000000000019
:101FC8000000000000000000000000000000000009
:101FD80000000000000000000000000000000000F9
:101FE80000000000000000000000000000000000E9
:101FF80000000000000000000000000000000000D9
:1020080000000000000000000000000000000000C8
:1020180000000000000000000000000000000000B8
:102028006C040240000000000000000000000000F6
:102038000000000000440000000000000000000054
:102048000000000000000000000000000000000088
:102058000000000000000000000000000000000078
:102068000000000000000000000000000000000068
:102078000000000000000000000000000000000058
:102088000000000000000000000000000000000048
:102098000000000000000000000000000000000038
:1020A8000000000000000000000000000000000028
:1020B8000000000000000000000000000000000018
:1020C8000000000000000000000000000000000008
:1020D80000000000000000000000000000000000F8
:1020E80000000000000000000000000000000000E8
:1020F80000000000000000000000000000000000D8
:1021080000000000000000000000000000000000C7
:1021180000000000000000000000000000000000B7
:1021280000000000000000000000000000000000A7
:102138000000000000000000000000000000000097
:1021480000000000000000008004024000000000C1
:102158000000000000000000000000000045000032
:102168000000000000000000000000000000000067
:102178000000000000000000000000000000000057
:102188000000000000000000000000000000000047
:102198000000000000000000000000000000000037
:1021A8000000000000000000000000000000000027
:1021B8000000000000000000000000000000000017
:1021C8000000000000000000000000000000000007
:1021D80000000000000000000000000000000000F7
:1021E80000000000000000000000000000000000E7
:1021F80000000000000000000000000000000000D7
:1022080000000000000000000000000000000000C6
:1022180000000000000000000000000000000000B6
:1022280000000000000000000000000000000000A6
:102238000000000000000000000000000000000096
:102248000000000000000000000000000000000086
:102258000000000000000000000000000000000076
:102268000000000000000000000000000000000066
:1022780000300140680A0020900B00200000000098
:1022880000000000004001401800000000000000AD
:102298000000000000000000000000000000000036
:1022A8000000000000000000000000000000000026
:1022B8000000000000000000000000000000000016
:1022C8000000000000000000000000000000000006
:1022D80000000000000000000000000000000000F6
:1022E80000000000000000000000000000000000E6
:1022F80000000000000000000000000000000000D6
:1023080000000000000000000000000000000000C5
:1023180000000000000000000000000000000000B5
:1023280000000000000000000000000000000000A5
:102338000000000000000000000000000000000095
:102348000000000000000000000000000000000085
:102358000000000000000000000000000000000075
:102368000000000000000000000000000000000065
:102378000000000000000000000000000000000055
:102388000000000000000000000000000000000045
:102398000000000000000000000000000000000035
:1023A8000000000000000000000000000000000025
:1023B8000000000000000000000000000000000015
:1023C8000000000000000000000000000000000005
:1023D80000000000000000000000000000000000F5
:1023E80000000000000000000000000000000000E5
:1023F8000000000000000000003C00401808002019
:1024080040090020000000000000000000440140D6
:10241800190000000000000000000000000000009B
:1024280000000000000000000000000000000000A4
:102438000000000000000000000000000000000094
:102448000000000000000000000000000000000084
:102458000000000000000000000000000000000074
:102468000000000000000000000000000000000064
:102478000000000000000000000000000000000054
:102488000000000000000000000000000000000044
:102498000000000000000000000000000000000034
:1024A8000000000000000000000000000000000024
:1024B8000000000000000000000000000000000014
:1024C8000000000000000000000000000000000004
:1024D80000000000000000000000000000000000F4
:1024E80000000000000000000000000000000000E4
:1024F80000000000000000000000000000000000D4
:1025080000000000000000000000000000000000C3
:1025180000000000000000000000000000000000B3
:1025280000000000000000000000000000000000A3
:102538000000000000000000000000000000000093
:102548000000000000000000000000000000000083
:102558000000000000000000000000000000000073
:102568000000000000000000000000000000000063
:102578000000000000000000000000000000000053
:102588000044004000000000C8050020F0060020BC
:102598000038014000000000A0040020780300205B
:1025A80000480040000000005002002028010020E0
:0425B80000093D00D9
:0400000508001115C9
:00000001FF
