:020000040800F2
:100000000080022035FF020875FA02081532000848
:1000100079FA02087DFA020881FA0208000000005D
:1000200000000000000000000000000061D0000897
:1000300085FF020800000000F1D0000855D100083B
:1000400085FF020885FF020885FF020885FF020878
:1000500085FF020885FF020885FF020885FF020868
:1000600085FF020885FF020885FF020821AD000810
:1000700035AD000849AD000861AD000879AD000854
:1000800091AD0008A9AD000885FF020885FF0208B0
:1000900085FF020885FF020885FF020885FF020828
:1000A00085FF020885FF020885FF020885FF020818
:1000B00045B7000885FF02080000000085FF020820
:1000C00085FF020885FF020885FF020885FF0208F8
:1000D00085FF020885FF020885FF020885FF0208E8
:1000E00085FF020885FF02080000000000000000F4
:1000F0000000000000000000000000000000000000
:100100000000000085FF02080000000085FF0208D3
:1001100085FF02080000000085FF020800000000C3
:10012000C1AD0008D5AD0008E9AD000801AE00087A
:1001300019AE000885FF020885FF020800000000D4
:1001400085FF020885FF020885FF0208F1BB000851
:1001500031AE000849AE000885FF020885FF02089D
:1001600085FF020885FF020885FF020800000000E5
:100170000000000085FF02080000000000000000F1
:1001800085FF020885FF020885FF020885FF020837
:0401900085FF0208DD
:1001A00010B5054C237833B9044B13B10448AFF3B1
:1001B00000800123237010BD603C0020000000007F
:1001C0008463050808B5034B1BB103490348AFF32B
:1001D000008008BD00000000643C00208463050826
:1001E00001F0FF01102A2BDB10F0070F08D010F8E8
:1001F000013B013A8B422DD010F0070F42B3F6D1EC
:10020000F0B441EA012141EA014122F007047FF004
:1002100000070023F0E80256083C85EA010586EA5B
:10022000010685FA47F5A3FA87F586FA47F6A5FA97
:1002300087F68EB9EED1F0BC01F0FF0102F00702A3
:1002400032B110F8013B013A83EA010313B1F8D14E
:100250000020704701387047002D06BF354603382F
:10026000073815F0010F07D1013015F4807F02BF68
:10027000013015F4C03F0130F0BC0138704700BFB9
:1002800010F8012B11F8013B012A28BF9A42F7D040
:10029000D01A7047034613F8012B002AFBD1181A15
:1002A0000138704781F0004102E000BF83F0004355
:1002B00030B54FEA41044FEA430594EA050F08BF01
:1002C00090EA020F1FBF54EA000C55EA020C7FEAC5
:1002D000645C7FEA655C00F0E2804FEA5454D4EB42
:1002E0005555B8BF6D420CDD2C4480EA020281EA0C
:1002F000030382EA000083EA010180EA020281EA44
:100300000303362D88BF30BD11F0004F4FEA013195
:100310004FF4801C4CEA113102D0404261EB4101A4
:1003200013F0004F4FEA03334CEA133302D052422A
:1003300063EB430394EA050F00F0A780A4F10104E6
:10034000D5F1200E0DDB02FA0EFC22FA05F2801820
:1003500041F1000103FA0EF2801843FA05F3594106
:100360000EE0A5F120050EF1200E012A03FA0EFC85
:1003700028BF4CF0020C43FA05F3C01851EBE371AF
:1003800001F0004507D54FF0000EDCF1000C7EEBCC
:1003900000006EEB0101B1F5801F1BD3B1F5001F0A
:1003A0000CD349085FEA30004FEA3C0C04F1010429
:1003B0004FEA445212F5800F80F09A80BCF1004F52
:1003C00008BF5FEA500C50F1000041EB045141EAD4
:1003D000050130BD5FEA4C0C404141EB0101013C9D
:1003E00028BFB1F5801FE9D291F0000F04BF01468C
:1003F0000020B1FA81F308BF2033A3F10B03B3F15E
:1004000020020CDA0C3208DD02F1140CC2F10C02ED
:1004100001FA0CF021FA02F10CE002F11402D8BF4B
:10042000C2F1200C01FA02F120FA0CFCDCBF41EA17
:100430000C019040E41AA2BF01EB0451294330BDE6
:100440006FEA04041F3C1CDA0C340EDC04F11404C3
:10045000C4F1200220FA04F001FA02F340EA03009A
:1004600021FA04F345EA030130BDC4F10C04C4F1E0
:10047000200220FA02F001FA04F340EA03002946C0
:1004800030BD21FA04F0294630BD94F0000F83F40A
:10049000801306BF81F480110134013D4EE77FEAED
:1004A000645C18BF7FEA655C29D094EA050F08BF39
:1004B00090EA020F05D054EA000C04BF194610461A
:1004C00030BD91EA030F1EBF0021002030BD5FEA5E
:1004D000545C05D14000494128BF41F0004130BD86
:1004E00014F580043CBF01F5801130BD01F00045DA
:1004F00045F0FE4141F470014FF0000030BD7FEA4D
:10050000645C1ABF194610467FEA655C1CBF0B4647
:10051000024650EA013406BF52EA033591EA030F5E
:1005200041F4002130BD00BF90F0000F04BF002156
:10053000704730B54FF4806404F132044FF0000589
:100540004FF0000150E700BF90F0000F04BF002102
:10055000704730B54FF4806404F1320410F0004568
:1005600048BF40424FF000013EE700BF42004FEA63
:10057000E2014FEA31014FEA02701FBF12F07F43E0
:1005800093F07F4F81F06051704732F07F4208BF97
:10059000704793F07F4F04BF41F40021704730B59E
:1005A0004FF4607401F0004521F000411CE700BFEA
:1005B00050EA010208BF704730B54FF000050AE06D
:1005C00050EA010208BF704730B511F0004502D56E
:1005D000404261EB41014FF4806404F132045FEA70
:1005E000915C3FF4D8AE4FF003025FEADC0C18BF19
:1005F00003325FEADC0C18BF033202EBDC02C2F10B
:10060000200300FA03FC20FA02F001FA03FE40EA9C
:100610000E0021FA02F11444BDE600BF70B54FF0A0
:10062000FF0C4CF4E06C1CEA11541DBF1CEA13557E
:1006300094EA0C0F95EA0C0F00F0DEF82C4481EAE6
:10064000030621EA4C5123EA4C5350EA013518BF06
:1006500052EA033541F4801143F4801338D0A0FBF3
:1006600002CE4FF00005E1FB02E506F00042E0FBA0
:1006700003E54FF00006E1FB03569CF0000F18BFA6
:100680004EF0010EA4F1FF04B6F5007F64F540744E
:1006900004D25FEA4E0E6D4146EB060642EAC621E1
:1006A00041EA55514FEAC52040EA5E504FEACE2E4E
:1006B000B4F1FD0C88BFBCF5E06F1ED8BEF1004F51
:1006C00008BF5FEA500E50F1000041EB045170BDCD
:1006D00006F0004646EA010140EA020081EA030111
:1006E000B4EB5C04C2BFD4EB0C0541EA045170BD0D
:1006F00041F480114FF0000E013C00F3AB8014F187
:10070000360FDEBF002001F0004170BDC4F10004CF
:10071000203C35DA0C341BDC04F11404C4F1200550
:1007200000FA05F320FA04F001FA05F240EA0200AB
:1007300001F0004221F0004110EBD37021FA04F6E1
:1007400042EB06015EEA430E08BF20EAD37070BD9B
:10075000C4F10C04C4F1200500FA04F320FA05F0FA
:1007600001FA04F240EA020001F0004110EBD370FC
:1007700041F100015EEA430E08BF20EAD37070BD6C
:10078000C4F1200500FA05F24EEA020E20FA04F345
:1007900001FA05F243EA020321FA04F001F00041F4
:1007A00021FA04F220EA020000EBD3705EEA430E65
:1007B00008BF20EAD37070BD94F0000F0FD101F094
:1007C0000046400041EB010111F4801F08BF013CCD
:1007D000F7D041EA060195F0000F18BF704703F00B
:1007E0000046520043EB030313F4801F08BF013D92
:1007F000F7D043EA0603704794EA0C0F0CEA13554E
:1008000018BF95EA0C0F0CD050EA410618BF52EA07
:100810004306D1D181EA030101F000414FF000000D
:1008200070BD50EA410606BF1046194652EA43061B
:1008300019D094EA0C0F02D150EA013613D195EA8F
:100840000C0F05D152EA03361CBF104619460AD1D7
:1008500081EA030101F0004141F0FE4141F47001E1
:100860004FF0000070BD41F0FE4141F4780170BDD1
:1008700070B54FF0FF0C4CF4E06C1CEA11541DBF36
:100880001CEA135594EA0C0F95EA0C0F00F0A7F838
:10089000A4EB050481EA030E52EA03354FEA013165
:1008A00000F088804FEA03334FF0805545EA131378
:1008B00043EA12634FEA022245EA111545EA106540
:1008C0004FEA00260EF000419D4208BF964244F1D7
:1008D000FD0404F5407402D25B084FEA3202B61AF6
:1008E00065EB03055B084FEA32024FF480104FF4CA
:1008F000002CB6EB020E75EB030E22BFB61A75463E
:1009000040EA0C005B084FEA3202B6EB020E75EBD0
:10091000030E22BFB61A754640EA5C005B084FEA38
:100920003202B6EB020E75EB030E22BFB61A754605
:1009300040EA9C005B084FEA3202B6EB020E75EB10
:10094000030E22BFB61A754640EADC0055EA060ED1
:1009500018D04FEA051545EA16754FEA06164FEA14
:10096000C30343EA52734FEAC2025FEA1C1CC0D1C0
:1009700011F4801F0BD141EA00014FF000004FF04D
:10098000004CB6E711F4801F04BF01430020B4F10E
:10099000FD0C88BFBCF5E06F3FF6AFAEB5EB030CC6
:1009A00004BFB6EB020C5FEA500C50F1000041EBC3
:1009B000045170BD0EF0004E4EEA113114EB5C0490
:1009C000C2BFD4EB0C0541EA045170BD41F4801163
:1009D0004FF0000E013C90E645EA060E8DE60CEA6B
:1009E000135594EA0C0F08BF95EA0C0F3FF43BAF88
:1009F00094EA0C0F0AD150EA01347FF434AF95EA3F
:100A00000C0F7FF425AF104619462CE795EA0C0F22
:100A100006D152EA03353FF4FDAE1046194622E7EF
:100A200050EA410618BF52EA43067FF4C5AE50EAC9
:100A300041047FF40DAF52EA43057FF4EBAE12E7B9
:100A40004FF0FF3C06E000BF4FF0010C02E000BF9A
:100A50004FF0010C4DF804CD4FEA410C7FEA6C5C7D
:100A60004FEA430C18BF7FEA6C5C1BD001B050EA20
:100A7000410C0CBF52EA430C91EA030F02BF90EA0B
:100A8000020F0020704710F1000F91EA030F58BFCA
:100A9000994208BF90422CBFD8176FEAE37040F02C
:100AA000010070474FEA410C7FEA6C5C02D150EACA
:100AB000013C07D14FEA430C7FEA6C5CD6D152EA85
:100AC000033CD3D05DF8040B704700BF844610464A
:100AD00062468C461946634600E000BF01B5FFF749
:100AE000B7FF002848BF10F1000F01BD4DF808ED19
:100AF000FFF7F4FF0CBF012000205DF808FB00BFEA
:100B00004DF808EDFFF7EAFF34BF012000205DF843
:100B100008FB00BF4DF808EDFFF7E0FF94BF012090
:100B200000205DF808FB00BF4DF808EDFFF7CEFF91
:100B300094BF012000205DF808FB00BF4DF808EDD0
:100B4000FFF7C4FF34BF012000205DF808FB00BFA1
:100B50004FEA410C7FEA6C5C02D150EA013C0AD1B9
:100B60004FEA430C7FEA6C5C02D152EA033C02D1AB
:100B70004FF0000070474FF0010070474FEA41020C
:100B800012F5001215D211D56FF47873B3EB6252DF
:100B900012D94FEAC12343F0004343EA505311F006
:100BA000004F23FA02F018BF404270474FF0000098
:100BB000704750EA013005D111F0004008BF6FF0D6
:100BC000004070474FF00000704700BF4A0011D24C
:100BD00012F5001211D20DD56FF47873B3EB625297
:100BE0000ED44FEAC12343F0004343EA505323FAA3
:100BF00002F070474FF00000704750EA013002D118
:100C00004FF0FF3070474FF0000070474FEA41024D
:100C1000B2F1E04324BFB3F5001CDCF1FE5C0DD95A
:100C200001F0004C4FEAC0024CEA5070B2F1004FA4
:100C300040EB830008BF20F00100704711F0804FA7
:100C400021D113F13872BCBF01F00040704741F46C
:100C500080114FEA5252C2F11802C2F1200C10FA70
:100C60000CF320FA02F018BF40F001004FEAC12354
:100C70004FEAD32303FA0CFC40EA0C0023FA02F3F8
:100C80004FEA4303CCE77FEA625307D150EA0133CE
:100C90001EBF4FF0FE4040F44000704701F000409E
:100CA00040F0FE4040F40000704700BF80F000407C
:100CB00002E000BF81F0004142001FBF5FEA410334
:100CC00092EA030F7FEA226C7FEA236C6AD04FEA34
:100CD0001262D2EB1363C1BFD21841404840414079
:100CE000B8BF5B42192B88BF704710F0004F40F42B
:100CF000000020F07F4018BF404211F0004F41F447
:100D0000000121F07F4118BF494292EA030F3FD012
:100D1000A2F1010241FA03FC10EB0C00C3F1200325
:100D200001FA03F100F0004302D5494260EB4000B4
:100D3000B0F5000F13D3B0F1807F06D340084FEA1F
:100D4000310102F10102FE2A51D2B1F1004F40EB14
:100D5000C25008BF20F0010040EA0300704749007C
:100D600040EB0000013A28BFB0F5000FEDD2B0FA19
:100D700080FCACF1080CB2EB0C0200FA0CF0AABF3C
:100D800000EBC25052421843BCBFD04018437047DA
:100D900092F0000F81F4000106BF80F400000132E0
:100DA000013BB5E74FEA41037FEA226C18BF7FEAB7
:100DB000236C21D092EA030F04D092F0000F08BFF9
:100DC0000846704790EA010F1CBF0020704712F0E0
:100DD0007F4F04D1400028BF40F00040704712F11F
:100DE00000723CBF00F50000704700F0004343F084
:100DF000FE4040F4000070477FEA226216BF0846BA
:100E00007FEA23630146420206BF5FEA412390EA7C
:100E1000010F40F4800070474FF0000304E000BF72
:100E200010F0004348BF40425FEA000C08BF704723
:100E300043F0964301464FF000001CE050EA0102E7
:100E400008BF70474FF000030AE000BF50EA0102FC
:100E500008BF704711F0004302D5404261EB4101E9
:100E60005FEA010C02BF84460146002043F0B6430E
:100E700008BFA3F18053A3F50003BCFA8CF2083A33
:100E8000A3EBC25310DB01FA02FC634400FA02FC3C
:100E9000C2F12002BCF1004F20FA02F243EB020043
:100EA00008BF20F00100704702F1200201FA02FCA5
:100EB000C2F1200250EA4C0021FA02F243EB020098
:100EC00008BF20EADC7070477BB972B90029BEBF49
:100ED00000204FF0004106E008BF00281CBF6FF063
:100EE00000414FF0FF3000F0EFB9ADF1080C6DE9B3
:100EF00004CE002909DB002B1ADB00F083F8DDF8B3
:100F000004E0DDE9022304B07047404261EB410197
:100F1000002B1BDB00F076F8DDF804E0DDE90223AE
:100F200004B0404261EB4101524263EB430370471E
:100F3000524263EB430300F065F8DDF804E0DDE9BD
:100F4000022304B0404261EB41017047524263EB1F
:100F5000430300F057F8DDF804E0DDE9022304B0B4
:100F6000524263EB4303704753B94AB9002908BFA3
:100F700000281CBF4FF0FF314FF0FF3000F0A4B944
:100F8000ADF1080C6DE904CE00F03CF8DDF804E0AA
:100F9000DDE9022304B0704738B50022002304467F
:100FA0000D46FFF7ADFD28B920462946BDE838407B
:100FB00000F00AB8204605F1004100F005F8404273
:100FC00061EB410138BD00BFD0B50C4B0022064695
:100FD0000F46FFF723FBFFF7F9FD0446FFF7A4FADE
:100FE000074B0022FFF71AFB02460B4630463946F4
:100FF000FFF75CF9FFF7EAFD2146D0BD0000F03DA8
:101000000000F0412DE9F047089D04468C46002B76
:1010100040F083808A42174647D9B2FA82F242B141
:10102000C2F1200024FA00F09140974040EA010C00
:1010300094404FEA1748230CBCFBF8F61FFA87FED2
:1010400008FB16C143EA014306FB0EF1994209D998
:10105000FB1806F1FF3080F01981994240F21681A9
:10106000023E3B445B1AA4B2B3FBF8F008FB10331A
:1010700044EA034400FB0EFEA64509D93C1900F1E1
:10108000FF3380F00581A64540F2028102383C44DE
:1010900040EA0640A4EB0E0400261DB1D440002314
:1010A000C5E900433146BDE8F08702B9FFDEB2FA78
:1010B00082F2002A50D1CB1B4FEA174E1FFA87F855
:1010C0000126B3FBFEFC210C0EFB1C3341EA03415D
:1010D00008FB0CF38B4207D979180CF1FF3002D2D0
:1010E0008B4200F2E9808446C91AA3B2B1FBFEF03C
:1010F0000EFB101143EA014408FB00F8A04507D994
:101100003C1900F1FF3302D2A04500F2D980184605
:10111000A4EB080440EA0C40BFE78B4209D9002D3C
:1011200000F0B1800026C5E9000130463146BDE837
:10113000F087B3FA83F6002E4AD18B4202D3824263
:1011400000F2B880841A61EB030101208C46002D67
:10115000A8D0C5E9004CA5E7C2F1200320FA03F6A8
:10116000974001FA02F04FEA174ED9403043030C82
:10117000B1FBFEF61FFA87F80EFB161143EA014396
:1011800006FB08F1994204FA02F409D9FB1806F1AA
:10119000FF3C80F08D80994240F28A80023E3B44C1
:1011A0005B1A81B2B3FBFEF00EFB103341EA034140
:1011B00000FB08F38B4207D9791800F1FF3C73D28A
:1011C0008B4271D902383944CB1A40EA064678E797
:1011D000C6F1200C03FA06F422FA0CF31C4320FAA1
:1011E0000CF701FA06F34FEA144E21FA0CF11F43F3
:1011F0003B0CB1FBFEF91FFA84F80EFB191143EA10
:10120000014109FB08FA8A4502FA06F200FA06F3E0
:1012100008D9611809F1FF3048D28A4546D9A9F1A9
:1012200002092144A1EB0A01BFB2B1FBFEF00EFBA3
:10123000101147EA014700FB08F8B84507D9E7193C
:1012400000F1FF312ED2B8452CD90238274440EAAC
:101250000940A7EB0807A0FB02894F45C64649464F
:101260001AD317D05DB1B3EB0E0267EB010707FA93
:101270000CFCF2404CEA0202F740C5E900270026C8
:101280003146BDE8F0872E4628460BE70646E9E6DC
:101290001846FDE64345E5D2B8EB020E69EB0401C2
:1012A0000138DFE70846D2E760468DE78146B9E7B7
:1012B000664675E730464AE7ACF1020C394413E75D
:1012C00002383C4424E700BF704700BF014B186858
:1012D000704700BFE0280220064B5A69002A01DB54
:1012E000002070470449054A99609A605869C00F08
:1012F000704700BF0020024023016745AB89EFCD56
:10130000034A536943F0004353610020704700BF14
:101310000020024070B50546FFF7D8FF104C064686
:1013200001E06A1C0ED12369DB03FAD423690D4A5C
:1013300013400ED1206910F0010002D0012218469E
:10134000226170BDFFF7C2FF801BA842EBD30320D0
:1013500070BD05494A681A434A600120236170BD87
:1013600000200240FAC30200040000202DE9F843E7
:10137000344E96F800C0BCF1010F35D007469846B0
:101380004CF2503001230D4614463370FFF7C2FF74
:10139000814620B1002333704846BDE8F8832A49CE
:1013A00070600B6813F4806323D00B68022223F46F
:1013B00080630B603277FFB9234A536943F001031E
:1013C00053612C60BFF36F8F4CF25030C5F804802E
:1013D000FFF7A0FF6FF0010181461B4A53690B40E4
:1013E000536100F033F8D5E74FF002094846BDE8F5
:1013F000F8833377002FDFD07B1E012B05D94CF209
:101400005030FFF787FF8146EBE70F494B6943F404
:10141000802322464B61EFF3108072B6291B04F53E
:101420008074136853500432A242FAD180F31088BA
:10143000022F4CF25030E4D1FFF76CFF6FF48021A3
:101440008146CAE7040000200020024013490B7FB8
:1014500003F0FD02012ADBB20CD1114A106840F4FE
:1014600000601060106820F400601060106840F4A4
:1014700000701060023B012B0CD8094B1A6842F433
:1014800080521A601A6822F480521A601A6842F474
:1014900080621A6000230B77704700BF04000020B1
:1014A000002002402DE9F047424F3B78012B54D0F9
:1014B000824601244CF2503088463C70FFF72AFFE8
:1014C000064620B100233B703046BDE8F0873A4B1A
:1014D00078601A6812F4007F1A6842D1520567D505
:1014E0001A68022122F480621A603977DAF8003033
:1014F000012B43D04FF0FF33C8F80030DAE9025334
:101500002B449D4226D22C4CDFF8B09005E0DAE95E
:10151000023201351344AB421CD96269EB0022F45C
:10152000FF6203F4FF6313436361636943F00203E3
:101530006361636943F4803363614CF25030FFF7B9
:10154000E9FE636903EA090363610028DFD0C8F894
:1015500000500646FFF77AFFB4E702263046BDE8A2
:10156000F08722F400721A601A6851051ED51A68B5
:10157000032122F480621A603977B7E7DAF8043081
:10158000DB0704D50C4A536943F0040353610A4C4A
:10159000636943F4803363614CF25030FFF7BAFE65
:1015A000636923F0040306466361D3E73C779DE754
:1015B00038779BE7040000200020024005F8FFFF79
:1015C0002DE9F04186B0002877D090F869330546C0
:1015D00003F0FF02002B6BD003232E4685F86933FE
:1015E000286800F007FF56F810CB37460FCF6C463F
:1015F0000FC43B6823602F1D97E80E00604600F083
:10160000E7FE044638B101240223204685F86933F9
:1016100006B0BDE8F0810146286800F0F5FE686874
:1016200050B322464FF034084FF0010E214608FB1C
:10163000025302F1010C83F82820DA865FFA8CF25B
:101640008242C3E90E1183F829E083F82B10D96494
:10165000EDD34FF0340C00220CFB0453611C83F8D3
:10166000C841CCB28442C3E9762283F8C92183F809
:10167000CB21C3F8EC21EFD30FCE6C460FC43368F7
:10168000236097E80E00286800F0C0FE044600289A
:10169000B9D1EB6985F824000122934285F86923CA
:1016A00010D0286801F0D8F9204606B0BDE8F081D6
:1016B00080F868230AF0B8FC8EE70124204606B0C3
:1016C000BDE8F081284600F069FEEAE790F868334B
:1016D000012B0ED010B50123044680F86833006852
:1016E00000F07EFE206801F0ABF9002084F868036A
:1016F00010BD0220704700BF2DE9F04F044687B0AF
:10170000006801F0B3F9060400F1DD80206801F003
:10171000ADF9460500F1B980206801F0A7F910F491
:10172000804F206807D0B0F8443023F480431B0476
:101730001B0CA0F8443001F099F910F4005F206808
:1017400007D0B0F8443023F400531B041B0CA0F85E
:10175000443001F08BF9C50449D4206801F086F9C2
:1017600000056AD4206801F081F9010629D52268B4
:10177000B2F8443023F080031B041B0CA2F8443061
:1017800094F8A033002B40F0FA81B2F840309BB2BD
:1017900043F00403A2F84030B2F840309BB243F06B
:1017A00008030121A2F8403084F8A013B2F85430A5
:1017B000C3F38D0303F03C03C4F8A43320460AF0BE
:1017C0008BFD206801F052F9820551D4206801F0A8
:1017D0004DF9C30508D52268B2F8443023F480736C
:1017E0001B041B0CA2F8443007B0BDE8F08F226840
:1017F000B2F8403023F004031B041B0CA2F8403065
:10180000B2F8403023F008031B041B0CA2F8403050
:1018100094F8A033012B00F0CB8220460AF04CFC58
:101820002068B0F8443023F480531B041B0CA0F84C
:10183000443001F01BF9000594D52268B2F840301D
:101840009BB243F00803A2F84030B2F8443023F4CE
:1018500000631B041B0CA2F84430B2F840309BB26A
:1018600043F00403A2F8403020460AF015FC79E763
:101870002268B2F8443023F400731B041B0CA2F856
:10188000443020460AF0F2FBA0E72268B2F8443068
:1018900023F480631B041B0CA2F8443020460AF09A
:1018A000E9FB94F86833012B3FF436AF00250123A0
:1018B000206884F8683384F82450294601F0BAF887
:1018C00084F8685328E72568B5F8443028461D0495
:1018D0007FF51DAFDFF804B8B0F84450A9B215F099
:1018E0000F0564D111F0100100F09080018811F40F
:1018F00000658BB240F02081190406D40346B0F88D
:1019000044201704E8D4184601E7028840F68F7394
:10191000134043F080030380B0F8502094F8C811BE
:1019200040F2064310FA82F203EBC103D35AC3F329
:101930000903C4F8F03193B1D4F8DC1179B1B4F8EB
:10194000CE2101F0BDFBD4F8DC31D4F8F0211344F2
:1019500020462946C4F8DC310AF076FB206802886C
:1019600012050346CBD4B0F85020D4F8D81192B267
:1019700000F20645002940F02B82A95A21F4F841D3
:101980000904090CA952A95A89B241F40041A9528B
:10199000028822F4804222F070021204120C82F4B7
:1019A000405242F4004242F080020280A7E72FB288
:1019B00030F827309EB21B0455D433069ED530F83C
:1019C00027309BB203EA0B0343F4004320F827308F
:1019D000F70500F1EC80342303FB0543D3E9111232
:1019E0000E68126893F82810B0F85070964283BFC2
:1019F000B3F84030B21A9A1A921BBFB2002A40F0D4
:101A0000C28020460AF02AFB206877E70388E26B51
:101A10009BB203EA0B0343F400430380B0F8505039
:101A200094F8286040F2024310FA85F003EBC603F5
:101A3000C35AC3F309031A442365E26320460AF03C
:101A40000DFB94F82430002BDED0E26C002ADBD1B1
:101A500094F82430206843F08003A0F84C3003460B
:101A600084F824204BE730F8272040F68F7313408A
:101A700043F0800320F82730342202FB0542D2E9EC
:101A8000793C16F4804FB0F8508092F8C811D3F822
:101A90000090DCF800E000F0EC8000F2024AF14532
:101AA0001AFA88F898BFB2F8E02138F8318096BF6A
:101AB000AEEB090EA9EB0E02A2EB0E02C8F3090869
:101AC00082B909B230F8212022F4804222F070025B
:101AD0001204120C82F4005242F4004242F08002DE
:101AE00020F82120710612D5342202FB054292F81B
:101AF000C81130F8212022F4E04222F070021204D2
:101B0000120C42F4004242F0C00220F82120B8F149
:101B1000000F00F0EB804FF0340E0EFB054EDEF8A8
:101B2000DC21BEF8E011CDF80880BEF8D0E1CDE9A7
:101B300000CE01F0EDFAD9E0B0F8501094F8C85199
:101B4000B4F8CE2140F2064310FA81F103EBC5034D
:101B5000CB5AC3F30903C4F8F03104F55C7101F00A
:101B6000AFFA2268118840F68F730B4043F0800370
:101B7000138020460AF062FA20680346BFE620463A
:101B80000AF08AFA1DE600F202431F44342202FBE7
:101B9000054C37F83130DCF85060C3F30903614677
:101BA00033442831CCF8503000F0B0FF2CE734211A
:101BB00001FB05414FF0340E4B6C8F6C1A68D7F85F
:101BC00000C00593624588BFB1F840100EFB054E7A
:101BD00086BFA2EB0C028A1AACEB02029EF8281018
:101BE000B0F850C016F040081FFA8CFC0FFA81F9CB
:101BF00000F0A1804FEAC10A00F20248002A40F03A
:101C00003F819EF82930002B00F07C81012B00F0F1
:101C10001E8220460AF022FA700440F1AD8134237E
:101C200003FB0543206893F8282030F8223023F482
:101C3000E04323F070031B041B0C43F4404343F0C8
:101C4000800320F822300346342101FB054595F836
:101C5000281030F8212092B222F4E04222F0400213
:101C600082F0300242F4004242F0800220F821204B
:101C700045E600F2064AF1451AFA88F898BFB2F82C
:101C8000E02138F8318096BFAEEB090EA9EB0E02C9
:101C9000A2EB0E02C8F3090882B909B230F821207C
:101CA00022F4804222F070021204120C82F40052DC
:101CB00042F4004242F0800220F82120720612D441
:101CC000342202FB054292F8C81130F8212022F498
:101CD000E04222F070021204120C42F4004242F080
:101CE000C00220F82120B8F1000F7CD1342303FB7F
:101CF0000543D3E97901D3F8F0214244C3F8F02138
:101D00000A68006890429BBFB3F8E031121A821A49
:101D10009A1A32B1342101FB0543D3F8D8319845E2
:101D20004DD2342303FB0543204693F8C8110AF033
:101D30008BF9206841E6CB0000F2064A002A63D105
:101D40009EF82930002B40F00F81B0F8502000F2AF
:101D5000024313FA82F232F8393023F4F8431B04B9
:101D60001B0C22F8393032F839309BB243F400436F
:101D700022F83930342202FB054292F82930002B38
:101D800040F05681B0F8503092F828101AFA83F3D8
:101D900003EBC103198821F4F8410904090C1980E7
:101DA000198889B241F40041198092F82810DDE0C9
:101DB000002184F8A01320460AF08EFA2DE501FBDD
:101DC0000541206801F5E47100F0A0FE2068F4E50B
:101DD0003E2900F28C804E08CF0748BF0136B6027C
:101DE000B6B2AE52D4E54FF0340E0EFB054EDEF81F
:101DF000DC21BEF8E011CDF80880BEF8D2E1CDE9D3
:101E000000CE01F085F971E79C4471043CF80AC0EA
:101E10000DD430F8291021F4E04121F070010904BB
:101E2000090C41F4404141F0800120F829104FF0A5
:101E3000340E0EFB054ECCF3090CDEF85010DEF824
:101E400038309EF8296061449A42CEF8501028BF7D
:101E50001A46002E00F09380012E00F008811FFA30
:101E600082F8342606FB0546059BF26BB6F8401057
:101E7000CDF80880768ECDE9007600F001FE7BE09B
:101E8000D44471043CF808C00DD530F8291021F471
:101E9000E04121F070010904090C41F4404141F096
:101EA000800120F829104FF0340E0EFB054ECCF3C4
:101EB000090CDEF85060DEF838309EF829106644D0
:101EC0009A42CEF8506028BF1A4600296CD00129EA
:101ED00000F0DA801FFA82FC342606FB0546059BDB
:101EE000F26BB6F84010CDF808C0368EC3E74E0945
:101EF000C906794908BF06F1FF3641EA8626B6B21F
:101F0000AE5245E5B0F8503018FA83F838F8393059
:101F100023F4F8431B041B0C28F8393038F8393007
:101F20009BB243F4004328F83930342202FB0542C7
:101F300092F82930002B6AD1B0F8503092F828106E
:101F400000F2064010FA83F303EBC103198821F471
:101F5000F8410904090C1980198889B241F400413B
:101F6000198092F8281054E6012B77D020460AF009
:101F700075F870047FF553AE2068034664E6B0F848
:101F800050109EF828601AFA81F101EBC6012ABBB5
:101F90000A8822F4F8421204120C0A800A8892B2CB
:101FA00042F400420A805CE7B0F850109EF82860C6
:101FB00018FA81F808EBC608E2B9B8F8001021F465
:101FC000F8410904090CA8F80010B8F8001089B20B
:101FD00041F400419446A8F800107DE73E2A6ED8EF
:101FE0005608D30748BF0136B602B6B20E801FFAB4
:101FF00082F836E73E2A54D85108D30748BF01314A
:10200000890289B2A8F800101FFA82FC64E7012B4C
:102010000BD1B0F8503092F8281000F2064010FAB8
:1020200083F303EBC1030021198092F82810F0E537
:10203000012B09D1B0F8503092F828101AFA83F326
:1020400003EBC1030021198092F828108EE7B0F845
:10205000503018FA83F828F8392066E7B0F8503085
:1020600000F2024111FA83F323F8392082E6B0F836
:1020700050109EF828601AFA81F101EBC6011FFA90
:1020800082F8A1F80080ECE6B0F850109EF82860C5
:1020900018FA81F101EBC6011FFA82FCA1F800C019
:1020A0001AE751090C4BD60608BF01F1FF3143EA8C
:1020B000812189B2A8F800101FFA82FC0CE75609AA
:1020C000D306054B08BF06F1FF3643EA8626B6B2B3
:1020D0000E801FFA82F8C4E60080FFFF0F8FFFFF1B
:1020E00090F86823012A0DD010B50122044680F82B
:1020F000241080F86823006800F09CFC002084F81D
:10210000680310BD02207047F8B501F007053424BC
:102110000906064604FB05001CD4002700F5E471FF
:1021200080F8C97148780D700A61CB7000B1CD811B
:10213000022B04BF00230B7196F86833012B0FD0DC
:102140000123306886F8683300F074F9002086F8BF
:102150006803F8BD012700F1280180F82970E1E744
:102160000220F8BD01F0070311F0800F4FF0340199
:1021700001FB030210B51146044613D102F5E471C8
:10218000002082F8C9010B7094F86833012B12D03B
:102190000123206884F8683300F0D4FA002084F822
:1021A000680310BD2831012082F829000B7094F8D3
:1021B0006833012BECD1022010BD00BF09B1012012
:1021C000704710B5C0E97B310C46C0F8DC21A0F89F
:1021D000C81100F5E471006800F098FC204610BDBD
:1021E00010B501F00701342303FB0102002482F83B
:1021F000C8110068C2F8F04102F5E47100F086FCF5
:10220000204610BD09B10120704770B505460C4647
:102210000146C263012651F8280BEB646B654FF44D
:1022200080732C6585F858602B8500F06FFC204684
:1022300070BD00BF38B501F00703342101FB030175
:10224000D1E9114212682468944283BFB1F840106A
:10225000A21A8A1A121B92B272B1342101FB030234
:10226000114601250024006882F82830283182F8C0
:102270005850146500F04AFC002038BD38B543685A
:1022800001F007059D422CD80B06044618D43423D0
:1022900003FB010202F5E471002382F8C931012336
:1022A0000D708B7094F868239A4218D0206884F8D7
:1022B000683300F03FFBB5B1002084F8680338BDF7
:1022C000342101FB050319460122283183F8292016
:1022D00001230D708B7094F868239A42E6D1022096
:1022E00038BD012038BD206804F55C7100F0C6FBE4
:1022F000E2E700BF38B5436801F00F029A422DD8DB
:1023000001F0070311F0800F4FF0340101FB0302CD
:102310000446114615D102F5E4710020002582F82B
:10232000C9010B708D7094F86833012B14D0012310
:10233000206884F8683300F025FB84F86853284649
:1023400038BD28310120002582F829000B708D70DE
:1023500094F86833012BEAD1022038BD012038BD42
:1023600010B40C060CD501F00704342101FB040164
:10237000283162B90A7300205DF8044BCB807047A6
:10238000342404FB010101F5E471002AF2D001229A
:102390000A7300205DF8044B8B60704702680021CF
:1023A00010B480F8A013B2F8543001249BB2234338
:1023B000C0F8A843A2F85430B2F854305DF8044B8A
:1023C0009BB243F002030846A2F85430704700BFA6
:1023D00084B001A880E80E0004B00020704700BF60
:1023E00003464BF680720020A3F84400A3F8402077
:1023F000704700BFB0F8402044F27F031340A0F8BC
:1024000040300020704700BF0020704784B030B4D7
:1024100004460125A4F84050002003ADA4F8400074
:1024200085E80E00A4F84400A4F8500030BC04B0C5
:10243000704700BFF0B40D78CA7830F8253023F427
:10244000EC4323F070031B041B0C032A00F273817E
:10245000DFE802F04A46040243F4C063002248F277
:102460008004234320F825300F78B44D3EB230F875
:1024700026309BB22B403B43234320F826300B7B76
:10248000002B34D14B78002B00F0E5800B78B0F8AE
:102490005060CC8800EBC30303F58063B6B26408D8
:1024A00064009C530C7830F824305F0600EB8406FF
:1024B00000F12881CB78012B338823F4E04323F00B
:1024C00040034FEA03434FEA134318BF83F020034E
:1024D00043F4004343F0800333801046F0BC704760
:1024E00043F480630022BAE743F40073B7E70C7843
:1024F00030F824309BB22B4043F4014343F0800377
:1025000020F824300C78B0F850700E89082313FBA3
:10251000040404F58064BFB276087600E6530F78B1
:102520004C89B0F8506013FB070303F204436408BE
:10253000B6B264009C534B78002B41D10C7830F834
:1025400024305F0400EB84060CD530F824309BB2B5
:102550001D4045F4404545F0800520F824500E7894
:1025600000EB860633885B060ED5338823F4E04300
:1025700023F070031B041B0C43F4004343F0C0031F
:1025800033800E7800EB8606338823F4804323F0F3
:1025900070031B041B0C48F2800483F44053234354
:1025A0003380097830F8213023F4E04323F04003EE
:1025B0001B041B0C234320F82130F0BC104670474D
:1025C0000E7830F826305F0400EB86040CD530F826
:1025D00026309BB21D4045F4404545F0800520F86B
:1025E00026500C7800EB840423885B060ED52388E4
:1025F00023F4E04323F070031B041B0C43F400435B
:1026000043F0C00323800C7800EB8404CB78012BCB
:10261000238823F4E04323F040034FEA03434FEAC7
:10262000134318BF83F0200343F4004343F08003B7
:102630002380097830F8213023F4804323F070039D
:102640001B041B0C43F4004343F0800320F82130AB
:10265000F0BC104670470C78B0F85070CD880E6909
:10266000082313FB040404F204446D08BFB26D0098
:10267000E5530D78B0F8504013FB050303F2064311
:10268000A4B28EB33E2E4BD87508F60748BF01356D
:10269000AD02ADB21D530D7830F825305B0400EB70
:1026A000850410D530F8253023F4E04323F070037F
:1026B0001B041B0C43F4404343F0800320F82530F7
:1026C0000C7800EB8404238823F4804323F0700308
:1026D0001B041B0C83F4405343F4004343F080037A
:1026E00023801046F0BC70471D5B25F4F8452D048F
:1026F0002D0C1D531D5B6FEA45456FEA5545ADB284
:102700001D53C8E730F824309BB21D4045F4004506
:1027100045F0C00520F824500E7800EB8606C9E687
:102720007709F506064D08BF07F1FF3745EA87250B
:10273000ADB21D53AFE7012291E600BF8F8FFFFFBF
:102740000080FFFF10B40B7BDBB94B780C78002BBB
:1027500000F0C18030F824305B0600EB840200F109
:10276000D780138823F4E04323F040031B041B0CA1
:1027700043F4004343F0800300205DF8044B1380D2
:1027800070474B780C78002B52D130F824305B0422
:1027900000EB840210D530F8243023F4E04323F01A
:1027A00070031B041B0C43F4404343F0800320F8E8
:1027B00024300A7800EB820213885C060ED5138859
:1027C00023F4E04323F070031B041B0C43F4004389
:1027D00043F0C00313800A7800EB8202138823F4CD
:1027E000E04323F070031B041B0C43F4004343F04D
:1027F000C00313800C7830F8243023F4804323F096
:1028000070031B0448F280021B0C134320F8243091
:1028100009785DF8044B30F8213023F4E04323F0CD
:1028200040031B041B0C134320F821300020704789
:1028300030F824305B0400EB840210D530F82430EB
:1028400023F4E04323F070031B041B0C43F44043C8
:1028500043F0800320F824300A7800EB82021388CA
:102860005B060ED5138823F4E04323F070031B04AA
:102870001B0C43F4004343F0C00313800A7800EBC1
:102880008202138823F4E04323F070031B041B0C23
:1028900043F4404343F0800313800C7830F8243035
:1028A00023F4E04323F040031B0448F280021B0C96
:1028B000134320F8243009785DF8044B30F82130B8
:1028C00023F4804323F070031B041B0C134320F8F4
:1028D00021300020704730F824305B0400EB840284
:1028E00010D530F8243023F4E04323F070031B04A8
:1028F0001B0C43F4404343F0800320F824300A7853
:1029000000EB8202138823F4804323F070032DE749
:1029100030F8243023F4E04323F070031B041B0C35
:1029200043F4004343F0C00320F824300A7800EB5E
:10293000820216E74B780A788BB130F8223023F404
:10294000E04323F040031B041B0C83F0100343F40B
:10295000004343F0800320F822300020704730F815
:10296000223023F4804323F070031B041B0C83F4F8
:10297000805343F4004343F0800320F822300020CA
:10298000704700BF0B7B43BB4B7843B30A7830F8EA
:1029900022305B060DD530F8223023F4E04323F0DB
:1029A00070031B041B0C43F4004343F0C00320F8E6
:1029B0002230CB78012B10D00A7830F8223023F463
:1029C000E04323F040031B041B0C83F0200343F47B
:1029D000004343F0800320F822300020704710B4F9
:1029E0000C7830F824305B0400EB840210D530F80A
:1029F000243023F4E04323F070031B041B0C43F446
:102A0000404343F0800320F824300A7800EB820230
:102A100013885DF8044B23F4804323F070031B04F8
:102A20001B0C83F4405343F4004343F08003002025
:102A30001380704711B98023A0F84C3000207047F4
:102A400002460020B2F858306FEA43436FEA53431E
:102A50009BB2A2F85830704703460020B3F85820C4
:102A6000C2F30E02A3F85820704700BF024BB3F820
:102A7000440080B2704700BF0068004000207047EB
:102A8000F0B5BDF81860BDF81C5069B31C685CB3A4
:102A9000059FD7F800C0BCF1000F25D0013506F521
:102AA00080666D0806442FD064452DD0571806EB7C
:102AB000450006E0BC4228BF1446864224D0A44507
:102AC00022D0214611F8015BB94228BF11468C453E
:102AD00091F800E045EA0E2526F8025B01F10104B9
:102AE000E8D1C3F800C0F0BD013506F580666D0879
:102AF0000644F8D01346F61A02EB4502198899539A
:102B000002339342FAD1F0BD1C60F0BDF0B54D78B0
:102B1000012D87B00C4600F0938009780BB200EBD2
:102B2000810230F8233003F44053B3F5405F2ED0D8
:102B3000237B7BBB626A2569AA4284BF531B2A465A
:102B4000B0F85050636200F2064313FA85F303EBCA
:102B5000C101002A00F0C8803E2A00F2D680530846
:102B6000D20748BF01339B029BB20B80227800EB57
:102B70008202138823F4804323F070031B041B0C90
:102B800083F4405343F4004343F080031380002058
:102B900007B0F0BDE378022BEBD1002D34D1B0F8B3
:102BA0005020236900F2024515FA82F2082515FB30
:102BB0000121002B40F034810A8822F4F8421204EB
:102BC000120C0A800A886FEA42426FEA524292B2BD
:102BD0000A806278002A40F0A081B0F85030227854
:102BE00000F2064111FA83F315FB02331A8822F42E
:102BF000F8421204120C1A801A8892B242F400426F
:102C00001A80227800EB8202A36A002BB1D01188CF
:102C100044F2400303EA01058B4301D0002DA8D103
:102C2000138823F4E04323F070031B041B0C43F4CC
:102C3000004343F0C0031380227800EB820298E740
:102C40000E780FFA86FC00EB860530F82C3003F086
:102C50003003302B9BD0D1E9073719683A6891428D
:102C600086BFB4F818E08A1A521A217B88BFAEEBEF
:102C70000202D4F810E019BB676AE38865697745FA
:102C800028BF7746BAB2013200F580615208BFB260
:102C9000194409D02B46C91A05EB42051A885A5225
:102CA00002339D42FAD12678B0F8503000F2024249
:102CB00012FA83F323F83670257800EB850502E0DD
:102CC000E17802292FD02B8823F4E04323F040033E
:102CD0001B041B0C83F0300343F4004343F08003D8
:102CE00000202B8007B0F0BD0B8823F4F8431B04B1
:102CF0001B0C0B800B886FEA43436FEA53439BB274
:102D00000B80227800EB820233E75509D706AE4BE1
:102D100008BF05F1FF3543EA85239BB20B8022787B
:102D200000EB820225E7724528BF724672451146C4
:102D300040F2048130F82C2022F4E04222F07002AC
:102D40001204120C42F4014242F0800220F82C20BE
:102D5000267832B230F8222012F04005627879D01D
:102D6000002A40F00E81B0F8502000F2064515FA16
:102D700082F202EBC606002940F01B81328822F461
:102D8000F8421204120C328032886FEA42426FEA33
:102D9000524295B235800A4661890292CDE90071AE
:102DA0006269218B0590FFF76BFED4E907352A682D
:102DB00019680598914282BF268B8A1AB21A266931
:102DC00098BF521A6178B24228BF3246002940F0BB
:102DD000E080B0F85010267800F2024717FA81F12F
:102DE00001EBC601002A40F0FD800E8826F4F8466B
:102DF0003604360C0E800E886FEA46466FEA564659
:102E0000B6B20E8021890292CDE900516269218B10
:102E10000590FFF735FE2578059800EB850552E70C
:102E20003E2B6DD85A08DE0748BF0132920295B298
:102E30000D806278002A70D1B0F85030227800F20C
:102E4000064111FA83F303EBC2031D80227800EBE5
:102E50008202D9E6002A40F09880B0F8502000F2B3
:102E6000024C1CFA82F202EBC606002940F0AE804A
:102E7000328822F4F8421204120C328032886FEA4F
:102E800042426FEA524292B232802A46218902922D
:102E9000CDE900716269218B0590FFF7F1FDD4E95E
:102EA0000736326819680598914286BF278B8A1ABF
:102EB000521A216988BFBA1A6778914228BF114611
:102EC000002F5AD1B0F85020277892B202F2064271
:102ED00002EBC702871800295FD1815A21F4F8411B
:102EE0000904090C8152815A6FEA41416FEA51414C
:102EF00089B2815262890295CDE90062626986E7F2
:102F00005A09DD06304D08BF02F1FF3245EA82253D
:102F1000ADB20D806278002A8ED0012A0AD1B0F8B5
:102F20005020217800F2064515FA82F202EBC10228
:102F30009BB21380227800EB820265E630F82C50B9
:102F4000626925F4E24525F070052D042D0C45F449
:102F5000004545F0800520F82C50B0F850502678F8
:102F600000F2024C1CFA85F505EBC60589B22980F2
:102F700025890291CDE9007549E7012F49D08DB22D
:102F8000B8E7012A50D08AB206E7012A57D08AB2A0
:102F90007CE7012931D092B234E73E2900F28280E9
:102FA0004A08CD0748BF0132920292B23A808DB2F0
:102FB000A0E73E294ED84A08CD0748BF0132920209
:102FC00092B232808AB2E7E60080FFFF3E294DD8F8
:102FD0004A0811F0010F18BF0132920292B23280FA
:102FE0008AB253E73E2A51D85608D70748BF013660
:102FF000B602B6B20E8092B204E7B0F8501026784E
:1030000000F2024717FA81F101EBC60192B20A8081
:10301000F8E6B0F85020257892B202F2064202EBB0
:10302000C5028DB2855265E7B0F8502000F2064522
:1030300015FA82F202EBC6068AB23280ACE6B0F82C
:10304000502000F2024C1CFA82F202EBC6068AB251
:1030500032801BE74A09CD06184D08BF02F1FF3246
:1030600045EA8225ADB28AB2358095E64A09DFF895
:103070004CC011F01F0F08BF02F1FF324CEA822C46
:103080001FFA8CFC8AB2A6F800C0FFE65709D606E4
:103090000A4E08BF07F1FF3746EA8726B6B292B25A
:1030A0000E80AFE64D09CA06044A08BF05F1FF3598
:1030B00042EA852292B28DB23A801BE70080FFFF80
:1030C00002F580625FEA530C10441BD0F0B46FF03D
:1030D00001077F1A07448A1C6546BC5AA4B2260A17
:1030E000013D02F8024C02F8016C02F10202F4D137
:1030F00000EB4C0201EB4C01D80744BF13880B7066
:10310000F0BC7047DB0744BF03880B70704700BFFB
:103110002DE9F041BDF81C60BDF820C071B31C68FA
:1031200064B3069C24684CB306F580665FEA5C07CE
:10313000064446D002EB010E11E0864502D89542C6
:1031400051D01046044604F8018B1D68A54243D0B7
:10315000A64502D8954246D01446013F31D036F8F4
:10316000025B2046ADB200F8015B4FEA15281D68EE
:103170008542E2D1069B1C60BDE8F08106F58066C1
:1031800006445FEA5C07334614D06FF00105AD1AC0
:103190003544931C3846E95A89B20C0A013803F8C1
:1031A000021C03F8014C03F10203F4D106EB4703C0
:1031B00002EB47021CF0010FDED01B881370BDE844
:1031C000F0811CF0010FD5D0338804F8013B114485
:1031D0008C4228BF1446CDE74378013B4370069BE1
:1031E0001D60BDE8F081069B01390A441A60BDE804
:1031F000F08100BF08B509F0ABFD00B9FEE708BDDE
:1032000009F044BEFFF7F6BF09F040BE09F0A0BDCB
:1032100009F03CBE80B400AF1EF0040F0CBFEFF30A
:103220000880EFF309808169004A10473D320008A9
:1032300000BFBD465DF8047B704700BF80B48BB013
:1032400000AF78607B681B687B627B685B683B6271
:103250007B689B68FB617B68DB68BB617B681B6983
:103260007B617B685B693B617B689B69FB607B681A
:10327000DB69BB60FEE700BF052828DC2DE9704351
:1032800000EB4000DFF84C9084B00501984609EB54
:10329000001405F10C0309EB03000C9B23620E469E
:1032A000383511460C2203914D444DF07AF80B9BB2
:1032B000009303990A9B0195424630460AF044FC6C
:1032C000013818BF4FF0FF3004B0BDE870834FF0F5
:1032D000FF307047A46002202DE970472DED028B6E
:1032E0008BB0804608F064FA07EE900AF8EE677A31
:1032F000824617EE900AFDF739F923A3D3E900239C
:10330000FDF78CF9FDF782FCB8F1000F37DD08EE10
:10331000100ADFF87C90002402E0B045344625D046
:10332000661C06EB460509EB0515A8680028F4D0D5
:103330000023012201A90AF0E5FF04EB4404BDF8D3
:103340002430059A09EB04149B00E361A261BAF1F1
:10335000000FE2D0DDED077AF8EE677AB045C7EEF0
:10336000887A344617EE903A6B60D9D109F0CCFDDB
:10337000C9F800000BB0BDEC028BBDE87087DFF828
:103380001090F3E7AFF300807B14AE47E17A843FFF
:10339000A4600220194B002283F8282083F82920FA
:1033A00083F82A2083F82B2083F8582083F85920AB
:1033B00083F85A2083F85B2083F8882083F88920DB
:1033C00083F88A2083F88B2083F8B82083F8B9200B
:1033D00083F8BA2083F8BB2083F8E82083F8E9203B
:1033E00083F8EA2083F8EB2083F8182183F8192169
:1033F00083F81A2183F81B21704700BFA4600220C4
:1034000038B5094D002401E0062C0BD0013404EB43
:10341000440305EB031398680028F5D00AF066FF13
:10342000062CF3D138BD00BFA4600220704700BF56
:10343000FEE700BFFEE700BF9A4238BF88547047DE
:10344000704700BF2DE9F84F9A460D9BDDF82880A4
:1034500017469A0705468B4611D1DDE90B32934298
:103460000DD213460B9A9E1A3E443C4622465346C2
:10347000013459462020A847B442F7D100E03E4627
:103480000B9B73B108EB030406EB0409A9EB0402E0
:1034900014F8010D53465946A8474445F6D10B9BF5
:1034A0001E440D9B9B0719D50C9BF41BA34215D9F9
:1034B0009846E2195346594601342020A84744450E
:1034C000F7D30C9B0C9A013B3B44C7F101079B1BB4
:1034D0003744974288BF002301361E443046BDE87A
:1034E000F88F00BF2DE9F04F0F9F9DF82C900E9E96
:1034F000BD07DDE909E4DDE90C8C2AD4002E69D191
:10350000644507F0010A80F0C5801F2C88BF202485
:1035100000F2C080651E75444FF0300B01E0202C96
:1035200004D00134A44505F801BFF8D8BAF1000F62
:103530000FD0B4420DD21F2C5DD8651E75444FF0DC
:10354000300A01E0202C56D00134B44205F801AF16
:10355000F8D1FD0630D57D0557D4002C51D1B8F1F6
:10356000100F7CD0B8F1020F00F08F8030248EF85D
:1035700000400124B9F1000F23D02D250EF804508E
:103580000134CDE90B67CDE909E4BDE8F04FFFF761
:1035900059BFBD066AD4202CF3D00EEB040C0134C5
:1035A00078258CF80050202CEBD00EEB04054FF062
:1035B000300C85F800C00134202CE2D0B9F1000FA6
:1035C000DBD17D0733D43D07DBD520250EF8045031
:1035D0000134D6E717F0010A23D0B9F1000F32D138
:1035E00017F00C0F2FD16445A3D21F2C92D9202E97
:1035F00001D82024ADE7FD064FF02004C1D57D059C
:1036000003D4A44521D0A6421FD0B8F1100FC0D0DA
:10361000B8F1020FC7D1202CB3D00EEB0405013452
:1036200047E0644595D21F2C7FF674AFE1E72B2568
:103630000EF804500134CDE90B67CDE909E4BDE88B
:10364000F04FFFF7FFBE013ECDE7651E87D0B8F112
:10365000100F24D0B8F1020F2AD02C46A5E7BC06E3
:103660000ED478248EF8004001249EE7202C88D0C8
:103670000EEB04054FF0580C85F800C0013492E7BA
:1036800058248EF8004001248FE762248EF8004011
:1036900001248AE7BAF1000F08BF002659E717F0A6
:1036A000200FA4F10204E3D10EEB040C2C4677E7C3
:1036B00075444FF0620C85F800C074E72DE9F04FB7
:1036C00093B01C9D9DF874401E9EDDF884A0099463
:1036D0002DB92AF010041AF4806FA24634D11AF0E2
:1036E000200F0DF1280B14BF4FF037094FF0570989
:1036F000D846002702E0202F15D07546B5FBF6FE10
:1037000006FB1E5C5FFA8CF4BCF1090F04F1300C6F
:103710008ABF4C445FFA8CF4E4B2B54208F8014B1E
:1037200007F10107E7D2209C05941F9CCDF818A053
:10373000CDE90364099CCDF800B0CDE90174FFF731
:10374000D1FE13B0BDE8F08F2F460DF1280BEAE74C
:103750002DE9F04F2DED048B93B0DDE920459B461C
:103760009DF88830089354EA0503DDE9248908EEC2
:10377000100A08EE901A09EE102A06D1289B289A02
:1037800023F010032893530540D4289B13F0200FF7
:103790000AAB099314BF4FF0370A4FF0570A1F4680
:1037A000002603E0202E17D004460D4642464B4625
:1037B00020462946FDF7D8FBD2B2092A02F1300390
:1037C0008ABF5244DAB2D2B24D4508BF444507F829
:1037D000012B06F10106E5D2289B0693279B059352
:1037E000269BCDE90383089BCDE90163099B0093E8
:1037F00019EE102A18EE901A18EE100A5B46FFF721
:1038000071FE13B0BDEC048BBDE8F08F0AAB00264F
:103810000993E1E7000000002DE9F04F2DED048B46
:1038200095B0DDE922AB1C461546804689465046D8
:10383000594652465B46CDE90754FDF757F9249C9B
:10384000002800F0F6804FF0FF326FF480135046EE
:103850005946FDF755F9002840F01F81BE4B4FF047
:10386000FF3250465946FDF769F9002840F0C680FE
:10387000B5A3D3E9002350465946FDF75FF9002868
:1038800040F0F980B2A3D3E9002350465946FDF732
:1038900037F9002840F0EF800022002350465946B7
:1038A000FDF72EF9002840F0D7800990269B13F4ED
:1038B000806F08BF0624A4F1200126460CAB3022FD
:1038C00005E0013E8E4203F8012B00F03B81092EFA
:1038D000A4EB0605F5D859465046FDF74FF99F4B26
:1038E00003EBC60393ED008B0446FCF72DFE024666
:1038F0000B4650465946FCF7D9FC53EC182BFCF705
:103900008DFE02460B4643EC192BFDF75FF9074687
:10391000FCF70AFE02460B4651EC190BFCF7C6FCFD
:103920008F4B0022CDE90A01FDF708F9002800F0CD
:10393000FC8001373846FCF7F7FD02460B4651EC98
:10394000180BFDF7E7F808B101340027002E40F00E
:10395000A9802046FCF7F8FD02460B465046594622
:10396000FCF7A4FC7E4B002206460F46FDF7C8F884
:1039700000287CD07A4B304639460022FDF7DEF82D
:10398000002874D16A1E0CAB76491A4481FB0430BE
:10399000E317C3EBA00303EB8300A4EB4004202D4B
:1039A00004F1300400F0998002F8014F01351C4603
:1039B000002BEBD1269B03F00303012B00F01881B1
:1039C000202D09D0099B002B00F0D88014AB2B448C
:1039D0002D2203F8202C0135269B0393259BCDE94E
:1039E00001530CAB00934946DDE907234046FFF73E
:1039F00029FD15B0BDEC048BBDE8F08F269B5A4C19
:103A0000269A039203F00403002B584B0EBF0325A4
:103A10001C460425259B0293CDE90045DDE90723DB
:103A200049464046FFF70EFD15B0BDEC048BBDE8DE
:103A3000F08F269B4E4C03930325259B0293CDE9E3
:103A40000045DDE9072349464046FFF7FBFC15B07A
:103A5000BDEC048BBDE8F08F5B4652460020002190
:103A6000FCF724FC0123099382468B461EE7E107FD
:103A700088D5013486E7269B0493259BCDE900ABCE
:103A8000CDE902434946DDE90723404600F0B8F896
:103A900015B0BDEC048BBDE8F08F269B354C03932D
:103AA0000425CAE7691E0CAB3348194406E0092F08
:103AB00001F8013F70D9764617466546A0FB0732EC
:103AC000D20802EB8203A7EB4303202D03F130035E
:103AD00006F1FF3E05F1010CE9D1269B03F003033B
:103AE000012B7FF479AF259B002B3FF475AF099B29
:103AF0001BB9269B13F00C0F02D0259B013B25938D
:103B0000259BAB427FF65CAF202D0CD00CAA6B1E20
:103B100025991344302201358D4203F8012F3FF4DB
:103B20004FAF202DF7D1202556E7DDE90A010C4BD8
:103B30000022FCF7E5FF00287FF408AF002F4CD1EE
:103B4000013703E72025C6E60000000065CDCD4122
:103B50000000000065CDCDC1FFFFEF7FA864050820
:103B60000000E03F67666666906405089464050897
:103B70009C640508A0640508CDCCCCCC269B5A07D4
:103B800024D4269B1B077FF527AF14AB2B442022A0
:103B900003F8202C01351FE7BCF1200F21D0BEF126
:103BA000000F2AD00CAB5A19302165460135EB4382
:103BB000202D02F8011F63448FD0F342F6D114ABDD
:103BC0002B442E22013503F8202CDBE614AB2B44CA
:103BD0002B2203F8202C0135FEE6F8077FF5B6AE60
:103BE000AEE7269B03F00303012B65467FF4F4AE9A
:103BF000259B002B3FF4E4AE79E76546DFE700BF85
:103C00002DE9F04F2DED048B91B0DDE91E891646AC
:103C100083460C461D4640464B46494642460B9657
:103C2000FCF764FF209B0793219B0A93229B06933A
:103C3000002800F0AB818C4B4FF0FF3240464946E4
:103C4000FCF77CFF002840F0A1814FF0FF326FF4B9
:103C5000801340464946FCF753FF002840F0968108
:103C60000022002340464946FCF74AFF002840F066
:103C7000AC81CDE90889DDF824A0069BCAF30A507F
:103C800013F480630F93A0F2FF30079B08BF062355
:103C90000793FCF759FC64A3D3E90023FCF7BEFCAF
:103CA00063A3D3E90023FCF703FBCAF31302089BC9
:103CB0000F4642F07F5106460022184641F440115B
:103CC0006A4BFCF7F3FA5CA3D3E90023FCF7A6FCEC
:103CD00002460B4630463946FCF7EAFAFCF74EFF3F
:103CE0000E90FCF731FC56A3D3E9002306460F469D
:103CF000FCF794FC5E4B0022FCF7DAFAFCF73EFF7F
:103D000051A3D3E90023824639463046FCF786FCAE
:103D1000064650460F46FCF717FC4DA3D3E9002397
:103D2000FCF77CFC02460B4630463946FCF7BEFAEF
:103D300002460B4606460F46FCF770FC324641EC45
:103D4000190B3B4630463946FCF7B2FA494B41EC79
:103D5000180B002251EC190BFCF78AFD464B002290
:103D6000FCF7A6FA02460B4651EC190BFCF780FD56
:103D7000424B0022FCF79CFA02460B4651EC190B11
:103D8000FCF776FD32463B4606460F4600204FF0D4
:103D90008041FCF78BFA02460B4630463946FCF769
:103DA00087FA02460B4651EC180BFCF761FD0AF24C
:103DB000FF3A334B0022FCF77BFA00224FEA0A530A
:103DC000FCF72CFC06460F463246DDE908013B466F
:103DD000FCF796FE002840F0EC80CDE90C670E9FC2
:103DE0003B466333C72B069B34BF042605261B05C1
:103DF00048D519A3D3E90023DDE90801FCF794FEB7
:103E000048B117A3D3E90023DDE90801FCF778FEE8
:103E1000002840F0E080079BA3B30F9A002A40F0EF
:103E2000EB802FE0AFF30080FB799F501344D33F2A
:103E3000B3C8608B288AC63F61436F63A787D23FB0
:103E400071A379094F930A401655B5BBB16B024077
:103E5000EF39FAFE422EE63F2D431CEBE2361A3FC5
:103E60000000000080842E41FFFFEF7F0000F83F3C
:103E70000000E03F00002C400000244000001840FB
:103E80000000F03F0A9BB34288BF9F1B069B98BF70
:103E9000002713F0020A02D0002E18BF00270E9B45
:103EA0003BB1DDE90801DDE90C23FCF7E1FCCDE9DC
:103EB00008014046494600220023FCF721FE30B1AC
:103EC000DDE90801024601F10043CDE908239DED3B
:103ED000087B069BDDF82C80079A039723F4006388
:103EE000029204938DED007B2B46424621465846B4
:103EF000FFF792FC0746002E42D0069B13F0200FDE
:103F000014BF452065203A462B462146D8470E9AD5
:103F1000002A4FEAD273B8BF524206F1FF3C9646E0
:103F2000013700200A210526CDE90210CDE900E382
:103F30003A46CDE904C62B4621465846FFF7BEFB5C
:103F40000746BAF1000F1BD00A9A4346C61AB2427E
:103F500016D9914608EB06022B4621460136202051
:103F6000D847B145F6D80B9B0A995A1E0A44C3F1AB
:103F70000103D21B3B44994238BF0022013717444A
:103F8000384611B0BDEC048BBDE8F08F069B229340
:103F90000A9B21930B9A079B209321462B46584658
:103FA000CDE91E8911B0BDEC048BBDE8F04FFFF7E1
:103FB00033BC134B304639460022FCF759FC0E9BAC
:103FC000013BCDE90C010E9309E709F10043CDF85F
:103FD000208009934FE6079A9742B8BFD01B3B4613
:103FE000B4BF00F1FF3300230793069B002643F480
:103FF000806306930E9645E7013B079342E700BFB7
:10400000000024402DE9F04FCA4E91B01C461B78A9
:104010001A9DB1F1000A914614BF8346B346002BA6
:1040200000F0A8824FF0000818460AE042464B46CE
:10403000514608F101080134D8472078002800F0E3
:1040400025812528F2D1631C00211C4613F8010BA1
:10405000A0F12002102A0AD8DFE802F03B09093853
:104060000909090909090935093209092F00A0F1CF
:104070003003092B40F2EB802A2800F0158100263E
:104080002E2800F0F4800027A0F16803122B2AD814
:10409000DFE813F0520129004A012900220029001B
:1040A000290029002900290029002900D800290019
:1040B0002900290029002900D80041F00101C4E7A6
:1040C00041F00201C1E741F00401BEE741F01001F7
:1040D000BBE741F00801B8E760786C2800F0458242
:1040E00041F480710134A0F12503532B9ED801A225
:1040F00052F823F0774300082D4000082D400008B7
:104100002D4000082D4000082D4000082D400008DB
:104110002D4000082D4000082D4000082D400008CB
:104120002D4000082D4000082D4000082D400008BB
:104130002D4000082D4000082D4000082D400008AB
:104140002D4000082D4000082D4000082D4000089B
:104150002D4000082D4000082D4000082D4000088B
:104160002D4000082D4000082D4000082D4000087B
:104170002D400008AD44000849430008AD44000844
:104180002D4000082D4000082D4000082D4000085B
:104190002D4000082D4000082D4000082D4000084B
:1041A0002D4000082D4000082D4000082D4000083B
:1041B0002D4000082D4000082D4000082D4000082B
:1041C000BD4200082D4000082D4000082D40000889
:1041D0002D4000082D4000082D4000082D4000080B
:1041E0002D4000082D400008BD4200084B44000847
:1041F000BD420008AD44000849430008AD44000832
:104200002D400008BD4200082D4000082D40000848
:104210002D4000082D4000082D400008BD42000838
:104220001F4400082D4000082D4000088B43000863
:104230002D400008BD4200082D4000082D40000818
:10424000BD420008607841F4807101344BE70026DC
:1042500006EB860600EB460614F8010FA0F13003CA
:10426000092BA6F13006F3D92E287FF40CAF607825
:10427000A0F13002092A41F4806104F1010340F207
:10428000FF802A2800F00B811C46FCE64446C1450D
:1042900001D809F1FF384B46424651460020D84725
:1042A000204611B0BDE8F08F55F8046B6078002E01
:1042B000BCBF41F0020176420134E1E6782800F00B
:1042C0001B81582800F059816F2800F0DD81622899
:1042D00000F01A81692821F010034FF00A0C40F019
:1042E00016814A0540F11A8123F00103692800F084
:1042F0001581642800F0128113F4007240F0B4813B
:10430000D80500F1D481590655F8042B00F1A58198
:10431000180648BF92B200210092CDE90463CDE9AE
:1043200002C74246019114E1607841F40071013402
:10433000D9E600BF413400086078682800F0108199
:1043400041F080010134CEE6462808BF41F020014B
:10435000CDE903610735029725F00705F5E802016D
:104360004246CDE900014B4651465846FFF754FA04
:104370000134804661E608F1010642464B4651464B
:1043800025200134B046D84757E62A4652F8043B68
:104390000B930F92002F40F0A88018786FF0010562
:1043A000002800F095816B1C1A460C930B9B9D18FE
:1043B00001E09D4206D013F8012F002AF9D10B9A93
:1043C0009B1A0C9311F480630D9304D00C9BBB4299
:1043D00028BF3B460C9311F002030E9300F0E980D6
:1043E000002800F0D4800B9D0B9642460D9E00E005
:1043F00042464B4651461EB107F1FF3C3FB167466E
:10440000D84715F8010F08F101080028F0D10E9BDC
:104410000B9E002B40F0BB800F9D01340DE608225F
:10442000CDE9037200231022CDE9013241F02101D0
:10443000059155F8043B009342464B465146584679
:10444000FFF73CF901348046F7E5890740F1CB805E
:1044500055F8040B4B464246C0B25146D847012E90
:1044600008F1010788BF464407D93A464B46013751
:1044700051462020D847B742F7D1B8460134DCE591
:10448000002707EB870700EB470713F8010FA0F1A0
:104490003002092AA7F13007F3D91C46F4E555F894
:1044A000047BA07827EAE7770234EDE500F0DF032C
:1044B000472B04BF00F0FD0041F40061452808BF10
:1044C00041F02001CDE903610735029725F007058A
:1044D000F5E802014246CDE900014B4651465846F7
:1044E000FFF78EFB01348046A7E50B9B1878002868
:1044F00000F0EC807D1E56E74FF0100C4A0521F0CD
:104500000C037FF5F3AEEFE64FF0020C0B46642888
:1045100018BF1946F2D159053FF5E6AE99057AD490
:10452000DA0500F1B580580655F8042B00F19280A9
:10453000190640F1C68012B282EAE271A1EBE27183
:1045400089B2CDE90463CDE902C7D20F019200918F
:1045500042464B4651465846FFF7B0F880468DE735
:10456000A07841F0C0010234BDE5A07841F440716B
:104570000234B8E51C46984689E621F00C034A054A
:1045800043F020034FF0100C3FF5AEAEB4E60C9BA9
:104590009E4245467FF640AF06EB0800A0EB0308BD
:1045A0002A464B46013551462020D8474545F7D18C
:1045B00032E70C9A964202F1010340F28D8006EB3D
:1045C0000805AD1A42464B4608F101085146202025
:1045D000D847A845F6D1731C0C930B9B187800287C
:1045E0007FF401AF18E7012E74D908F1FF331E44A0
:1045F00042464B4608F1010851462020D847B045B5
:10460000F6D155F8040B4B463246C0B2514606F17E
:104610000108D84732E7073525F007056A6855F8DD
:1046200008EB08937046114600230028CDE904C327
:104630004FEAD27271F10003CDE9067602920EDBE9
:10464000CDE9000142464B4651465846FFF780F8F7
:10465000804613E7D2B2114673E7D2B25BE6DEF1D1
:10466000000061EB4101EBE70022CDE904C2CDE996
:1046700007630735029225F007050697F5E8020162
:104680004246CDE90001DEE74FF0080C0B463EE75D
:1046900055F8041B059300294FEAD173B8BF49426E
:1046A000CDE90376CDE9013C4246009151E7CDE9E1
:1046B0000463CDE902C7019255F8043B00934246DA
:1046C00047E782EAE271A1EBE2713AE70C9079E602
:1046D0000C9777E6464694E70C9300287FF483AE68
:1046E0009AE600BF0CB410B584B006AC0A4654F884
:1046F000043B0094014604480394FFF783FC04B094
:10470000BDE8104002B0704739340008B5280FD01A
:1047100008D80A280CD024280AD00A4602F8010B2F
:1047200010467047D32803D0A0F1FD03022BF4D824
:10473000054B1B680A46002BF0D0C343FD2002F84E
:10474000020B4B70104670472400002070B50446E1
:104750000D4616460846002149F032FC002301218F
:10476000AA19A6606260256065612561E560A563A0
:10477000E56421766176A176E17623776377A37786
:10478000E37784F8203084F8213084F8223084F8EC
:10479000233084F8243084F8253084F8263084F8D7
:1047A0002730E3622363636384F8443084F8453040
:1047B00084F8463084F84730A36484F8503084F895
:1047C000513084F8523084F8533084F8403084F803
:1047D000413084F8423084F8433070BDF8B5436806
:1047E00002690446981A0DD1E1682068A5680D4F4A
:1047F0000E1AA7FB0575B6EB550F04DAE0602061D1
:104800006061181AF8BD521A49F0C0FBE1682368CC
:1048100020696269E3605B1A18441A442061636886
:104820006261EEE7ABAAAAAAF0B41668741E00256E
:104830008C42056063D916F8014CC470B41EA142C5
:1048400055D216F8024C847016F8034CFD2CA6F1D4
:1048500003052AD0A94249D22C4614F801694670B2
:1048600015F8017CFD2F31D0A1424AD22578057080
:1048700014F8011CFD2909D04678817841EA062107
:1048800041EA05411460F0BC19607047057846782C
:104890008178ED43EDB241EA06210570013C41EA21
:1048A00005411460F0BC19607047A9421ED284789B
:1048B000351FE443E6B2A9428670CDD30178407833
:1048C000090441EA00212C463143DBE7A1420ED224
:1048D000F6B2AC1EF643F5B2A1424570C6D30678D7
:1048E000817841EA064141EA0521CBE72C4601786F
:1048F00045788078090441EA05210143C2E7294649
:10490000C0E70578817841EA054141EA0621B9E727
:10491000F0B405682C78FD2C1ED018D8B52C16D014
:1049200011D9D32C13D0013526460F6806FA03F3AC
:10493000166873407E1C13600E6000233C70056097
:104940001846F0BC70470A2C01D0242CEBD14FF054
:10495000FF331846F0BC70476C78E443E6B202358A
:104960003446E2E72DE9F84FB1F57E7FDDF8288087
:104970006AD899460B9B08EB0307B84564D20C46EE
:104980004146FF2301F8013B8F425DD992F801A017
:10499000064650461546FFF7B9FE8742014653D9F1
:1049A00095F802B05846FFF7B1FE874201464FEA3C
:1049B0000B2B49D9ED7849EA050949F01109484618
:1049C000FFF7A4FE4AEA094585EA0B0585F0AA151A
:1049D00085F42A450146DCB9B94235D2C5F3074012
:1049E000FFF794FE874201462ED9C5F30720FFF753
:1049F0008DFE8742014627D9E8B2FFF787FE87423E
:104A000022D9FE2300F8013BA0EB0800BDE8F88F97
:104A100006EB04094E45DFD0874215D9002401E09A
:104A2000874211D916F8010B04F1080300FA04F2C9
:104A3000103C18BF0124554003FB04F4FFF766FE49
:104A4000B1450146ECD1C7E74FF0FF30BDE8F88F24
:104A500070B5072A8AB044DD8C18054607AB05AA55
:104A600006A8CDE90414FFF7DFFE049B564A08921E
:104A7000591C6A1C049109921B782B7008AA09A979
:104A800004A80023FFF744FF58BB082308AA09A97C
:104A900004A8FFF73DFF20BB102308AA09A90DEBCE
:104AA0000300FFF735FF0646D8B9DDE9042369683E
:104AB00009919A4238BF044604D335E0DDE9042366
:104AC0009A4213D2234608AA09A904A8FFF720FF97
:104AD00004F10803103C18BF012403FB04F4002870
:104AE000ECD04FF0FF3630460AB070BDDDE9072349
:104AF0009A42F6D168680999091AB1F57E7FA960D2
:104B0000EFD80029EFD0EB7813F00102EBD11B07AF
:104B100010D56B78043B012BE5D80B29E3D90C2188
:104B2000164602F051FADEE7DDE907329A42D8D1A3
:104B3000AE60D8E70B2903D96B78043B012B03D96E
:104B400002F042FA0026CEE70C2102F03DFA6C6832
:104B50002368012B2AD0113B012BC4D9A9680C3939
:104B600004F10C0002F030FA20686D680DF10E01BE
:104B700002F090FA0C35034638B1BDF80E00A26879
:104B800061680090284602F02BFA20680DF10E01B2
:104B900002F08EFA034638B1BDF80E00A2686168D3
:104BA0000090284602F04CFA00269CE7A96860298C
:104BB000D5D1E169626A236909BA12BA1BBAE16107
:104BC0006262236100268EE7AAAAAA002DE9F04FAF
:104BD00045690169A94283B049D904466FF00108CB
:104BE0006FF0020E6FF02C076FF04A0C24264FF086
:104BF000FF30A946636A0135656115F8012C002B69
:104C000039D1FF2A1CD0242A00F0A180B52A40F017
:104C1000D580A27E002A40F0C180A36A013324D04F
:104C2000236A4FF0FF300133236284F8280084F8B0
:104C3000290084F82A0084F82B0003B0BDE8F08F27
:104C4000227E002AE9D084F8240084F8253084F8F4
:104C5000263084F82730C4F80C9084F8283084F883
:104C6000293084F82A3084F82B308D42C1D10020BD
:104C700003B0BDE8F08FB52B00F0878047D9D32B68
:104C800000F0B980FF2BF0D1FE2AEED1E168206C54
:104C90006A1A04F14806002800F09481019249F054
:104CA00067F9216CE0686569019AE1640023E063BB
:104CB000E560304684F8243084F8253084F82630C6
:104CC00084F82730FFF7C4FE002840F0428194F8B2
:104CD000492084F84400531E84F8450084F84600B7
:104CE00084F8470084F8380084F8390084F83A00E2
:104CF00084F83B00072B00F22C81DFE813F033012E
:104D000033014E0136013601300130013001242BD0
:104D1000ABD10A2A00F00F81013AD2B2FC2AA4D901
:104D2000226A00234FF0FF300132226284F82430DF
:104D300084F8253084F8263084F8273084F8280059
:104D400084F8290084F82A0084F82B0075E794F889
:104D500019A0BAF1000F3FF460AF013AD2B2FC2AB9
:104D600084F8246084F8253084F8263084F82730CD
:104D7000C4F80C9084F8283084F8293084F82A305C
:104D800084F82B307FF671AFCAE7A36A052B00F2D7
:104D90006081DFE803F00DBB0D0D0DAE84F824C07B
:104DA00084F8253084F8263084F82730C4F80C9035
:104DB0000133A3628D427FF41CAF58E7D32A7FF4FE
:104DC0002CAFE27E002A3FF428AF84F8283084F824
:104DD000293084F82A3084F82B3084F8253084F880
:104DE000263084F82730A36A84F824700133C4F88D
:104DF0000C90A362DEE7A36A012B25DD022BD7D13D
:104E0000D4F80CA00E224FF00009D3086FEA020B71
:104E10001AF803300BF0070B43FA0BF3013203F0DF
:104E20000103182A03EB4909EFD1B9F5806F70D25D
:104E3000A368063B99456CD8AEEB09098D42C4F8CE
:104E400028907FF4D6AE12E7002BB1DA0133A362CB
:104E5000002B7FF40AAFE0682E1AB6F1030C00F0C5
:104E6000AF80A0F10408DFF874E21F46B044411E91
:104E700011F8012F82EA17423B025EF8227023F0FC
:104E80007F43884587EA0307F2D1002100EB0C0E2F
:104E90008C46CB08CA431EF8033002F007021341C8
:104EA000013103F00103182903EB4C0CF1D1BC458F
:104EB0002FD10023A063E0632663E56084F82C30E3
:104EC00084F82D3084F82E3084F82F3084F8343074
:104ED00084F8353084F8363084F8373084F824305C
:104EE00084F8253084F8263084F827306FF0C040ED
:104EF000A3E6A26835F8023C063A934209D8A8EB2B
:104F000003038D42A3627FF474AEB0E6622A3FF4DD
:104F10004FAF226AE560002301324FF0FF3022627A
:104F200084F8243084F8253084F8263084F827303B
:104F300003B0BDE8F08FE768E560EB1B0026072BA8
:104F400084F8246084F8256084F8266084F827605B
:104F50003CDC236A013323624FF0FF306DE66FF0D3
:104F600000506AE66FF0405067E6E36C19685D68D0
:104F70009868E162E16A2563606319B1216BB1F55C
:104F8000806F55D90023022284F8453084F84630DA
:104F900084F8473084F84420DBE7E36C1A685868EB
:104FA0009968E262E26A20636163002AD1D0226BD1
:104FB000B2F5806FCDD80C33A3636FF000503CE6A0
:104FC000674662E72368E36408466FE615F8028CDB
:104FD00005F8026C60693146102204384CF01CF967
:104FE000636903F8028C65697B1C691F8B4205D2DB
:104FF00013F8012B994286EA0206F9D18642A8D11C
:105000000023ED1B2563E763A76384F82C3084F845
:105010002D3084F82E3084F82F3084F8343084F822
:10502000353084F8363084F837306FF0804004E64D
:10503000052A09D10022012184F8452084F8462060
:1050400084F8472084F844100C33A3636FF0805039
:10505000F3E55A1CA262002A7FF407AEE06884F8E8
:10506000242009F1FF33861C84F8252084F82620AB
:1050700084F827209E4215F8027C114608D216F8C3
:1050800001CB614452FA81F2B342D2B2C9B2F6D135
:105090008F4203D115F8013C934206D0236AE560A4
:1050A000013323624FF0FF30C7E500232A1AA063C3
:1050B000E0632263E56084F82C3084F82D3084F8B6
:1050C0002E3084F82F3084F8343084F8353084F86A
:1050D000363084F837306FF0A040AEE5F86405084C
:1050E00038B54C688B68E518954201D9FF2038BD6A
:1050F00022460C31184448F03BFF002038BD00BF69
:10510000014B1860704700BF240000200000000021
:105110002DE9F04F2DED088B83B090ED001B90ED45
:10512000020B82460C4690460091019244F01EFC10
:1051300084ED020BDAE9002310461946FBF76EFAFC
:10514000DAE90267044632463B460D4630463946A8
:10515000FBF764FA02460B4620462946FBF7A8F8FF
:1051600041EC100B44F0ECFC76A3D3E90023B0EE45
:1051700040BAF0EE60BA51EC100BFBF74FFA9AED23
:10518000040B41EC110B44F0F1FB4346002B40F3C0
:10519000C480B0EE408AF0EE608A9FED63AB4FF0C2
:1051A000000BB0EE480AF0EE680A44F071FAB0EE77
:1051B0004A1AF0EE6A1ADAE9048944F013FCB0EEF8
:1051C000407AF0EE607AB0EE480AF0EE680A57ECEA
:1051D000176B44F039F9B0EE4A1AF0EE6A1A44F04F
:1051E00001FC5AA3D3E9002351EC100BFBF716FA8C
:1051F00002460B4651EC1B0BFBF758F855A3D3E9BD
:10520000002304460D4630463946FBF707FA42466E
:105210004B46FBF74DF845EC184B41EC100BB0EE4C
:10522000481AF0EE681A44F0A1FB009BB0EE409AD9
:10523000F0EE609A83ED000B44F07EFA41A3D3E9CF
:10524000002351EC100BFBF7E9F941EC100B43F094
:105250005BFF019BB0EE408AF0EE608A0BF1010B20
:105260005B459ED1B0EE490AF0EE690A44F010FAAF
:1052700055EC104B10EE100A2FA3D3E9002329465A
:10528000FBF7CCF922462B46FBF7C8F902460B4642
:1052900000202B49FBF70AF841EC100B44F050FCBE
:1052A00023A1D1E9000153EC102BFBF7E1FA009B9D
:1052B00093ED000B06460F4644F0C6F81EA3D3E953
:1052C00000233046394659EC108BFBF7A7F92246EC
:1052D0002B46FBF7A3F9DAE90423FAF7E9FF2246A4
:1052E0002B46FBF79BF953EC1B2B04460D4640461F
:1052F0004946FBF793F902460B4620462946FAF742
:10530000D7FF3B463246FAF7D1FF009BC3E90401C1
:1053100003B0BDEC088BBDE8F08F009B93ED009BC4
:10532000A0E700BFAFF300800000000000000840CD
:1053300000000040A65458418393FEF1906B7B3FE0
:105340000000F03F230C7BA588E4EF3F2334D18697
:1053500035D9E440A9C3EAF729EBE4400000000096
:105360002DE9F04F2DED028B90ED008B85B0B0EE66
:10537000480AF0EE680A04460D4644F089F9B0EE9A
:10538000407AF0EE607AB0EE480AF0EE680A57EC28
:10539000176B44F059F894ED028BB0EE407AF0EEC2
:1053A000607AB0EE480AF0EE680A5BEC17AB44F0A6
:1053B0006FF9B0EE407AF0EE607AB0EE480AF0EEA7
:1053C000680A8DED007B44F03FF834A3D3E9002355
:1053D000304639468DED020BFBF720F932463B464D
:1053E000FBF71CF902460B4600202B49FAF75EFF3B
:1053F00041EC100B44F0A4FB21A1D1E9000153ECD6
:10540000102BFBF735FAD4E9042380468946FAF7D6
:105410004FFF52465B46FBF701F9DDE90223FBF73C
:10542000FDF8C5E900014046D4E904234946FAF7EE
:105430003FFF52465B46FBF7F1F8DDE90023FBF73F
:10544000EDF811A3D3E90023C5E90201404649461E
:10545000FBF7E4F80EA3D3E90023FBF709FAD4E93C
:105460000423FAF725FF32463B46FBF7D7F8C5E998
:10547000040105B0BDEC028BBDE8F08FAFF30080F6
:1054800000000040A6545841BA8AEB2E2560C24263
:1054900080B82F4CD97FC2420000F03F8393FEF1C9
:1054A000906B7B3F2DE9F843D0E900672DED048B2D
:1054B0001546814688463246D1E900013B46FAF757
:1054C000F5FEFBF7A3FBD9E902230446D8E9020164
:1054D000FAF7ECFEFBF79AFB09EE104AD9E9042330
:1054E0000446D8E90401FAF7E1FEFBF78FFB08EE6A
:1054F000104ADFED1A7ADFED1A9AB4EEE78AF1EE80
:1055000010FA44BFDFED177A38EE278ADFED167AFE
:10551000B4EEE78AF1EE10FA29EE299AC8BFDFED62
:10552000117A85ED009A08EE900A39463046C8BFD8
:1055300038EE678AFBF76AFB00EE100A44F02CF99C
:1055400028EE298AF1EE688A28EE008AC5ED028AE3
:1055500085ED018ABDEC048BBDE8F883DB0F49C003
:10556000E64BC24ADB0FC940DB0F49402DE9F84347
:10557000D0E900672DED048B1546814688463246FA
:10558000D1E900013B46FAF791FEFBF73FFBD9E971
:1055900002230446D8E90201FAF788FEFBF736FB3E
:1055A00009EE104AD9E904230446D8E90401FAF7C0
:1055B0007DFEFBF72BFB08EE104ADFED1C7ADFEDDA
:1055C0001C9AB4EEE78AF1EE10FA44BFDFED197AC7
:1055D00038EE278ADFED187AB4EEE78AF1EE10FA9A
:1055E00029EE299AC8BFDFED137A85ED009A08EEFF
:1055F000900A39463046C8BF38EE678AFBF706FB8B
:105600009FED0E0A07EE900A27EE800A44F0C4F8D8
:1056100028EE298AF1EE688A28EE008AC5ED028A12
:1056200085ED018ABDEC048BBDE8F883000034C32E
:105630000008D9470000B4430000344335FA8E3CDB
:10564000B5EEC00AF1EE10FA02D89FED070A7047D6
:10565000DFED067A08B520EE270A44F00BFBDFEDFC
:10566000047A20EE270A08BD0000000090B2213C19
:10567000ACCA03C600B52DED028B85B001AAFFF7B9
:1056800075FF9DED020A9DED017ADDED037A20EEB6
:10569000000AA7EE070AA7EEA70AB5EE400AF1EE48
:1056A00010FAB1EEC08A06D4B0EE480A05B0BDECDF
:1056B000028B5DF804FB44F013FBF5E770B5D0ED09
:1056C000007A2DED028B9FED158A67EE887A0546EC
:1056D00017EE900A14460E46FAF748FFC4E9000197
:1056E000D6E90001FBF792FA00EE100A44F054F8F4
:1056F000D5ED017A67EE887AC7EE807A17EE900AC8
:10570000FAF734FFAB68C4E9020183F00040FAF70E
:105710002DFFBDEC028BC4E9040170BD44A6283402
:1057200038B504460D460CA3D3E90023D1E90001A6
:10573000FAF774FFC4E9000107A3D3E90023D5E910
:105740000201FAF76BFFC4E90201D5E90423C4E9B9
:10575000042338BDAFF30080F8C1631ADCA54C40C8
:1057600038B504460D460CA3D3E90023D1E9000166
:10577000FAF754FFC4E9000107A3D3E90023D5E9F0
:105780000201FAF74BFFC4E90201D5E90423C4E999
:10579000042338BDAFF30080399D52A246DF913F0C
:1057A0002DE9F041D0E900670546214B0022304643
:1057B0003946FBF7A5F968BB1E4B30463946002237
:1057C000FBF7BCF930BBD5E902671B4B0022304622
:1057D0003946FBF795F9E8B93046184B39460022AF
:1057E000FBF7ACF90646A8B9D5E904450CA3D3E903
:1057F000002320462946FBF783F970B90AA3D3E9B1
:10580000002320462946FBF799F9B0FA80F04009B9
:10581000BDE8F0810020BDE8F0813046FBE700BF25
:10582000000000000088C3C00000000080842E41FA
:10583000008056C000805640008066C000806640F0
:105840002DE9F84355EC114B43F022FF53EC102B9C
:1058500010EE100A1946FAF7E1FE38A3D3E9002347
:1058600006460F46FAF7DAFE02460B46002032499A
:10587000FAF71CFD41EC100B44F062F924A3D3E9C4
:1058800000233046394659EC108BFAF7C7FE2A4BF5
:105890000022FAF70DFD20A3D3E90023FAF7BEFE9C
:1058A00042464B46FAF7E4FF1DA3D3E900238046A6
:1058B000894630463946FAF7B1FE02460B461AA130
:1058C000D1E90001FAF7F2FC464619A3D3E9002317
:1058D0004F468046894620462946FAF79FFE0246F3
:1058E0000B4640464946FAF7E1FC22462B46FAF7BA
:1058F00095FE02460B4630463946FAF7D7FCFBF7D1
:1059000085F900EE100ABDE8F88300BFAFF3008010
:1059100085619EFDC6A65F3F87DC6BCD868F2340E9
:1059200095D626E80B2E313E7E74CB06C9E6C93EDD
:10593000D840C4922544343D0000F03F8393FEF1EB
:10594000906B7B3F00B5DFED097A85B037EEC00A7A
:105950000023014601A88DED020ACDED030A019353
:1059600000F09EFD05B05DF804FB00BFDB0FC9BF72
:1059700092ED035AD1ED017AD1ED005A92ED006A11
:10598000D1ED026A92ED067A67EE857AE5EE867AC7
:10599000E6EE877AC0ED007A92ED045AD1ED017AF5
:1059A000D1ED005A92ED016AD1ED026A92ED077ACB
:1059B00067EE857AE5EE867AE6EE877AC0ED017AC3
:1059C00092ED055AD1ED017AD1ED005A92ED026ABD
:1059D000D1ED026A92ED087A67EE857AE5EE867A75
:1059E000E6EE877AC0ED027A92ED035AD1ED047AA1
:1059F000D1ED035A92ED006A92ED067AD1ED056A77
:105A000067EE857AE5EE867AE6EE877AC0ED037A70
:105A100092ED045AD1ED047AD1ED035A92ED016A68
:105A2000D1ED056A92ED077A67EE857AE5EE867A22
:105A3000E6EE877AC0ED047A92ED055AD1ED047A4C
:105A4000D1ED035A92ED026AD1ED056A92ED087A22
:105A500067EE857AE5EE867AE6EE877AC0ED057A1E
:105A600092ED035AD1ED077AD1ED065A92ED006A14
:105A7000D1ED086A92ED067A67EE857AE5EE867AD0
:105A8000E6EE877AC0ED067A92ED045AD1ED077AF8
:105A9000D1ED065A92ED016AD1ED086A92ED077ACE
:105AA00067EE857AE5EE867AE6EE877AC0ED077ACC
:105AB000D1ED077A92ED055AD1ED065A92ED026AC0
:105AC000D1ED086A92ED087A67EE857AE5EE867A7E
:105AD000E6EE877AC0ED087A704700BF92ED035A70
