S010000049535F4556422D322E73726563DD
S214404000A86145206DAD4100D1274100C927410038
S214404010BD274100C1274100C527410000000000E0
S214404020000000000000000000000000E1344200F4
S214404030D52741000000000081354200E5354200AA
S214404040D9274100DD274100E127410031B2410038
S214404050E5274100E9274100ED274100F1274100CF
S214404060F52741000000000075A6410039A7410031
S214404070FDA74100F9274100FD27410001284100E6
S214404080C1A8410085A941000528410009284100F2
S2144040900D284100814241001128410069AD410090
S2144040A069AD410015284100192841001D284100EE
S2144040B02128410069AD41002528410029284100BA
S2144040C02D2841003128410075D1410069AD41009D
S2144040D069AD410069AD410069AD410035284100F8
S2144040E069AD4100392841003D2841004128410042
S2144040F045284100492841004D28410051284100AB
S214404100552841005928410069AD41005D284100CD
S2144041106128410000000000000000000000000090
S2144041206528410069284100851841006D284100F6
S2144041307128410069AD4100752841007928410049
S21440414069AD410069AD410069AD410069AD4100CE
S21440415069AD410069AD410069AD410069AD4100BE
S21440416069AD410069AD4100450FF9A7177D4E99ED
S214404170DB53A272E7C3E151450FF9A7177D4E996D
S214404180DB53A272E7C3E1510000000100000001CA
S21440419010B5054C237833B9044B13B10448AFF33C
S2144041A000800123237010BD400D40200000000019
S2144041B0A4E546000C4B43B10C480D4910B5AFF38F
S2144041C000800C48036823B910BD0A48036833B919
S2144041D07047094B002BF7D0BDE810401847064BF8
S2144041E0002BF5D0184700BF00000000A4E54600AD
S2144041F0440D4020A4E54600000000009A4238BF27
S21440420088547047704700BF2DE9F04F83B09846FA
S2144042100F460646129D92460D9C15F002039DF8E9
S21440422038E01099DDF8449001932BD1B9F1000F96
S21440423040F0A7801F2C05F0010C8CBF0023012303
S2144042408C420ED26BB10C9B30201A1900E043B161
S214404250013402F8010B1F2C8CBF00230123A1421E
S214404260F5D8BCF1000F0DD0A1450BD953B10C9B2E
S2144042703022234401E01F2C04D8013403F8012BDC
S2144042804C45F8D3EA0616D568055DD51F2C8CBF7D
S214404290002301230F9A102A68D00F9A022A04D1CD
S2144042A01BB162230C9A135501341F2C11D83023AE
S2144042B00C9A135501341F2C0BD8BEF1000F74D145
S2144042C0680700F18A80290729D520230C9A1355C0
S2144042D00134AB0725D055460C9B03EB040B2C440E
S2144042E0681C2A464346394605461BF8010DB0472A
S2144042F0A542F5D1019B73B1A4EB0A0399450AD9AF
S21440430022460134434639462020B047A4EB0A03F0
S21440431022469945F5D8204603B0BDE8F08FAA0757
S21440432054D1A14552D909EB0A0B5246ABEB040BCC
S214404330551C434639462020B0475D452A46F7D1AE
S214404340002CC9D12C46D5E7002C3DD08C4201D05C
S2144043504C459BD1012C04F1FF3251D00F9B102BC2
S2144043604ED1023C1F2C8CBF00230123A90605F02A
S21440437020023AD4002B38D078230C9A13550134B7
S21440438093E715F0010C18D0BEF1000F22D115F0BE
S2144043900C0F1FD11F2C8CBF002301238C42BFF46F
S2144043A063AF002B7FF44FAF5EE72D230C9A135577
S2144043B0AB0704F10104B4D08DE71F2C3FF662AF83
S2144043C08C42FFF440AF5DE7012363E75546002C7F
S2144043D082D1B7E709F1FF39DCE72B230C9A135556
S2144043E0AB0704F101049CD075E7002A3FF455AFB3
S2144043F0002B3FF452AF58230C9A1355013454E720
S2144044001F2A14468CBF0023012343E70000000008
S2144044102DE9F04F99B017461E4604460D46DDE995
S2144044202223104619464EF0C3FF002800F02B8288
S2144044304FF0FF32AE4BDDE922014EF0E1FF4FF088
S214404440FF326FF48013002840F01381DDE922012B
S2144044504EF0B8FF002840F0528200220023DDE9EB
S21440446022014EF0AFFF002840F087829DED227B70
S2144044708DED087B0998269BC0F30A504FF0000844
S214404480DFF8889213F48063A0F2FF300F93249BEA
S21440449008BF062324934EF0BDFC85A3D3E9002332
S2144044A04EF01EFD84A3D3E900234EF067FB824600
S2144044B08B464FF0FF308F49DDE9082302400B4022
S2144044C01046194600228C4B40EA080041EA090192
S2144044D04EF052FB7AA3D3E900234EF001FD02468C
S2144044E00B46504659464EF049FB4EF0A9FF0B90FE
S2144044F04EF090FC8046894673A3D3E900234EF0E5
S214404500EFFC00227D4B4EF039FB4EF099FF824681
S214404510494640466EA3D3E900234EF0E1FC804670
S21440452089465046CDF838A04EF074FC6AA3D3E9CD
S21440453000234EF0D5FC02460B46404649464EF018
S2144045401BFB82468B4602460B464EF0C9FC804615
S214404550894652465B46504659464EF00FFB00226F
S214404560674BCDE90C01404649464EF0E3FD00223C
S214404570644B4EF003FB02460B46404649464EF01F
S214404580D9FD0022604B4EF0F9FA02460B464046F3
S21440459049464EF0CFFD8046894652465B4600204F
S2144045A04FF080414EF0E8FA02460B4640464946F8
S2144045B04EF0E4FA02460B46DDE90C014EF0BAFD39
S2144045C00022524B4EF0DAFA0E9B002203F2FF3ADC
S2144045D04FEA0A534EF084FC8046894602460B4614
S2144045E0DDE908014EF0EEFE50B10B9B40464946D1
S2144045F00022013B0B93434B4EF09CFD8046894680
S2144046000B9B6333C62B8CBF052104210E91269944
S214404610090540F18480DDE908AB31A3D3E90023E6
S214404620504659464EF0E2FE002871D05046594654
S2144046302DA3D3E900234EF0C5FE002868D00B9B7F
S21440464024998B4280F22D82CB1A013B2493269BE1
S21440465043F48062259B002B00F0168226990023A7
S2144046602692C1F340010C930B930F9119460E937B
S21440467005E1DDE922014EF0A5FE002840F03F812D
S214404680269B2046259A24990493334603923A461D
S214404690029129469DED227B8DED007B00F010FABD
S2144046A08046404619B0BDE8F08F00BFAFF30080AB
S2144046B0FB799F501344D33FB3C8608B288AC63FCC
S2144046C061436F63A787D23F71A379094F930A402E
S2144046D01655B5BBB16B0240EF39FAFE422EE63FA7
S2144046E02D431CEBE2361A3F0000000080842E412A
S2144046F0FFFFEF7FFFFF0F000000F83F0000E03FA6
S21440470000002C4000002440000018400000F03F0D
S214404710249B23B10F9B13B1249B013B2493259BE1
S2144047200E9A9342269B4FF00102C3F340030C922D
S21440473000F2A3804FF0000B0F93002B0B9B18BF8B
S2144047404FF0000B3BB142464B46DDE908014EF0C8
S214404750F1FCCDE9080100220023DDE922014EF0FC
S21440476031FE002840F01181DDE9080102460B4683
S2144047704EF01EFE002800F012816FF480134FF0BA
S214404780FF32DDE908014EF01DFE269B002840F072
S214404790418123F40062249BCDF80CB02946029355
S2144047A02046049233463A469DED087B8DED007BCD
S2144047B000F086F980460C9B002B3FF472AF269B98
S2144047C04246294608F1010813F0200F33460CBF35
S2144047D065204520A0470E9B0DF13F0E002003F1BB
S2144047E0FF390B9BDFF8C8C2002B19464FEAD37A35
S2144047F0B8BF594201E01F280DD8ACFB013201304A
S214404800D20802EB8203A1EB4303114630330EF885
S214404810013F002AEFD1052300214FF00A0C0DF18D
S214404820400E019042460693204633460491CDF80A
S21440483014902946CDF808A0CDF80CC0CDF800E07D
S214404840FFF7E2FC0F9B8046002B3FF42AAFC31BCA
S214404850259A9A427FF625AF9146024608F101080E
S214404860334629462020A047A8EB070342469945F1
S214404870F4D8404619B0BDE8F08F0E990F93259AAC
S214404880A2EB010B59E7269B990774D1259B032B76
S21440489071D9A7F103093A46994402F10108334613
S2144048A029462020A047C8454246F6D1DFF8049264
S2144048B04246A9F1030B19F8010D3346294602F189
S2144048C0010AA047CB455246F5D1269B08F103087E
S2144048D09A077FF5E6AEA8EB0703259A9A427FF63D
S2144048E0E0AE9146424608F101083346294620206C
S2144048F0A047A8EB070342469945F4D8D1E6269B45
S2144049009B074AD1259B042B47D9A7F104093A4671
S214404910994402F10108334629462020A047C8455D
S2144049204246F6D1DFF890914246A9F1040B19F8B9
S214404930010D3346294602F1010AA047CB455246AF
S214404940F5D1269B08F1040898077FF5AAAEA8EB98
S2144049500703259A9A427FF6A4AE9146424608F14E
S2144049600108334629462020A047A8EB07034246C5
S2144049709945F4D895E6B84698E7229B0893239B3A
S21440498003F100430993184675E5DDE90801024640
S21440499001F10043CDE90823E6E6B846C2E7269B88
S2144049A09A0710D1BBF1030F0DD9A7F103093A4678
S2144049B0D94402F10108334629462020A047C8457D
S2144049C04246F6D100E0B846DFF8E890424619F88D
S2144049D0010D3346294602F1010AA047324B5246A2
S2144049E04B45F4D10F9B08F10308002B3FF4E3AE90
S2144049F0A8EB07035B45BFF4DEAE424608F101086C
S214404A00334629462020A047A8EB070342465B458D
S214404A10F4D3D0E69B0735D1BBF1040F32D9A7F1CA
S214404A2004093A46D94402F1010833462946202073
S214404A30A047C8454246F6D1DFF87C90424619F872
S214404A40010D3346294602F1010AA047174B52464C
S214404A504B45F4D10F9B08F10408002B3FF4ABAE56
S214404A60A8EB07035B45BFF4A6AE424608F1010833
S214404A70334629462020A047A8EB070342465B451D
S214404A80F4D398E6B846D7E79B46269B2692C3F3D0
S214404A904003CDF838B0CDF82CB00F93CDF830B0F9
S214404AA059E60023D2E500BFEC314600F03146001F
S214404AB0CDCCCCCCEF314600F431460000000000AF
S214404AC02DE9F04F93B0984606460F46209B01923C
S214404AD04FF0FF321D460293C34B1E9CDDF87CB060
S214404AE0DDE91C9A484651464EF08AFC18B305F05C
S214404AF00403BE49BE4A002B15BF042303238A463F
S214404B009246A807039340F01C815B45194680F007
S214404B101881019802460D1A541C434639462020F7
S214404B20B0472B1922469B45F6D8019B03EB0B0456
S214404B30039BE41A06E1A8A3D3E90023484651465E
S214404B404EF05EFC002840F0228148465146A4A321
S214404B50D3E900234EF036FC002840F018810022AE
S214404B600023484651464EF02DFC002840F01F8159
S214404B702B46099013F4806500F06981092C40F2B9
S214404B80DD810DF127030025302201E0092C05D9EF
S214404B90013503F8012F013C1F2DF7D9954B03EB48
S214404BA0C40393ED007B8DED047B514648464EF0A2
S214404BB047FC03904EF02EF902460B4648465146B7
S214404BC04DF0DAFFDDE904234EF08AF9CDE906011F
S214404BD04EF05EFC08904EF00DF902460B46DDE9BD
S214404BE006014DF0C9FF0022834BCDE906014EF089
S214404BF007FC002800F06081089B013318460893A4
S214404C004EF0F8F8DDE904234EF0F0FB20B1039BAC
S214404C100133039300230893002C40F01E81039831
S214404C204EF0F8F802460B46484651464DF0A4FF73
S214404C300022714B81468A464EF0C4FB002800F0A5
S214404C40C2804846514600226B4B4EF0D9FB0028A6
S214404C5040F0B9800DF1280A1F2D00F2D380039B47
S214404C6066481A46D91780FB03436C1CC1EBA30168
S214404C7001EB8103A2EB430312AA30332A4402F825
S214404C80203CA9B1554480FB0132202C4FEAE17309
S214404C90C3EBA20300F0B78003EB83020134A1EB21
S214404CA04202194602F1300305F8013F0029EAD1D5
S214404CB0029B03F00303012B00F0AB801F2C09D8A6
S214404CC0099A002A00F0068112AA2D2122440134B6
S214404CD002F8201C002B40F093805C4580F09080CA
S214404CE0019A02EB0B09A9EB0409551C43463946C9
S214404CF02020B0474D452A46F7D10AEB04092A46FC
S214404D00039419F8010D43463946541CB047D14523
S214404D102246F6D1029B039C9B072C440DD5019D51
S214404D20631B9B4509D92246013443463946202019
S214404D30B047631B22469B45F6D8204613B0BDE8D5
S214404D40F08F019C0AEB0305224615F8010D4346F9
S214404D50394602F10109B047AA454A46F5D1039BB8
S214404D6023441C46029B9907E7D5019D631B9B4540
S214404D70E3D922460134434639462020B047631BD8
S214404D8022469B45F6D8204613B0BDE8F08F029BDE
S214404D903946019A304620934346CDF87CB01E945F
S214404DA0CDE91C9A13B0BDE8F04FFFF731BB0123A5
S214404DB04A4600200021099353464DF0DDFE2B461F
S214404DC081468A46D6E6039BD8077FF543AF013334
S214404DD003933FE7AFF300800000000065CDCD4170
S214404DE00000000065CDCDC1FFFFEF7FF8314600E3
S214404DF000324600083246000000E03F67666666BE
S214404E00019D7AE72C46029B03F00303012B7FF4B7
S214404E1061AFBBF1000F16D0099B1BB9029B13F084
S214404E200C0F01D00BF1FF3B1F2C0CD8A3450AD921
S214404E30631E3022534401E01F2C04D8013403F88B
S214404E40012F5C45F8D31F2CDAD8012338E79FEDB5
S214404E50407B06248DED047BA7E6202D6AD008987B
S214404E60611EDFF8FCC06C1C0346ACFB0332D20864
S214404E7002EB8203A0EB430312A8303300EB050E8F
S214404E800EF8203C9AB30AAB60469A461D440AE0A8
S214404E9003EB830E0134A2EB4E0E1A460EF130039E
S214404EA005F8013F2AB3A0FB02E3202C01F1FF31B5
S214404EB04FEAD303ECD1A6E7DDE906010022264BF4
S214404EC04EF080FA00287FF4A7AE089B73BB0133F0
S214404ED00893A1E6029A510721D412077FF5FAAE4D
S214404EE012AA20212244013402F8201CF2E60DF1D9
S214404EF0280A1F2C87D859B1631E214430225344B8
S214404F00013403F8012F202C3FF47DAF8C42F7D1BB
S214404F1012AB2E22651C234403F8202C9CE612AAD2
S214404F202B212244013402F8201CD3E6DA077FF511
S214404F3073AECCE72C460DF1280A64E7074B0025F4
S214404F4003EBC40393ED007B8DED047B2DE600BFA1
S214404F500000000080842E410000E03F08324600FA
S214404F60CDCCCCCC2DE9F04F8A4D1C469BB092461A
S214404F702B464FF0000B0A91002918BF03460993B1
S214404F80249B0B93207868B125281AD00BF1010595
S214404F9001345A4653460A99AB46099DA84720789D
S214404FA00028F1D1D34553460A994FF000002CBF54
S214404FB00AF1FF325A46099CA04758461BB0BDE846
S214404FC0F08F631C00261C4613F8010BA0F120024C
S214404FD0102A19D8DFE802F00C18180F18181818FD
S214404FE01818181218151818090046F00106EAE7AE
S214404FF046F00806E7E746F01006E4E746F0040603
S214405000E1E746F00206DEE7A0F13003092B40F266
S214405010E5812A2800F08F8200252E2800F0ED81B9
S2144050204FF00009A0F16803122B0FD8DFE803F019
S214405030690E790E710E0E0E0E0E0E0E0A0E0E0E26
S2144050400E0E0A00607846F480760134A0F12503FF
S214405050532B00F2B981DFE813F0AC01B701B7017A
S214405060B701B701B701B701B701B701B701B7013B
S214405070B701B701B701B701B701B701B701B7012B
S214405080B701B701B701B701B701B701B701B7011B
S214405090B701B701B701B701B701880158018801C8
S2144050A0B701B701B701B701B701B701B701B701FB
S2144050B0B701B701B701B701B701B701B701B701EB
S2144050C00901B701B701B701B701B701B701B70189
S2144050D0B701B7010901E7000901880158018801B5
S2144050E0B7010901B701B701B701B701B701090117
S2144050F0C700B701B7016900B7010901B701B70199
S21440510009016078682800F0618246F08006013424
S2144051109CE760786C2800F0548246F48076013430
S21440512094E7607846F4007601348FE70B9AB9F13D
S214405130000F1346176803F1040338780B9314BF27
S2144051404B464FF0FF33002800F03084B84601E06D
S214405150013B03D018F8012F002AF9D1A8EB070825
S21440516016F480630C9302D0C84528BFC84616F094
S21440517002030D9300F07D8118B30C9B002B00F0CA
S2144051809981D944DE46CDF83080DDF824B0DDF88C
S214405190288008E005424000D84717F8010FB64679
S2144051A0002800F00A82F1457246534641460EF109
S2144051B00106F1D1F346DDF830800D9B002B00F060
S2144051C0D280454540F2CF805D445A460A9EA5EBC4
S2144051D00808099D0BF1010B534631462020A8478D
S2144051E0C3455A46F6D1BEE00B9A1168151D0029F4
S2144051F000F0838146F021070DF14706002002E0CB
S2144052001F2800F2828101F00F0E01305FFA8EF304
S21440521003F130023733BEF1090F98BF1346090930
S21440522006F8013FECD170E1B20700F10381012D91
S21440523040F21C840BF1FF36099FDDF828802E448F
S2144052400BF101055A46534641462020AB46B84727
S214405250B542F5D10B9B2A4605F1010B0A991E1D56
S2144052601878099D53460B96A8477CE000F0DF036C
S214405270582B40F0328158284FF0100800F03A8101
S214405280692840F0A881710548BF26F001066928C4
S21440529000F05D81A0F16407B7FA87F77F09002F19
S2144052A040F0558116F4007040F036830B9A16F4A1
S2144052B08077134640F0D681710600F1C6833206E9
S2144052C003F104034CBF33F8040C53F8040C0B935F
S2144052D0002840F0718226F0100316F4806F1E46B8
S2144052E000F06A820020069612AE5A460290534656
S2144052F00595CDF81090CDF80C8001970A9909983D
S2144053000096FEF781FF83462DE00B9B462803F16F
S214405310070308BF46F0200623F00703D3E90078CA
S21440532008333A4638460B93414643464EF040F8DB
S214405330002800F0EF814FF0FF326FF480133846BC
S21440534041464EF03FF8002840F049815A460496C0
S21440535003955346CDF808900A990998CDE9007808
S214405360FFF7AEFB834601340CE600F0DF0300F0A7
S214405370FD0003955A46472BCDF8089053460A99A8
S21440538008BF46F4006645280B9804F1010408BFA0
S21440539046F020060730049620F00700D0E9006764
S2144053A00830CDE900670B900998FFF731F883463F
S2144053B0E8E50BF101055A4653460A99AB462520C7
S2144053C0099D0134A847DDE50BF101035A460A99C9
S2144053D001349B46099D5346A847D3E5002505EB77
S2144053E0850500EB450514F8010FA0F13003303D6C
S2144053F0092BF4D92E287FF413AE607846F48066E5
S214405400621CA0F13003092B0FD814464FF0000958
S21440541009EB890900EB490914F8010FA0F13003A4
S214405420A9F13009092BF3D9FCE52A2800F0B78109
S2144054301446F5E50B9E53465A460A993078371D72
S214405440099E0BF10108B047012D40F20C834646F9
S2144054505D44DDF82480DDF82890701C32465346C3
S214405460494606462020C047AE42F6D1B3460B9783
S21440547079E7454508F1010340F2F08205EB0B035E
S2144054800E97099EA3EB08080A9F0BF101005A46A7
S2144054905346394683462020B047C345F5D10E9F34
S2144054A005F10108387800283FF45DAF0C9B002BCF
S2144054B07FF467AEDE46DDF82490A3460A9C72462B
S2144054C0534621460EF10106C84717F8010FB64667
S2144054D00028F4D15C46B3466FE66F2800F0198288
S2144054E0622800F0E480582826F010064FF00A089C
S2144054F07FF4C6AE46F02006DBE026F010077305C4
S21440550047F021077FF578AE084610230021082291
S21440551012AE0190013405925A46039353460291C7
S2144055200697CDF810900A99009609980B95FEF7C5
S2144055306BFE834626E50B9A15681346002D03F14D
S2144055400403C0F23581607801340B9365E516F4A8
S214405550007E40F072810B9A16F48077134655D140
S214405560720600F17682300603F104034CBF33F92D
S214405570040C53F8040C0B93C30F0C93002840F014
S2144055803A8126F0100316F4806F1E4600F03381F1
S2144055900C980DF1480E5A460696029053460595CD
S2144055A0CDF81090CDF80C800A9909980197CDF85F
S2144055B000E0FEF729FE8346D5E6DDF83080B346A8
S2144055C0FBE5A07846F4407602343FE5A07846F006
S2144055D0C00602343AE564283FF455AE69E0B007A9
S2144055E06AD1042D68D9ABF104070C965A46099E39
S2144055F02F44DDF8288002F1010953464146202019
S214405600B047B9454A46F6D10C9E56E0043310687A
S2144056100C93C30F0B93002800F0F68100280DF181
S2144056204707B8BF404216F0200F14BF4FF0370C64
S2144056304FF0570C03E0BEF11F0F00F2EC810EF165
S214405640010EB0FBF8F308FB13011846CBB203F18A
S21440565030026344092998BF134607F8013F0028E3
S214405660E9D1D8E1043317680B93002F00F0B281DC
S21440567016F0200F0DF1470E14BF4FF0370C4FF0C9
S214405680570C02E01F2800F2AC810130B7FBF8F35C
S21440569008FB13711F46CBB203F13002634409295D
S2144056A098BF13460EF8013F002FEBD199E14FF01B
S2144056B0020826F00C06E6E5D946CDF834B04A4650
S2144056C0C04FDDF82480DDF828B00C9617F8010DA1
S2144056D053465946561CC047BB4B3246BB42F5D193
S2144056E00C9E09F10402DDF834B0B10710D5A2EBE8
S2144056F00B039D420CD9099E0A9F02F101085346AE
S21440570039462020B047A8EB0B0342469D42F4D8CA
S214405710934628E6B70740F04781032D40F2448180
S214405720ABF103070C965A46099E2F44DDF82880B5
S21440573002F10109534641462020B047B9454A4642
S214405740F6D10C9ECDF834B04A46A04FDDF8248002
S214405750DDF828B00C9617F8010D53465946561CEE
S214405760C0479B4B3246BB42F5D10C9E09F1030223
S214405770DDF834B0B607CBD5A2EB0B039D42C7D9B4
S214405780099E0A9F02F10108534639462020B04739
S214405790A8EB0B0342469D42F4D89346E3E50B9AAA
S2144057A0023420781368043223EAE3790B9239E412
S2144057B046F002066D42C6E616F0200F0DF1470E83
S2144057C014BF4FF0370C4FF0570C02E01F2F3FF638
S2144057D089AD0137B0FBF8F308FB13011846CBB28E
S2144057E003F130026344092998BF13460EF8013F7F
S2144057F00028EBD176E500280DF1470EB8BF4042B1
S21440580016F0200F14BF4FF0370C4FF0570C02E045
S2144058101F2F3FF6BDAE0137B0FBF8F308FB130170
S2144058201846CBB203F130026344092998BF1346A9
S2144058300EF8013F0028EBD1AAE60B99073121F07C
S2144058400701D1E9002308310B91D90F109152EA94
S214405850030108D126F0100116F4806F0E4602D0E0
S21440586000239E4641E0002A73F10001C0F2E98021
S21440587016F0200F10461F464FF000010DF147036B
S21440588014BF372257220C96CDF834B00E460E95EC
S2144058909346CDF83C900546994601E01F2E1DD80C
S2144058A028463946424600234DF0FCFF28465FFA1C
S2144058B082FE3946002342460EEB0B070EF13005BA
S2144058C00136BEF1090F88BF3D4609F8015F4DF02D
S2144058D0E9FF51EA000305460F46DFD1B646DDF83C
S2144058E034B00E9DDDF83C900C9E109812AF5A4690
S2144058F00696029053460595CDF81090CDF80C804C
S2144059000A990998CDF804E00097FEF77DFC834697
S21440591029E54FF00808CCE60B9B073323F0070336
S214405920D3E9001208330B9351EA0203CDE9101273
S2144059303FD016F0200F4FF000070DF147030C96AE
S21440594014BF37225722CDF834B00E959346CDF883
S2144059503C903D469946DDE9106701E01F2D1BD877
S21440596030463946424600234DF09CFF3046D2B280
S21440597039460023013502EB0B0702F13006092AAF
S21440598088BF3E46424609F8016F4DF08BFF50EA0D
S214405990010306460F46E1D12F460C9EDDF834B093
S2144059A0DDF83C900E9D9DE4D946CBE68046FFF759
S2144059B0D7BB26F0100316F4806F1E467FF492ACD9
S2144059C0B7E700BFF4314600F0314600EF314600FD
S2144059D0EC31460026F0100316F4806F1E463FF466
S2144059E047AE0696002712AE5A4601905346059596
S2144059F0CDF81090CDF80C800A9902970998009639
S214405A00FEF702FC8346AEE426F0100316F4806FE1
S214405A101E463FF403AE0B9812AF05955A460C9DB2
S214405A20534602900696CDF81090CDF80C800A9911
S214405A300998CDF804E000970B95FEF7E5FB834602
S214405A4091E4524263EB430312E7043310780B931E
S214405A503EE4187804330C970B938FE5984600285D
S214405A607FF424AD7FE40B97C3467CE45D46FFF7A6
S214405A70F1BB00BF0CB410B584B00A4601460648D8
S214405A8006AC54F8043B00940394FFF76BFA04B05A
S214405A90BDE8104002B07047FD4140000E4B1A680A
S214405AA0904217D05A68904214D09A68904211D0CB
S214405AB0DA6890420ED01A6990420BD05A699042EA
S214405AC008D09A69904205D0DB69181A18BF4FF083
S214405AD0FF30704700207047A839460010B5054C87
S214405AE0204620F08DFD2046034A0449BDE810407C
S214405AF020F074BA5C0D4020940040202566420099
S214405B008B0708D10144884205D203681BBA40F887
S214405B10043B8142F9D870472DE9F043BDF81CE0BC
S214405B2003EB4E0E734525D2083908E00759DCF8DA
S214405B3004603D463446CCE900459E451AD933F8C4
S214405B40025BC5F30E04A41AF7D4A14200EB040C82
S214405B50F3DB2D04EAD5055900EB04089E4595FA7B
S214405B6085F9D8F8045095FA85FC40F804C0C8F882
S214405B700490E4D8BDE8F083F0B4BDF8107003EBB1
S214405B804707BB4202D319E09F4217D933F8044B6C
S214405B9033F8025CA41A4E1BB442F5DC002CF3DB4F
S214405BA0AE07F1D104446619B442EDD225682DBA49
S214405BB044F8045BA642F9D89F42E7D8F0BC704749
S214405BC05B2807D8044B53F8200020B103880230E6
S214405BD00B80704700207047583246005B2807D835
S214405BE0044B53F8200020B1038802300B807047E6
S214405BF000207047C83346000839002911DD11F0EF
S214405C0003020ED100F1080321F0030110461944A7
S214405C108B4208D253F8042B994280EA0200F9D806
S214405C2070470020704770470166C0F814117047EF
S214405C3070B5044600F1F406D4F82C21D4F8283187
S214405C409A420FD030460BF059F805463046696800
S214405C500C310BF05BF828B1204629460AF0CCFD03
S214405C60284670BD216930460BF0C0F80028204613
S214405C70E2DA0AF0B3FC0028F4D10546284670BDA7
S214405C80074903460022086803F1080110B40424BB
S214405C9098601A7318465C6019605DF8044B70474C
S214405CA038354600D0F82C21D0F828319A422ED0EC
S214405CB001692DE9D043044611B3002204F1F400F3
S214405CC00BF048F88046206903685B699847E0B166
S214405CD04FEAE8792069D4E92E23D4E9306712EBFD
S214405CE00802016843EB090316EB0806096947EB0F
S214405CF00907C4E92E23C4E93067BDE8D043084706
S214405D000AF0BAFE21690029D7D1BDE8D083704792
S214405D1010B5054C204620F073FC2046034A044943
S214405D20BDE8104020F05AB9600D40209400402055
S214405D30256642002DE9F04F93B014460546884646
S214405D40DDF87C90F430424A9B46494608AE0AF05D
S214405D501DFF27686468C5F81881E742069603D099
S214405D6017B93C4822F068FF0F2C0C943CD8012C05
S214405D705BD0002C66D13346002207940EAF1A55EE
S214405D80DBF800A0DBF804400C971AEB040F02D0B7
S214405D90BAF1000FE5D00F2C059434D8012C49D029
S214405DA0002C51D1BE460DF1300B00220D942846F2
S214405DB05B460EF8042041461E9C06AACDF80C9081
S214405DC00294DDE91C45CDE900450AF08DFB0C98B0
S214405DD0B84201D00CF0D2FB0698B04201D00CF08D
S214405DE0CDFB13B0BDE8F08F00220CA906A83BF00F
S214405DF0F1F80C9B069008932246394650F0C8FCB2
S214405E000C9C069BB8E70DF1300B002205A95846BE
S214405E103BF0E0F8059B0C900E932246514650F01E
S214405E20B7FC059CDDF830E0BFE73A7833468DF89E
S214405E302020A1E79AF80030BE460DF1300B8DF8D1
S214405E403830B2E73046D7E738460DF1300BE4E756
S214405E5040354600483546002DE9D04304460AF012
S214405E60DDFCD4F82C21D4F828319A422ED0216972
S214405E7000292DD0002204F1F4000AF06BFF804682
S214405E80206903685B69984700B34FEAE879206960
S214405E90D4E92E67D4E9302316EB080647EB09070A
S214405EA012EB080243EB0903C4E92E67C4E930232A
S214405EB048B10368DB689847206910B103685B689F
S214405EC09847002323610120BDE8D0832069EFE78F
S214405ED020460AF0D1FD21690029F4D0CAE700BF68
S214405EE02DE9F04F0D4683B0044617460AF01EFBD8
S214405EF02B68012B4ED06B68D4F82C0103F10C01B3
S214405F00D4F82421121A91420BD804F1F4060093D7
S214405F1029463B460C2230460AF076FE03B0BDE8E2
S214405F20F08FD4F82831834230D0216941B304F150
S214405F30F406002230460AF00DFF804620690368CA
S214405F405B69984710B34FEAE879D4F8D810D4E99B
S214405F502E23D4E930AB12EB080208464FF000017E
S214405F6043EB090318EB0A0849EB0B098B4208BFC1
S214405F708242C4E92E23C4E930891FD26B68C6E743
S214405F8020460AF079FD21690029D0D1002003B0CF
S214405F90BDE8F08F54233A46294604F15C0000F0F1
S214405FA04FFF0028A7D1AA686B68D1180729A3DD40
S214405FB0042AA1DC226EC4F814219DE723682046FB
S214405FC0234A1B69934237D10AF028FCD4F82C2187
S214405FD0D4F828319A422DD0216900292FD00022AA
S214405FE030460AF0B7FE8046206903685B699847EA
S214405FF000B34FEAE8792069D4E92E23D4E930ABE0
S21440600012EB080243EB090318EB0A0849EB0B09AD
S214406010C4E92E23C4E930890028AFD00368DB6882
S2144060209847206910B103685B689847002323614E
S2144060306B686CE72069EFE798476B6867E7204630
S2144060400AF01AFD21690029C9D16B685FE700BFD5
S214406050595E4000054B10B5044640F8F43B0AF044
S2144060605DFD20460AF0B0FC204610BD7C3546005B
S214406070074B10B5044640F8F43B0AF04FFD204667
S2144060800AF0A2FC20460CF079FA204610BD00BF6C
S2144060907C354600026800234168C3600A4483603A
S2144060A0036142618361036243628362C362036346
S2144060B0704700BF2DE9F04184B0076846680091FC
S2144060C03E4481680A9C4D1CB7420292019385600B
S2144060D0039480F000813B46FF2003F8010B9E426C
S2144060E040F2F980BB1C03209E42787040F2F38059
S2144060F0CAB2B52A76D071D9D32A73D001D3FD2A35
S21440610070D2F81C0902BA7086428BB240F2E38025
S214406110DFF8E4E11124774A391DDEF80000FC7010
S2144061205A4000287DD0002468464FF0FD0804AB56
S214406130984220D08E421ED904F1080510F8013B43
S214406140B5F1180C03FA04F418BF4FF0010CB52B48
S21440615082EA04020CFB05F400F0B68000F2AD8043
S2144061600A2B00F0B180242B00F0AE800B7004ABFD
S21440617001319842DED18E4240F2AD80100CC3B25F
S214406180B52B70D069D80A2B6DD0242B6BD04B1C06
S21440619008709E4240F29F80100AC1B2B52972D064
S2144061A06BD80A296FD024296DD0591C18708E429E
S2144061B040F29180D3B2B52B75D06ED80A2B72D0F0
S2144061C0242B70D0481C0A70864240F28480FE23FE
S2144061D000F8013BC01B04B0BDE8F0810A2A01D09C
S2144061E0242A8ED1DFF810E1DEF8003073B13B1D73
S2144061F0D2430902FD249E42FA7088B2BC706AD926
S21440620011233C4A791D3B7142408CE7FB1C090236
S214406210BA709E4288B25ED9364A1123391D424032
S214406220FB700D460024684613E004AB9842A2D0AB
S21440623004F1080110F8013B0135B1F1180C03FADE
S21440624004F405F8013C18BF4FF0010C624001FB16
S2144062500CF4AE422946E8D88DE7D32B03D096D32C
S214406260FD3B022B93D8DEF80030CBB3C043FD2471
S2144062700B4603F8024B48708BE7D32903D094D3E0
S214406280FD39022991D8DEF8001061B3C043FD24E1
S214406290194601F8024B587089E7D32B03D091D3A7
S2144062A0FD3B022B8ED8DEF80030FBB1D243FD23F7
S2144062B0084600F8023B4A7086E7D32B04D0FFF42A
S2144062C055AFFD2BFFF452AF0D46DB4305F8028B6E
S2144062D04B7029462BE74FF0FF3004B0BDE8F08105
S2144062E008704B1C55E71870591C60E70A70481C2C
S2144062F06AE700BFA9AABB00580140202DE9F04735
S21440630003F10C071E46044689463846904614F06C
S2144063109DFE0546324608990C3050F039FAC5F8CD
S21440632000906E60B7F57E7FC5F80880A16820684B
S21440633001F101036268A3606BD80244904268D2C0
S2144063400346FF2403F8014B9A4262D9831C052476
S2144063509A4244705DD9CEB2B52E66D061D9D32E5E
S21440636063D001D3FD2E60D2C31C867009029A42C8
S2144063708CB24ED911267649013303F8016C614040
S214406380002F5CD0DFF8CCE12F44DEF80040002C34
S21440639000F09380AC4600264FF0FD09674520D0BC
S2144063A09A421ED906F108081CF8014BB8F1180AA3
S2144063B004FA06F618BF4FF0010AB52C81EA06012A
S2144063C00AFB08F600F09D8000F294800A2C00F04C
S2144063D09880242C00F0958067451C7003F10103DB
S2144063E0DED19A4215D90E0CF4B2B52C05D000F287
S2144063F0A5800A2C01D0242C24D1DEF80040002CA5
S21440640000F09680F643FD271C4604F8027B5E703B
S2144064101AE04FF0FF34284614F0C2FE2046BDE88E
S214406420F0870A2E01D0242E9ED14A4B1B68002BA3
S21440643040D0F643FD24031DC670847096E79A420A
S214406440E7D90E0C5C1C1E70A242E2D90E0AF3B2CB
S214406450B52B04D00ED80A2B01D0242B10D13D4B9F
S2144064601B68002B43D0F643FD27234603F8027BE8
S214406470667007E0D32BF2D002D3FD3B022BEED959
S214406480631C26709A42C4D9CCB2B52C46D03FD8AD
S2144064900A2C43D0242C41D05C1C1970A242B8D997
S2144064A0FE2304F8013B241A284614F079FE2046C1
S2144064B0BDE8F0878670C31C58E71E46AC4612E01F
S2144064C067458ED004F108081CF8013B0136B8F148
S2144064D0180903FA04F406F8013C18BF4FF0010906
S2144064E0614008FB09F4B2423346E9D879E72670A2
S2144064F0631CC7E7D32C04D0FFF46EAFFD2CFFF42B
S2144065006BAF9846E44308F8029B5C70434645E709
S214406510D32C03D0C0D3FD3C022CBDD80D4C2468F0
S2144065204CB1C943FD261C4604F8026B5970B5E7CA
S2144065301E705C1C88E719705C1CAFE7D32C3FF4D8
S2144065405CAFFFF47FAFFD3C022C7FF656AF79E799
S214406550AFAABB00580140202DE9F04703F10C07D5
S2144065601E46044689463846904614F06FFD05465A
S214406570324608990C3050F00BF9C5F800906E6022
S214406580B7F57E7FC5F80880A168206801F1010351
S2144065906268A3606BD80244904268D20346FF24E8
S2144065A003F8014B9A4262D9831C04249A424470F1
S2144065B05DD9CEB2B52E66D061D9D32E63D001D385
S2144065C0FD2E60D2C31C867009029A428CB24ED908
S2144065D011267649013303F8016C6140002F5CD0E8
S2144065E0DFF8CCE12F44DEF80040002C00F093802A
S2144065F0AC4600264FF0FD09674520D09A421ED98A
S21440660006F108081CF8014BB8F1180A04FA06F619
S21440661018BF4FF0010AB52C81EA06010AFB08F6BE
S21440662000F09D8000F294800A2C00F09880242C84
S21440663000F0958067451C7003F10103DED19A4255
S21440664015D90E0CF4B2B52C05D000F2A5800A2C54
S21440665001D0242C24D1DEF80040002C00F0968097
S214406660F643FD271C4604F8027B5E701AE04FF0A6
S214406670FF34284614F094FD2046BDE8F0870A2EE5
S21440668001D0242E9ED14A4B1B68002B40D0F643A7
S214406690FD24031DC670847096E79A42E7D90E0C17
S2144066A05C1C1E70A242E2D90E0AF3B2B52B04D08F
S2144066B00ED80A2B01D0242B10D13D4B1B68002B43
S2144066C043D0F643FD27234603F8027B667007E077
S2144066D0D32BF2D002D3FD3B022BEED9631C26709F
S2144066E09A42C4D9CCB2B52C46D03FD80A2C43D017
S2144066F0242C41D05C1C1970A242B8D9FE2304F861
S214406700013B241A284614F04BFD2046BDE8F0878E
S2144067108670C31C58E71E46AC4612E067458ED0CE
S21440672004F108081CF8013B0136B8F1180903FAD1
S21440673004F406F8013C18BF4FF00109614008FB1D
S21440674009F4B2423346E9D879E72670631CC7E7B6
S214406750D32C04D0FFF46EAFFD2CFFF46BAF9846FD
S214406760E44308F8029B5C70434645E7D32C03D0CD
S214406770C0D3FD3C022CBDD80D4C24684CB1C94357
S214406780FD261C4604F8026B5970B5E71E705C1C6B
S21440679088E719705C1CAFE7D32C3FF45CAFFFF47E
S2144067A07FAFFD3C022C7FF656AF79E7AEAABB0022
S2144067B05801402030B490E80C00816813444C1CCB
S2144067C09A42846059D21046FF2400F8014B834217
S2144067D053D9901C0624834254704ED9C9B2B52969
S2144067E033D02ED9D32930D001D3FD292DD2D01C79
S2144067F09170834241D90446112504F8015BA342B7
S2144068003BD9841CBB25A342457036D94BF6AA34E7
S2144068104C40E1B2B52927D020D80A2924D02429D3
S21440682022D0C11C84708B4227D90846AC2400F87D
S214406830014B834221D9881CFE23801A4B7030BC02
S21440684070470A2901D02429D1D111480068C0B127
S214406850FD25CC43101D9570D470CAE7D32903D0CC
S214406860DFD3FD390229DCD80949096861B1E44320
S214406870FD25011DC4708570D5E74FF0FF3030BC54
S21440688070479170D01CB4E78470C11CCBE700BF42
S2144068905801402070B415680024013D04608D42C4
S2144068A010D9072C0ED0062CFDD8DFE804F03D3476
S2144068B02E251F1604000678013D0724F6438D4218
S2144068C00670EED8156044788278017842EA042251
S2144068D042EA014270BC1A6070472C78047015F882
S2144068E0014CFD2C14BF07240624D8E74678013D0A
S2144068F00524F6434670D2E72C78013D44702C7848
S214406900FD2C14BF05240424C9E78678013D0324E2
S214406910F6438670C3E72C78013D84702C78FD2CB6
S21440692014BF03240224BAE72E780124013DC67022
S214406930B5E700BF072A40F3E080F0B587B00E46C3
S2144069408D18044605AB03AA04A80395FFF7A2FFDB
S214406950337823707378D32B52D040F2A880FD2B27
S21440696052D1B378F21CDB43DBB2637011786B4FC5
S214406970D32987EA030743D040F2A180FD2940F09F
S214406980AE8051780232C943C9B2A17087EA01216C
S2144069901378D32B34D040F29A80FD2B40F0A18060
S2144069A053780232DB43DBB2039881EA0347E37055
S2144069B0904265682BD9002115E0FD2B1FD15378F6
S2144069C00232DB43DBB201F1080005F8013B039ECF
S2144069D08B40B0F1180187EA030718BF01219642A1
S2144069E001FB00F113D91378D32B09D0E5D8242B1B
S2144069F006D0B52B04D00A2B02D00132E3E7FCD3F5
S214406A004FF0FF3007B0F0BDFAD2B21CADE7059BA1
S214406A10BB42F5D16068291AB1F57E7FA160EFD8F8
S214406A20002941D0E37813F001063DD113F0080564
S214406A3059D06378043B012B36D80B2934D90C2126
S214406A40FFF75EF83046DDE70C21FFF759F8666839
S214406A503368012B54D0113B012B25D9A1680C3942
S214406A6006F10C00FFF74CF864680DF10A01306837
S214406A70FFF7A6F80C34034638B1BDF80A50204656
S214406A80B26871680095FFF747F80DF10A01306863
S214406A90FFF7A4F8034638B12046BDF80A40B2686E
S214406AA071680094FFF768F8002007B0F0BD242B0B
S214406AB0A6D0B52BA4D00A2BA2D0B21C55E72429C9
S214406AC09ED0B5299CD00A299AD001325DE7242B66
S214406AD096D0B52B94D00A2B92D0013264E78FD251
S214406AE0F3E78DD2F9E70B2903D96378043B012BF2
S214406AF0AAD9FFF705F8002084E74FF0FF3070472B
S214406B00A1686029ABD1F1692846726A336909BA2F
S214406B1012BA1BBAF1617262336173E7AAAAAA007D
S214406B20F0B585B0C0B10368B3B142680F2A13D937
S214406B3005694269954213D08269B2B1B52A7ED0C2
S214406B40044624D9D32A3FD0FF2A05D16B1CFE2900
S214406B500361297000F09C800025284605B0F0BDF2
S214406B60C268002401328461C260B52924D021D98C
S214406B70D32921D0FF291FD0C3690133ECD0C36885
S214406B804FF0FF3200250133C261C360E5E7242A97
S214406B90E2D16B1C0A2903612970DDD10169002509
S214406BA003688561CB1A072B00F30A81E36801333B
S214406BB0E360D2E72429DFD10024816103611D46CA
S214406BC0C4610A460462B9E76B1C03612970C06958
S214406BD00028C0F2978001283DDD022840F09280D0
S214406BE02368626858789B78063A00F00305D81107
S214406BF0C3F38011C3F34017C3F3001600EB450000
S214406C00C3F3C00501EB4001C3F3800007EB410727
S214406C10C3F3400103F0010306EB470605EB4605C8
S214406C2000EB450001EB400103EB4103934200F2C9
S214406C30C1806FF002020025D31AE3618DE76B1C1A
S214406C4003612970C369052B00F29280DFE803F0E8
S214406C5007180707070B01300025E0617DE7013381
S214406C600025C36179E70269436832F8022C063B87
S214406C709A4207D86FF0010300259A1AC2616CE762
S214406C806229ECD0C368002501338561C36064E7A0
S214406C9003680025026901A866681946A561D21AEC
S214406CA002930396FFF746FE00287FF47FAF0299D3
S214406CB09DF806600D684A68681EA2625A2898BF0A
S214406CC0B2F5806F8B68E662636200F29980B3F536
S214406CD0806F00F29580D018B0F5806F00F29080FB
S214406CE09DF80500032800F09E80FFF436AF052887
S214406CF03FF633AF20680C3118444FF0E3FD0123D4
S214406D0023632AE70130E06100287FF425AF266838
S214406D102369A0619B1BDF1E00F08380043B711E2D
S214406D20DFF818E1F51811F8012F030282EA104047
S214406D3023F07F43A9425EF8200080EA0300F2D1A8
S214406D4000223E441546D308D1430132F35C01F09D
S214406D500701182A43FA01F303F0010303EB450544
S214406D60F1D1854253D0E36800250133E360F4E671
S214406D700133C361002B7FF4EFAE02690168951EB4
S214406D808361023112F8026C12F8017C1A46A9425D
S214406D9007D211F8014B22448D42D2B21344DBB2E3
S214406DA0F7D1964238D19F4236D1B5234FF0FF35C2
S214406DB00362D2E6E36800250133A561E360CCE6D2
S214406DC011F8026C102201F8025C2946006904386A
S214406DD052F0A8FD236903F8026C23682169013349
S214406DE005398B4205D213F8012B994285EA0205F4
S214406DF0F9D1A842B7D124234FF0FF352362ACE641
S214406E00E3680222002501332263E360A5E6D3232C
S214406E104FF0FF352362A0E6C36800250133C36008
S214406E209BE638468CE723686FF000450C68486858
S214406E308A681C6058609A608FE600BFA835460096
S214406E4070B54D688C682E199E4201D9FF2070BDE2
S214406E50114620442A464FF09BFC002070BD00BFE0
S214406E6038B58C6A4B6AE518954201D9FF2038BD83
S214406E7009682246184419444FF08AFC002038BD61
S214406E8038B5074CA4F1600554F8180CA4F110026C
S214406E90183C904201D00BF071FBAC42F4D138BDA7
S214406EA0CC0D4020F0B500F1080683B0066019B35B
S214406EB0054608460F4651F063FB0F2804460190EE
S214406EC008D8012815D0D0B9002328466C60335521
S214406ED003B0F0BD002201A928463AF07BF8019B9A
S214406EE02860AB60224639464FF052FC019C2E6823
S214406EF0EAE73B782B72E7E7024821F09DFE3046F2
S214406F00F0E700BF483546005B2803D8024B53F8ED
S214406F10200070470148704718474600C84646005C
S214406F20002900F008812DE9F04F054685B08B46D4
S214406F30DBF80C30002B00F0E2800393039BDB6809
S214406F40002B00F0C4800193019BDB68002B00F00F
S214406F50A6800293029BDB68002B00F0888099464F
S214406F60D9F80C30002B69D09A46DAF80C70002F0E
S214406F704CD0FE68AEB3F368F3B19846D8F80C1020
S214406F802846FFF7CDFFD8F8341008F13C02D8F871
S214406F9008400846914201D00BF0F0FAD8F81000AD
S214406FA008F11802904201D00BF0E8FA4046A0469D
S214406FB00BF0E4FA002CE1D1706B06F13C03B468A8
S214406FC0984201D00BF0DAFA306906F1180398427D
S214406FD001D00BF0D3FA304626460BF0CFFA002C01
S214406FE0C9D1786B07F13C03BC68984201D00BF0DE
S214406FF0C5FA386907F11803984201D00BF0BEFA7B
S214407000384627460BF0BAFA002CB2D1DAF83400EC
S2144070100AF13C03DAF80840984201D00BF0AEFA89
S214407020DAF810000AF11803984201D00BF0A6FADD
S2144070305046A2460BF0A2FA002C96D1D9F834005E
S21440704009F13C03D9F80840984201D00BF096FA73
S214407050D9F8100009F11803984201D00BF08EFAC7
S2144070604846A1460BF08AFA002C7FF479AF029A84
S2144070701346506B94683C33984202D00BF07EFA2D
S214407080029A134610691833984201D00BF076FAEC
S214407090029802940BF072FA002C7FF45BAF019AD0
S2144070A01346506B94683C33984202D00BF066FA15
S2144070B0019A134610691833984201D00BF05EFAD5
S2144070C0019801940BF05AFA002C7FF43DAF039AD6
S2144070D01346506B94683C33984202D00BF04EFAFD
S2144070E0039A134610691833984201D00BF046FABB
S2144070F0039803940BF042FA002C7FF41FAFDBF8A2
S21440710034000BF13C03DBF80840984201D00BF00A
S21440711035FADBF810000BF11803984201D00BF05B
S2144071202DFA5846A3460BF029FA002C7FF400AF00
S21440713005B0BDE8F08F70472DE9F041154B80460D
S21440714000F5397600F684350360183DAC68CCB15E
S2144071502846E168FFF7E4FE626B04F13C03A7684B
S21440716010469A4201D00BF009FA206904F1180340
S214407170984201D00BF002FA20463C460BF0FEF94E
S214407180002FE5D1AE42E0D140460BF0F7F940463D
S214407190BDE8F081104746002DE9F041144B80468B
S2144071A000F5397600F684350360183DAC68CCB1FE
S2144071B02846E168FFF7B4FE626B04F13C03A7681B
S2144071C010469A4201D00BF0D9F9206904F1180311
S2144071D0984201D00BF0D2F920463C460BF0CEF94F
S2144071E0002FE5D1AE42E0D14046BDE8F08100BF79
S2144071F0104746002DE9F84F8B6880469146002B95
S21440720062D09C46D2F800E0D2F804A03B4DDCF8B1
S2144072101420DCF81070AAEB020B0BEAEB7B1BEB9E
S214407220020B15D09EF800003B78285CEC5C84424C
S21440723045D1F3440EF101033E4607E013F8010B37
S21440724016F8014F285C2C5DA04238D19B45F5D1FD
S214407250524594BF0020012020B1DCF808302BB105
S2144072609C46D4E7DCF80C30002BF9D1644660BB72
S2144072706046A2EB0A0303EAE37313EB0A0614D054
S2144072801E4B3D789EF800105D5D595C8D422FD1B7
S2144072903E44013707E017F8015B1EF8011F5D5DAD
S2144072A0595C8D4224D1BE42F5D1924594BF00220E
S2144072B00122BAB988E805004046BDE8F88FA042EA
S2144072C0ACBF00200120C7E70C1DCB68A34209D005
S2144072D0204620F01DF9D9F800E007694269D9F840
S2144072E004A0C6E70023404688E81800BDE8F88FAB
S2144072F08D42ACBF00220122DBE700BF8848460033
S2144073002DE9F04F8A46816885B000F104090029CE
S21440731066D0DAF800C04C46DAF804808346B04FB0
S21440732048690B69A0EB080E0EEAEE7E1EEB080ECF
S21440733014D01D789CF800207D5DBA5C95424AD1F9
S2144073409E446646013307E013F8015B16F8012FAA
S2144073507D5DBA5C95423ED19E45F5D1804594BF51
S21440736000220122002A32D10C4689680029D7D152
S214407370A145584635D0D4F814E02369A8EB0E0250
S21440738002EAE27212EB0E0717D0954A9CF80060AC
S2144073901D78965D555DAE4240F0EE8067440CF138
S2144073A0010C08E01CF8015B13F8011F565D555CA4
S2144073B0AE4240F0E1806745F4D1F0452CBF002551
S2144073C0012575B904F1280005B0BDE8F08FC968FD
S2144073D00029A5D1CCE79542ACBF00220122C1E7E7
S2144073E04C4607464C200BF0C3F8534600F11802B3
S2144073F0554653F8086B804600929E42026100F064
S2144074007881AA68C8F81060C8F818204FF0000BBA
S214407410D5F804A02B60242285F808B05946C5F854
S21440742004B008F12800C8F814A04FF0AFFA08F1ED
S2144074303C0308F11002A14588F83CB00192C8F818
S214407440343000F09E80D4F814B0D4F810E0AAEBA4
S2144074500B0303EAE37313EB0B0C17D0604A317847
S2144074609EF80030555CD35C9D4240F01581B44494
S214407470711C704608E011F8015B10F8013F555D3D
S214407480D35C9D4240F008818C45F4D1DA452CBF50
S21440749000230123002B00F0A580FB68A3422ED0DA
S2144074A0204620F035F8D0F814B003460169ABEB1F
S2144074B00A0C0CEAEC7C1CEB0A0C16D0484A0D78F9
S2144074C03078555D105C854240F004818C44B64669
S2144074D0013108E011F8015B1EF8010F555D105CA4
S2144074E0854240F0F7808C45F4D1DA4594BF0020C1
S2144074F00120002800F0DA80DA68002A6DD02346A2
S214407500201C1C4618BF0120994508BF40F00100CA
S21440751020BB60692569AAEB000303EAE3731918E8
S21440752018D02F4A96F800E02B7812F80EE0D35C7D
S2144075309E4540F0D9803144013609E016F801EB0B
S21440754015F8013F12F80EE0D35C9E4540F0CC8023
S214407550B142F3D182452CBF002001204B46224643
S214407560414644461FF0D6FF7B6904F128000133AC
S2144075707B6105B0BDE8F08FAE42ACBF002501256B
S2144075801FE77B69002B00F092803B69D3F814E03C
S2144075901969AEEB0A0202EAE27212EB0A0016D052
S2144075A00F4A0D783478555D145DA54240F0AC80A6
S2144075B00844B446013108E011F8015B1CF8014F5D
S2144075C0555D145DA54240F09F808842F4D1F24557
S2144075D094BF00240124002C68D0002490E700BF0C
S2144075E088484600ABEB0A0303EAE37313EB0A0052
S2144075F016D0494A9EF800103378515CD35C9942C5
S2144076004FD1704435460EF1010E07E01EF8011BBF
S21440761015F8013F515CD35C994242D17045F5D193
S214407620DA4594BF00230123002B49D03B69A3428F
S2144076303FF46FAF20461FF069FFD0F814B0034602
S2144076400069AAEB0B0505EAE57515EB0B0518D0A6
S214407650314A96F800E0017812F80EC012F801E0C0
S214407660E6453CD13544711C09E011F801CB10F8D1
S21440767001EF12F80CC012F80EE0F4452FD18D42FF
S214407680F3D1DA452CBF002201227AB1E268002A03
S2144076903FF43FAF1C4633E79D42ACBF0023012377
S2144076A0F8E69942ACBF00230123BDE7019A39466C
S2144076B002A8FFF79FFD039B029C002B7FF420AFA0
S2144076C0009BB34202D030460AF058FF40460AF0CC
S2144076D055FF77E68542ACBF0020012009E7F44518
S2144076E0ACBF00220122D0E79E45ACBF002001205F
S2144076F034E732687068C8F81820B168F268009EAF
S2144077007060B160F26081E6A542ACBF00240124FF
S214407710002C7FF462AFC9E788484600F0B591B0C8
S21440772000F11806B64901A80CADFFF7BBFB01A94E
S2144077303046FFF7E5FD0021042205230446079165
S2144077400AA8AF4908928DF82430FFF7ABFB089B98
S21440775004F10C00079A0AA963609DF82430226061
S214407760237239F033FD0A98A84201D00AF006FF8A
S214407770019803ACA04201D00AF000FFA14901A83D
S214407780FFF790FB01A93046FFF7BAFD0423052218
S21440779007469C490AA8079308938DF82420FFF7CC
S2144077A081FB089B07F10C00079A0AA97B609DF8AD
S2144077B024303A603B7239F009FD0A98A84201D05D
S2144077C00AF0DCFE0198A04201D00AF0D7FE8E49AE
S2144077D001A8FFF767FB01A93046FFF791FD01239B
S2144077E00822074688490AA8079208938DF824304D
S2144077F0FFF758FB089B07F10C00079A0AA97B6025
S2144078009DF824303A603B7239F0E0FC0A98A84272
S21440781001D00AF0B3FE0198A04201D00AF0AEFEB5
S2144078207A4901A8FFF73EFB01A93046FFF768FDFD
S21440783001230922074675490AA8079208938DF83E
S2144078402430FFF72FFB089B07F10C00079A0AA984
S2144078507B609DF824303A603B7239F0B7FC0A985A
S214407860A84201D00AF08AFE0198A04201D00AF050
S21440787085FE674901A8FFF715FB01A93046FFF7CB
S2144078803FFD01230A22074661490AA8079208934A
S2144078908DF82430FFF706FB089B07F10C00079A8B
S2144078A00AA97B609DF824303A603B7239F08EFC22
S2144078B00A98A84201D00AF061FE0198A04201D081
S2144078C00AF05CFE534901A8FFF7ECFA01A93046DE
S2144078D0FFF716FD01230B2207464E490AA80792DA
S2144078E008938DF82430FFF7DDFA089B07F10C006B
S2144078F0079A0AA97B609DF824303A603B7239F0BB
S21440790065FC0A98A84201D00AF038FE0198A042C9
S21440791001D00AF033FE404901A8FFF7C3FA01A997
S2144079203046FFF7EDFC01230C2207463A490AA8E9
S214407930079208938DF82430FFF7B4FA089B07F1B6
S2144079400C00079A0AA97B609DF824303A603B7287
S21440795039F03CFC0A98A84201D00AF00FFE019884
S214407960A04201D00AF00AFE2C4901A8FFF79AFA75
S21440797001A93046FFF7C4FC01230D2207462749DC
S2144079800AA8079208938DF82430FFF78BFA089BD5
S21440799007F10C00079A0AA97B609DF824303A60EC
S2144079A03B7239F013FC0A98A84201D00AF0E6FD73
S2144079B00198A04201D00AF0E1FD194901A8FFF75D
S2144079C071FA01A93046FFF79BFC01230E220746B9
S2144079D013490AA8079208938DF82430FFF762FAF5
S2144079E0089B07F10C00079A0AA97B609DF8243093
S2144079F03A603B7239F0EAFB0A98A84212E000BFB0
S214407A006C40460078404600884046009840460015
S214407A10A8404600B8404600C8404600D840460009
S214407A20E840460001D00AF0A9FD0198A04201D0E6
S214407A300AF0A4FDB64901A8FFF734FA01A930467A
S214407A40FFF75EFC01230F220746B1490AA80792BA
S214407A5008938DF82430FFF725FA089B07F10C00B1
S214407A60079A0AA97B609DF824303A603B7239F049
S214407A70ADFB0A98A84201D00AF080FD0198A042CA
S214407A8001D00AF07BFDA34901A8FFF70BFA01A934
S214407A903046FFF735FC07461020042205239D4953
S214407AA007900AA808928DF82430FFF7FBF9089B48
S214407AB007F10C00079A0AA97B609DF824303A60CB
S214407AC03B7239F083FB0A98A84201D00AF056FD73
S214407AD00198A04201D00AF051FD8F4901A8FFF756
S214407AE0E1F901A93046FFF70BFC012314220746B3
S214407AF089490AA8079208938DF82430FFF7D2F9EF
S214407B00089B07F10C00079A0AA97B609DF8243071
S214407B103A603B7239F05AFB0A98A84201D00AF004
S214407B202DFD0198A04201D00AF028FD7B4901A80E
S214407B30FFF7B8F901A93046FFF7E2FB012315220B
S214407B40074676490AA8079208938DF82430FFF72F
S214407B50A9F9089B07F10C00079A0AA97B609DF8D3
S214407B6024303A603B7239F031FB0A98A84201D083
S214407B700AF004FD0198A04201D00AF0FFFC6849D3
S214407B8001A8FFF78FF901A93046FFF7B9FB01239B
S214407B901622074662490AA8079208938DF82430B1
S214407BA0FFF780F9089B07F10C00079A0AA97B604B
S214407BB09DF824303A603B7239F008FB0A98A84298
S214407BC001D00AF0DBFC0198A04201D00AF0D6FCB6
S214407BD0544901A8FFF766F901A93046FFF790FB24
S214407BE00123172207464F490AA8079208938DF8A3
S214407BF02430FFF757F9089B07F10C00079A0AA9AB
S214407C007B609DF824303A603B7239F0DFFA0A9880
S214407C10A84201D00AF0B2FC0198A04201D00AF076
S214407C20ADFC414901A8FFF73DF901A93046FFF7F1
S214407C3067FB07461820042205233B4907900AA8FD
S214407C4008928DF82430FFF72DF9089B07F10C00B9
S214407C50079A0AA97B609DF824303A603B7239F057
S214407C60B5FA0A98A84201D00AF088FC0198A042CA
S214407C7001D00AF083FC2D4901A8FFF713F901A9AA
S214407C803046FFF73DFB07461C2018220A232749AB
S214407C9007900AA808928DF82430FFF703F9089B4E
S214407CA007F10C00079A0AA97B609DF824303A60D9
S214407CB03B7239F08BFA0A98A84201D00AF05EFC73
S214407CC00198A04201D00AF059FC194901A8FFF7D3
S214407CD0E9F801A93046FFF713FB01233422074693
S214407CE013490AA8079208938DF82430FFF7DAF86C
S214407CF0089B07F10C00079A0AA97B609DF8243080
S214407D003A603B7239F062FA0A98A84214D011E001
S214407D10F8404600084146001441460024414600CB
S214407D2034414600444146005441460064414600C2
S214407D30744146000AF022FC0198A04201D00AF0A5
S214407D401DFCA54901A8FFF7ADF801A93046FFF78D
S214407D50D7FA0123352207469F490AA80792089377
S214407D608DF82430FFF79EF8089B07F10C00079A21
S214407D700AA97B609DF824303A603B7239F026FAB7
S214407D800A98A84201D00AF0F9FB0198A04201D017
S214407D900AF0F4FB914901A8FFF784F801A93046A0
S214407DA0FFF7AEFA0123362207468C490AA8079207
S214407DB008938DF82430FFF775F8089B07F10C0000
S214407DC0079A0AA97B609DF824303A603B7239F0E6
S214407DD0FDF90A98A84201D00AF0D0FB0198A042CB
S214407DE001D00AF0CBFB7E4901A8FFF75BF801A95A
S214407DF03046FFF785FA01233722074678490AA816
S214407E00079208938DF82430FFF74CF8089B07F14B
S214407E100C00079A0AA97B609DF824303A603B72B2
S214407E2039F0D4F90A98A84201D00AF0A7FB019885
S214407E30A04201D00AF0A2FB6A4901A8FFF732F837
S214407E4001A93046FFF75CFA012338220746654908
S214407E500AA8079208938DF82430FFF723F8089B6A
S214407E6007F10C00079A0AA97B609DF824303A6017
S214407E703B7239F0ABF90A98A84201D00AF07EFB73
S214407E800198A04201D00AF079FB574901A8FFF7B4
S214407E9009F801A93046FFF733FA0123392207468D
S214407EA051490AA8079208938DF82430FEF7FAFF46
S214407EB0089B07F10C00079A0AA97B609DF82430BE
S214407EC03A603B7239F082F90A98A84201D00AF02B
S214407ED055FB0198A04201D00AF050FB434901A847
S214407EE0FEF7E0FF01A93046FFF70AFA01233A22DF
S214407EF007463E490AA8079208938DF82430FEF7B5
S214407F00D1FF089B07F10C00079A0AA97B609DF8F1
S214407F1024303A603B7239F059F90A98A84201D0A9
S214407F200AF02CFB0198A04201D00AF027FB30490A
S214407F3001A8FEF7B7FF01A93046FFF7E1F9012394
S214407F403B2207462A490AA8079208938DF8243010
S214407F50FEF7A8FF089B07F10C00079A0AA97B606A
S214407F609DF824303A603B7239F030F90A98A842BE
S214407F7001D00AF003FB0198A04201D00AF0FEFAB5
S214407F801C4901A8FEF78EFF01A93046FFF7B8F955
S214407F9006463C2018220A23164907900AA808924B
S214407FA08DF82430FEF77EFF079F0AA9089A06F14F
S214407FB00C009DF8243037607260337239F006F951
S214407FC00A98A84201D00AF0D9FA0198A04201D0F6
S214407FD00AF0D4FA11B0F0BD844146009441460000
S214407FE0A4414600B4414600C4414600D441460040
S214407FF0E4414600F4414600F0B501EB410491B03F
S214408000B74900EBC40401A8FEF74CFF01A920467F
S2144080100CAEFFF775F900210822092305460791A3
S2144080200AA8AF4908928DF82430FEF73BFF089B1C
S21440803005F10C00079A0AA96B609DF824302A6067
S2144080402B7239F0C3F80A98B04201D00AF096FA7B
S214408050019803ADA84201D00AF090FAA14901A8C0
S214408060FEF720FF01A92046FFF74AF9082304221D
S21440807007469C490AA807938DF824300892FEF7D5
S21440808011FF089B07F10C00079A0AA97B609DF830
S21440809024303A603B7239F099F80A98B04201D0E1
S2144080A00AF06CFA0198A84201D00AF067FA8E49A5
S2144080B001A8FEF7F7FE01A92046FFF721F907467B
S2144080C00C2004220823884907900AA808928DF8B5
S2144080D02430FEF7E7FE089B07F10C00079A0AA932
S2144080E07B609DF824303A603B7239F06FF80A980E
S2144080F0B04201D00AF042FA0198A84201D00AF0F4
S2144081003DFA7A4901A8FEF7CDFE01A92046FFF7C1
S214408110F7F80746102004220823744907900AA857
S21440812008928DF82430FEF7BDFE089B07F10C0040
S214408130079A0AA97B609DF824303A603B7239F072
S21440814045F80A98B04201D00AF018FA0198A842B9
S21440815001D00AF013FA664901A8FEF7A3FE01A96A
S2144081602046FFF7CDF8074614200422082360492E
S21440817007900AA808928DF82430FEF793FE089BD5
S21440818007F10C00079A0AA97B609DF824303A60F4
S2144081903B7239F01BF80A98B04201D00AF0EEF96B
S2144081A00198A84201D00AF0E9F9524901A8FEF721
S2144081B079FE01A92046FFF7A3F8074618200422B7
S2144081C008234C4907900AA808928DF82430FEF7F9
S2144081D069FE089B07F10C00079A0AA97B609DF888
S2144081E024303A603B7238F0F1FF0A98B04201D032
S2144081F00AF0C4F90198A84201D00AF0BFF93E49F6
S21440820001A8FEF74FFE01A92046FFF779F807467A
S2144082101C2004220823384907900AA808928DF8A3
S2144082202430FEF73FFE089B07F10C00079A0AA988
S2144082307B609DF824303A603B7238F0C7FF0A985E
S214408240B04201D00AF09AF90198A84201D00AF04B
S21440825095F92A4901A8FEF725FE01A92046FFF711
S2144082604FF80746202004220823244907900AA8EE
S21440827008928DF82430FEF715FE089B07F10C0097
S214408280079A0AA97B609DF824303A603B7238F022
S2144082909DFF0A98B04201D00AF070F90198A842B2
S2144082A001D00AF06BF9164901A8FEF7FBFD01A9BB
S2144082B02046FFF725F807462420042208231049C5
S2144082C007900AA808928DF82430FEF7EBFD089B2D
S2144082D007F10C00079A0AA97B609DF8243011E04C
S2144082E0C8394600D0394600D8394600E0394600FD
S2144082F0E8394600F0394600F8394600003A46006C
S214408300083A46003A603B7238F060FF0A98B0423E
S21440831001D00AF033F90198A84201D00AF02EF9AC
S214408320694901A8FEF7BEFD01A92046FEF7E8FF11
S2144083300746282004220823634907906844089289
S2144083408DF82430FEF7AEFD089B07F10C00079A27
S2144083500AA97B609DF824303A603B7238F036FFBD
S2144083600A98B04201D00AF009F90198A84201D013
S2144083700AF004F9554901A8FEF794FD01A92046E4
S214408380FEF7BEFF07462C20042208234F490790DD
S2144083900AA808928DF82430FEF784FD089B07F162
S2144083A00C00079A0AA97B609DF824303A603B721D
S2144083B038F00CFF0A98B04201D00AF0DFF8019876
S2144083C0A84201D00AF0DAF8414901A8FEF76AFD52
S2144083D001A92046FEF794FF0746302004220823D2
S2144083E03B4907900AA808928DF82430FEF75AFDBC
S2144083F0089B07F10C00079A0AA97B609DF8243079
S2144084003A603B7238F0E2FE0A98B04201D00AF079
S214408410B5F80198A84201D00AF0B0F82D4901A855
S214408420FEF740FD01A92046FEF76AFF07463420C6
S21440843004220823274907900AA808928DF824307A
S214408440FEF730FD089B07F10C00079A0AA97B60EF
S2144084509DF824303A603B7238F0B8FE0A98B04235
S21440846001D00AF08BF80198A84201D00AF086F8AD
S214408470194901A8FEF716FD01A92046FEF740FF60
S2144084800446382004220523134907900AA8089278
S2144084908DF82430FEF706FD079F0AA9089A04F1D6
S2144084A00C009DF8243027606260237238F08EFE00
S2144084B00A98B04201D00AF061F80198A84201D06B
S2144084C00AF05CF811B0F0BD103A4600183A460083
S2144084D0203A4600283A4600303A4600F0B591B079
S2144084E000F1F005B549002701A80CACFEF7DAFC10
S2144084F001A92846FEF704FF042205230646AF4995
S2144085000AA808928DF824300797FEF7CBFC079A06
S21440851030469DF82430089932600A9A3372A24257
S214408520716050F80C3F00F0018406F11407BB421E
S21440853000F069830B99F26031610C997269716140
S214408540002B00F065830A930C9200220B921A705F
S2144085500A98A04201D00AF011F8019803AEB04242
S21440856001D00AF00BF8964901A8FEF79BFC01A93A
S2144085702846FEF7C5FE04230522074690490AA86A
S214408580079308938DF82420FEF78CFC079A38460C
S2144085909DF8243007F1140E08993A600A9A3B7207
S2144085A0A242796050F80C3F00F0A283734500F079
S2144085B033830B99FA6039610C997A697961002B9B
S2144085C000F02F830A930C9200220B921A700A989E
S2144085D0A04201D009F0D2FF0198B04201D009F084
S2144085E0CDFF784901A8FEF75DFC01A92846FEF7B5
S2144085F087FE4FF0080E04220523074671490AA855
S214408600CDF81CE008928DF82430FEF74BFC079A14
S21440861038469DF8243007F1140E08993A600A9AB5
S2144086203B72A242796050F80C3F00F08483734559
S21440863000F0FB820B99FA6039610C997A6979618E
S214408640002B00F0F7820A930C9200220B921A70CD
S2144086500A98A04201D009F091FF0198B04201D09B
S21440866009F08CFF584901A8FEF71CFC01A92846D2
S214408670FEF746FE4FF00C0E0422082307465249EA
S2144086800AA8CDF81CE008928DF82430FEF70AFCC4
S214408690079A38469DF8243007F1140E08993A6038
S2144086A00A9A3B72A242796050F80C3F00F0488329
S2144086B0734500F0C3820B99FA6039610C997A6968
S2144086C07961002B00F0BF820A930C9200220B9235
S2144086D01A700A98A04201D009F050FF0198B042A3
S2144086E001D009F04BFF394901A8FEF7DBFB01A991
S2144086F02846FEF705FE4FF0100E042208230746D4
S21440870032490AA8CDF81CE008928DF82430FEF7CE
S214408710C9FB079A38469DF8243007F1140E08998D
S2144087203A600A9A3B72A242796050F80C3F00F0D9
S2144087301683734500F08B820B99FA6039610C9969
S2144087407A697961002B00F087820A930C920022A6
S2144087500B921A700A98A04201D009F00FFF0198B8
S214408760B04201D009F00AFF194901A8FEF79AFB6A
S21440877001A92846FEF7C4FD4FF0140E0422082334
S214408780074613490AA8CDF81CE008928DF8243015
S214408790FEF788FB079A38469DF8243007F1140EFA
S2144087A008993A600A9A3B72A242796050F80C3FA8
S2144087B000F0DA82734500F053820BE0B43F460087
S2144087C0C43F4600D03F4600DC3F4600E43F4600FC
S2144087D0F03F46000B99FA6039610C997A697961E5
S2144087E0002B00F042820A930C9200220B921A70E1
S2144087F00A98A04201D009F0C1FE0198B04201D0CB
S21440880009F0BCFEB74901A8FEF74CFB01A9284673
S214408810FEF776FD4FF0180E042208230746B149AE
S2144088200AA8CDF81CE008928DF82430FEF73AFBF3
S214408830079A38469DF8243007F1140E08993A6096
S2144088400A9A3B72A242796050F80C3F00F07D8253
S214408850734500F00E820B99FA6039610C997A697B
S2144088607961002B00F00A820A930C9200220B9248
S2144088701A700A98A04201D009F080FE0198B042D2
S21440888001D009F07BFE984901A8FEF70BFB01A931
S2144088902846FEF735FD4FF01C0E042205230746FA
S2144088A091490AA8CDF81CE008928DF82430FEF7CE
S2144088B0F9FA079A38469DF8243007F1140E0899BD
S2144088C03A600A9A3B72A242796050F80C3F00F038
S2144088D04182734500F0D6810B99FA6039610C9954
S2144088E07A697961002B00F0D2810A930C920022BB
S2144088F00B921A700A98A04201D009F03FFE0198E8
S214408900B04201D009F03AFE784901A8FEF7CAFA0B
S21440891001A92846FEF7F4FC4FF0200E042205235A
S214408920074672490AA8CDF81CE008928DF8243014
S214408930FEF7B8FA079A38469DF8243007F1140E29
S21440894008993A600A9A3B72A242796050F80C3F06
S21440895000F0DD81734500F09E810B99FA60396125
S2144089600C997A697961002B00F09A810A930C92EF
S21440897000220B921A700A98A04201D009F0FEFD20
S2144089800198B04201D009F0F9FD594901A8FEF717
S21440899089FA01A92846FEF7B3FC4FF0240E0422BC
S2144089A00823074652490AA8CDF81CE008928DF8DD
S2144089B02430FEF777FA079A38469DF8243007F1B8
S2144089C0140E08993A600A9A3B72A242796050F8AF
S2144089D00C3F00F0A181734500F066810B99FA6068
S2144089E039610C997A697961002B00F062810A93AB
S2144089F00C9200220B921A700A98A04201D009F0FD
S214408A00BDFD0198B04201D009F0B8FD394901A832
S214408A10FEF748FA01A92846FEF772FC4FF0280EEA
S214408A2004220823074633490DEB0E00CDF81CE020
S214408A3008928DF82430FEF735FA079A38469DF8A6
S214408A40243007F1140E08993A600A9A3B72A24203
S214408A50796050F80C3F00F05081734500F02D814E
S214408A600B99FA6039610C997A697961002B00F0AC
S214408A7029810A930C9200220B921A700A98A042FF
S214408A8001D009F07BFD0198B04201D009F076FD97
S214408A90194901A8FEF706FA01A92846FEF730FC58
S214408AA04FF02C0E04220823074613490AA8CDF897
S214408AB01CE008928DF82430FEF7F4F9079A384601
S214408AC09DF8243007F1140E08993A600A9A3B72D2
S214408AD0A242796050F80C3F00F01481734500F0D4
S214408AE0F5800BE0F83F4600044046001040460044
S214408AF01C4046002C4046003C4046000B99FA601D
S214408B0039610C997A697961002B00F0E4800A9308
S214408B100C9200220B921A700A98A04201D009F0DB
S214408B202DFD0198B04201D009F028FD914901A8D9
S214408B30FEF7B8F901A92846FEF7E2FB4FF0300EE3
S214408B400422082307468B490AA8CDF81CE0089261
S214408B508DF82430FEF7A6F9079A38469DF824305B
S214408B6007F1140E08993A600A9A3B72A24279605D
S214408B7050F80C3F00F0D580734500F0B0800B995C
S214408B80FA6039610C997A697961002B00F0AC8003
S214408B900A930C9200220B921A700A98A04201D0B7
S214408BA009F0ECFC0198B04201D009F0E7FC7249AC
S214408BB001A8FEF777F901A92846FEF7A1FB05466E
S214408BC03420042205236C4907900AA808928DF8A1
S214408BD02430FEF767F9079F0AA9089A05F10C00AA
S214408BE09DF824302F606A602B7238F0EFFA0A98AE
S214408BF0A04201D009F0C2FC0198B04201D009F071
S214408C00BDFC11B0F0BD0B9BF26033610C9B7361F1
S214408C100A940CAC234698E40B9BFA603B610C9B91
S214408C207B610A940CAC2346CEE40B9BFA603B6116
S214408C300C9B7B610A940CAC234606E50B9BFA60C2
S214408C403B610C9B7B610A940CAC23463EE50B9B38
S214408C50FA603B610C9B7B610A940CAC234676E53C
S214408C600B9BFA603B610C9B7B610A940CAC2346E1
S214408C70BBE50B9BFA603B610C9B7B610A940CAC9A
S214408C802346F3E50B9BFA603B610C9B7B610A94A1
S214408C900CAC23462BE60B9BFA603B610C9B7B613E
S214408CA00A940CAC234663E60B9BFA603B610C9B34
S214408CB07B610A940CAC23469BE60B9BFA603B61B7
S214408CC00C9B7B610A940CAC2346D4E60B9BFA6063
S214408CD03B610C9B7B610A940CAC234619E70B9BCB
S214408CE0FA603B610C9B7B610A940CAC234651E7CF
S214408CF00AA938F0B7F90A9B66E40AA938F0B2F92F
S214408D000A9BB8E60AA938F0ADF90A9B01E70AA91A
S214408D1038F0A8F90A9B2BE60AA938F0A3F90A9B73
S214408D2067E60AA938F09EF90A9B33E70AA938F0A5
S214408D3099F90A9B09E40AA938F094F90A9B84E455
S214408D400AA938F08FF90A9BC0E40AA938F08AF9D4
S214408D500A9B8BE50AA938F085F90A9BC7E50AA95C
S214408D6038F080F90A9BF2E40AA938F07BF90A9BAE
S214408D703BE500BF4C4046005C404600F0B591B035
S214408D8000F58476B74901A80CADFEF78BF801A92B
S214408D903046FEF7B5FA002108220923044607911B
S214408DA00AA8B04908928DF82430FEF77BF8089B55
S214408DB004F10C00079A0AA963609DF824302260EB
S214408DC0237238F003FA0A98A84201D009F0D6FB7D
S214408DD0019803ACA04201D009F0D0FBA24901A8FB
S214408DE0FEF760F801A93046FEF78AFA0823042207
S214408DF007469D490AA807938DF824300892FEF747
S214408E0051F8089B07F10C00079A0AA97B609DF869
S214408E1024303A603B7238F0D9F90A98A84201D01B
S214408E2009F0ACFB0198A04201D009F0A7FB8F499E
S214408E3001A8FEF737F801A93046FEF761FA074663
S214408E400C2004220823894907900AA808928DF826
S214408E502430FEF727F8089B07F10C00079A0AA96A
S214408E607B609DF824303A603B7238F0AFF90A9840
S214408E70A84201D009F082FB0198A04201D009F037
S214408E807DFB7B4901A8FEF70DF801A93046FEF7A9
S214408E9037FA0746102004220823754907900AA887
S214408EA008928DF82430FDF7FDFF089B07F10C0073
S214408EB0079A0AA97B609DF824303A603B7238F0E6
S214408EC085F90A98A84201D009F058FB0198A042BB
S214408ED001D009F053FB674901A8FDF7E3FF01A95C
S214408EE03046FEF70DFA074614200422082361494F
S214408EF007900AA808928DF82430FDF7D3FF089B08
S214408F0007F10C00079A0AA97B609DF824303A6066
S214408F103B7238F05BF90A98A84201D009F02EFB64
S214408F200198A04201D009F029FB534901A8FDF75A
S214408F30B9FF01A93046FEF7E3F907461820042298
S214408F4008234D4907900AA808928DF82430FDF76B
S214408F50A9FF089B07F10C00079A0AA97B609DF8B9
S214408F6024303A603B7238F031F90A98A84201D072
S214408F7009F004FB0198A04201D009F0FFFA3F49EE
S214408F8001A8FDF78FFF01A93046FEF7B9F907465D
S214408F901C2004220823394907900AA808928DF815
S214408FA02430FDF77FFF089B07F10C00079A0AA9BB
S214408FB07B609DF824303A603B7238F007F90A9897
S214408FC0A84201D009F0DAFA0198A04201D009F08F
S214408FD0D5FA2B4901A8FDF765FF01A93046FEF7F3
S214408FE08FF90746202004220823254907900AA81F
S214408FF008928DF82430FDF755FF089B07F10C00CA
S214409000079A0AA97B609DF824303A603B7238F094
S214409010DDF80A98A84201D009F0B0FA0198A042BB
S21440902001D009F0ABFA174901A8FDF73BFF01A9AB
S2144090303046FEF765F907462420042208231149E6
S21440904007900AA808928DF82430FDF72BFF089B5E
S21440905007F10C00079A0AA97B609DF824303A6015
S21440906012E000BFC8394600FC41460004424600B4
S2144090700C424600144246001C424600244246002B
S2144090802C424600344246003B7238F09FF80A981D
S214409090A84201D009F072FA0198A04201D009F026
S2144090A06DFAB84901A8FDF7FDFE01A93046FEF766
S2144090B027F90746282004220823B2490790684427
S2144090C008928DF82430FDF7EDFE089B07F10C0062
S2144090D0079A0AA97B609DF824303A603B7238F0C4
S2144090E075F80A98A84201D009F048FA0198A042BB
S2144090F001D009F043FAA44901A8FDF7D3FE01A91F
S2144091003046FEF7FDF807462C20042208239E49E9
S21440911007900AA808928DF82430FDF7C3FE089BF6
S21440912007F10C00079A0AA97B609DF824303A6044
S2144091303B7238F04BF80A98A84201D009F01EFA64
S2144091400198A04201D009F019FA904901A8FDF70C
S214409150A9FE01A93046FEF7D3F807463020042280
S21440916008238A4907900AA808928DF82430FDF70C
S21440917099FE089B07F10C00079A0AA97B609DF8A8
S21440918024303A603B7238F021F80A98A84201D061
S21440919009F0F4F90198A04201D009F0EFF97C49B2
S2144091A001A8FDF77FFE01A93046FEF7A9F807465D
S2144091B0342004220823764907900AA808928DF89E
S2144091C02430FDF76FFE089B07F10C00079A0AA9AA
S2144091D07B609DF824303A603B7237F0F7FF0A9880
S2144091E0A84201D009F0CAF90198A04201D009F07E
S2144091F0C5F9684901A8FDF755FE01A93046FEF7B6
S2144092007FF80746382004220823624907900AA8B8
S21440921008928DF82430FDF745FE089B07F10C00B8
S214409220079A0AA97B609DF824303A603B7237F073
S214409230CDFF0A98A84201D009F0A0F90198A042B3
S21440924001D009F09BF9544901A8FDF72BFE01A96E
S2144092503046FEF755F807463C20042208234E4980
S21440926007900AA808928DF82430FDF71BFE089B4D
S21440927007F10C00079A0AA97B609DF824303A60F3
S2144092803B7237F0A3FF0A98A84201D009F076F95E
S2144092900198A04201D009F071F9404901A8FDF7B4
S2144092A001FE01A93046FEF72BF80746402004226F
S2144092B008233A4907900AA808928DF82430FDF70B
S2144092C0F1FD089B07F10C00079A0AA97B609DF800
S2144092D024303A603B7237F079FF0A98A84201D0B2
S2144092E009F04CF90198A04201D009F047F92C4901
S2144092F001A8FDF7D7FD01A93046FEF701F807465D
S214409300442004220823264907900AA808928DF88C
S2144093102430FDF7C7FD089B07F10C00079A0AA901
S2144093207B609DF824303A603B7237F04FFF0A98D6
S214409330A84201D009F022F90198A04201D009F0D4
S2144093401DF9184901A8FDF7ADFD01A93046FDF706
S214409350D7FF0746442004220823124907900AA84C
S21440936008928DF82430FDF79DFD089B07F10C0010
S214409370079A0AA97B609DF824303A603B7237F022
S21440938025FF11E03C424600444246004C4246001F
S2144093905042460058424600604246006C424600F4
S2144093A070424600784246000A98A84201D009F02A
S2144093B0E5F80198A04201D009F0E0F8154901A867
S2144093C0FDF770FD01A93046FDF79AFF064644209A
S2144093D0042208230F4907900AA808928DF82430E3
S2144093E0FDF760FD079F0AA9089A06F10C009DF854
S2144093F0243037607260337237F0E8FE0A98A8422D
S21440940001D009F0BBF80198A04201D009F0B6F8A7
S21440941011B0F0BD80424600F0B591B000F1600654
S214409420B74901A80CADFDF73DFD01A93046FDF753
S21440943067FF002104220523044607910AA8B04985
S21440944008928DF82430FDF72DFD089B04F10C00A2
S214409450079A0AA963609DF824302260237237F089
S214409460B5FE0A98A84201D009F088F8019803ACE6
S214409470A04201D009F082F8A24901A8FDF712FDEA
S21440948001A93046FDF73CFF074604200822092381
S2144094909C4907900AA808928DF82430FDF702FDF3
S2144094A0089B07F10C00079A0AA97B609DF82430B8
S2144094B03A603B7237F08AFE0A98A84201D009F01B
S2144094C05DF80198A04201D009F058F88E4901A8ED
S2144094D0FDF7E8FC01A93046FDF712FF07460C20D1
S2144094E004220523884907900AA808928DF824305C
S2144094F0FDF7D8FC089B07F10C00079A0AA97B6089
S2144095009DF824303A603B7237F060FE0A98A842D5
S21440951001D009F033F80198A04201D009F02EF8A6
S2144095207A4901A8FDF7BEFC01A93046FDF7E8FEE2
S2144095300746102004220523744907900AA808927B
S2144095408DF82430FDF7AEFC089B07F10C00079A17
S2144095500AA97B609DF824303A603B7237F036FEAD
S2144095600A98A84201D009F009F80198A04201D013
S21440957009F004F8664901A8FDF794FC01A93046B5
S214409580FDF7BEFE074614200422082360490790D4
S2144095900AA808928DF82430FDF784FC089B07F152
S2144095A00C00079A0AA97B609DF824303A603B720B
S2144095B037F00CFE0A98A84201D008F0DFFF019869
S2144095C0A04201D008F0DAFF524901A8FDF76AFC34
S2144095D001A93046FDF794FE0746182004220823CA
S2144095E04C4907900AA808928DF82430FDF75AFC9B
S2144095F0089B07F10C00079A0AA97B609DF8243067
S2144096003A603B7237F0E2FD0A98A84201D008F073
S214409610B5FF0198A04201D008F0B0FF3E4901A82E
S214409620FDF740FC01A93046FDF76AFE07461C20C0
S21440963004220823384907900AA808928DF8243057
S214409640FDF730FC089B07F10C00079A0AA97B60DF
S2144096509DF824303A603B7237F0B8FD0A98A8422D
S21440966001D008F08BFF0198A04201D008F086FF99
S2144096702A4901A8FDF716FC01A93046FDF740FE31
S2144096800746202004220823244907900AA8089267
S2144096908DF82430FDF706FC089B07F10C00079A6E
S2144096A00AA97B609DF824303A603B7237F08EFD05
S2144096B00A98A84201D008F061FF0198A04201D064
S2144096C008F05CFF164901A8FDF7ECFB01A93046FF
S2144096D0FDF716FE0746242004220823104907906B
S2144096E00AA808928DF82430FDF7DCFB089B07F1AA
S2144096F00C00079A0AA97B609DF8243012E000BF50
S214409700383A4600403A4600C43F4600D03F4600FE
S2144097104C3A4600583A4600643A4600703A46008C
S214409720783A46003A603B7237F050FD0A98A842B5
S21440973001D008F023FF0198A04201D008F01EFF98
S214409740934901A8FDF7AEFB01A93046FDF7D8FDC9
S21440975007462820042208238D490790684408922B
S2144097608DF82430FDF79EFB089B07F10C00079A06
S2144097700AA97B609DF824303A603B7237F026FD9C
S2144097800A98A84201D008F0F9FE0198A04201D0FC
S21440979008F0F4FE7F4901A8FDF784FB01A9304696
S2144097A0FDF7AEFD07462C2008220923794907908D
S2144097B00AA808928DF82430FDF774FB089B07F141
S2144097C00C00079A0AA97B609DF824303A603B72E9
S2144097D037F0FCFC0A98A84201D008F0CFFE01986A
S2144097E0A04201D008F0CAFE6B4901A8FDF75AFB1B
S2144097F001A93046FDF784FD074634200822092398
S214409800654907900AA808928DF82430FDF74AFB70
S214409810089B07F10C00079A0AA97B609DF8243044
S2144098203A603B7237F0D2FC0A98A84201D008F062
S214409830A5FE0198A04201D008F0A0FE574901A815
S214409840FDF730FB01A93046FDF75AFD07463C20A0
S21440985008220923514907900AA808928DF8243017
S214409860FDF720FB089B07F10C00079A0AA97B60CE
S2144098709DF824303A603B7237F0A8FC0A98A8421C
S21440988001D008F07BFE0198A04201D008F076FE99
S214409890434901A8FDF706FB01A93046FDF730FD18
S2144098A007464420042208233D4907900AA8089208
S2144098B08DF82430FDF7F6FA089B07F10C00079A5E
S2144098C00AA97B609DF824303A603B7237F07EFCF4
